
test_nanosleep.exe:     file format elf32-littlearm


Disassembly of section .text:

08000000 <__vectors0>:
 8000000:	20019cf0 	.word	0x20019cf0
 8000004:	08013a11 	.word	0x08013a11
 8000008:	08013a7e 	.word	0x08013a7e
 800000c:	08013a7e 	.word	0x08013a7e
 8000010:	08013a7e 	.word	0x08013a7e

08000014 <incr_timespec>:
 8000014:	b480      	push	{r7}
 8000016:	b083      	sub	sp, #12
 8000018:	af00      	add	r7, sp, #0
 800001a:	6078      	str	r0, [r7, #4]
 800001c:	6039      	str	r1, [r7, #0]
 800001e:	687b      	ldr	r3, [r7, #4]
 8000020:	681a      	ldr	r2, [r3, #0]
 8000022:	683b      	ldr	r3, [r7, #0]
 8000024:	681b      	ldr	r3, [r3, #0]
 8000026:	441a      	add	r2, r3
 8000028:	687b      	ldr	r3, [r7, #4]
 800002a:	601a      	str	r2, [r3, #0]
 800002c:	687b      	ldr	r3, [r7, #4]
 800002e:	685a      	ldr	r2, [r3, #4]
 8000030:	683b      	ldr	r3, [r7, #0]
 8000032:	685b      	ldr	r3, [r3, #4]
 8000034:	441a      	add	r2, r3
 8000036:	687b      	ldr	r3, [r7, #4]
 8000038:	605a      	str	r2, [r3, #4]
 800003a:	687b      	ldr	r3, [r7, #4]
 800003c:	685b      	ldr	r3, [r3, #4]
 800003e:	4a09      	ldr	r2, [pc, #36]	; (8000064 <incr_timespec+0x50>)
 8000040:	4293      	cmp	r3, r2
 8000042:	dd0a      	ble.n	800005a <incr_timespec+0x46>
 8000044:	687b      	ldr	r3, [r7, #4]
 8000046:	681b      	ldr	r3, [r3, #0]
 8000048:	1c5a      	adds	r2, r3, #1
 800004a:	687b      	ldr	r3, [r7, #4]
 800004c:	601a      	str	r2, [r3, #0]
 800004e:	687b      	ldr	r3, [r7, #4]
 8000050:	685a      	ldr	r2, [r3, #4]
 8000052:	4b05      	ldr	r3, [pc, #20]	; (8000068 <incr_timespec+0x54>)
 8000054:	4413      	add	r3, r2
 8000056:	687a      	ldr	r2, [r7, #4]
 8000058:	6053      	str	r3, [r2, #4]
 800005a:	370c      	adds	r7, #12
 800005c:	46bd      	mov	sp, r7
 800005e:	f85d 7b04 	ldr.w	r7, [sp], #4
 8000062:	4770      	bx	lr
 8000064:	3b9ac9ff 	.word	0x3b9ac9ff
 8000068:	c4653600 	.word	0xc4653600
 800006c:	00000000 	.word	0x00000000

08000070 <timespec_to_double>:
 8000070:	b480      	push	{r7}
 8000072:	b083      	sub	sp, #12
 8000074:	af00      	add	r7, sp, #0
 8000076:	6078      	str	r0, [r7, #4]
 8000078:	687b      	ldr	r3, [r7, #4]
 800007a:	685b      	ldr	r3, [r3, #4]
 800007c:	ee07 3a90 	vmov	s15, r3
 8000080:	eeb8 7be7 	vcvt.f64.s32	d7, s15
 8000084:	ed9f 6b0a 	vldr	d6, [pc, #40]	; 80000b0 <timespec_to_double+0x40>
 8000088:	ee27 6b06 	vmul.f64	d6, d7, d6
 800008c:	687b      	ldr	r3, [r7, #4]
 800008e:	681b      	ldr	r3, [r3, #0]
 8000090:	ee07 3a90 	vmov	s15, r3
 8000094:	eeb8 7be7 	vcvt.f64.s32	d7, s15
 8000098:	ee36 7b07 	vadd.f64	d7, d6, d7
 800009c:	bf00      	nop
 800009e:	eeb0 0b47 	vmov.f64	d0, d7
 80000a2:	370c      	adds	r7, #12
 80000a4:	46bd      	mov	sp, r7
 80000a6:	f85d 7b04 	ldr.w	r7, [sp], #4
 80000aa:	4770      	bx	lr
 80000ac:	f3af 8000 	nop.w
 80000b0:	e826d695 	.word	0xe826d695
 80000b4:	3e112e0b 	.word	0x3e112e0b

080000b8 <user_main>:
 80000b8:	b590      	push	{r4, r7, lr}
 80000ba:	b0f5      	sub	sp, #468	; 0x1d4
 80000bc:	af00      	add	r7, sp, #0
 80000be:	1d3b      	adds	r3, r7, #4
 80000c0:	2200      	movs	r2, #0
 80000c2:	601a      	str	r2, [r3, #0]
 80000c4:	1d3b      	adds	r3, r7, #4
 80000c6:	4a7a      	ldr	r2, [pc, #488]	; (80002b0 <user_main+0x1f8>)
 80000c8:	605a      	str	r2, [r3, #4]
 80000ca:	1d3b      	adds	r3, r7, #4
 80000cc:	4618      	mov	r0, r3
 80000ce:	f7ff ffcf 	bl	8000070 <timespec_to_double>
 80000d2:	ed87 0b70 	vstr	d0, [r7, #448]	; 0x1c0
 80000d6:	f107 0314 	add.w	r3, r7, #20
 80000da:	4619      	mov	r1, r3
 80000dc:	2003      	movs	r0, #3
 80000de:	f003 f86f 	bl	80031c0 <clock_gettime>
 80000e2:	4603      	mov	r3, r0
 80000e4:	f1b3 3fff 	cmp.w	r3, #4294967295	; 0xffffffff
 80000e8:	d106      	bne.n	80000f8 <user_main+0x40>
 80000ea:	4872      	ldr	r0, [pc, #456]	; (80002b4 <user_main+0x1fc>)
 80000ec:	f015 f962 	bl	80153b4 <perror>
 80000f0:	f04f 30ff 	mov.w	r0, #4294967295	; 0xffffffff
 80000f4:	f015 f92c 	bl	8015350 <exit>
 80000f8:	f107 030c 	add.w	r3, r7, #12
 80000fc:	f107 0214 	add.w	r2, r7, #20
 8000100:	e892 0003 	ldmia.w	r2, {r0, r1}
 8000104:	e883 0003 	stmia.w	r3, {r0, r1}
 8000108:	f107 0314 	add.w	r3, r7, #20
 800010c:	4618      	mov	r0, r3
 800010e:	f7ff ffaf 	bl	8000070 <timespec_to_double>
 8000112:	ed87 0b6e 	vstr	d0, [r7, #440]	; 0x1b8
 8000116:	2301      	movs	r3, #1
 8000118:	f8c7 31cc 	str.w	r3, [r7, #460]	; 0x1cc
 800011c:	e056      	b.n	80001cc <user_main+0x114>
 800011e:	1d3a      	adds	r2, r7, #4
 8000120:	f107 030c 	add.w	r3, r7, #12
 8000124:	4611      	mov	r1, r2
 8000126:	4618      	mov	r0, r3
 8000128:	f7ff ff74 	bl	8000014 <incr_timespec>
 800012c:	f107 030c 	add.w	r3, r7, #12
 8000130:	4618      	mov	r0, r3
 8000132:	f7ff ff9d 	bl	8000070 <timespec_to_double>
 8000136:	ec54 3b10 	vmov	r3, r4, d0
 800013a:	461a      	mov	r2, r3
 800013c:	4623      	mov	r3, r4
 800013e:	485e      	ldr	r0, [pc, #376]	; (80002b8 <user_main+0x200>)
 8000140:	f015 f950 	bl	80153e4 <printf>
 8000144:	f107 020c 	add.w	r2, r7, #12
 8000148:	2300      	movs	r3, #0
 800014a:	2101      	movs	r1, #1
 800014c:	2003      	movs	r0, #3
 800014e:	f000 f8c5 	bl	80002dc <clock_nanosleep>
 8000152:	f8c7 01ac 	str.w	r0, [r7, #428]	; 0x1ac
 8000156:	f8d7 31ac 	ldr.w	r3, [r7, #428]	; 0x1ac
 800015a:	2b00      	cmp	r3, #0
 800015c:	d00c      	beq.n	8000178 <user_main+0xc0>
 800015e:	f8d7 01ac 	ldr.w	r0, [r7, #428]	; 0x1ac
 8000162:	f015 fb75 	bl	8015850 <strerror>
 8000166:	4603      	mov	r3, r0
 8000168:	4619      	mov	r1, r3
 800016a:	4854      	ldr	r0, [pc, #336]	; (80002bc <user_main+0x204>)
 800016c:	f015 f93a 	bl	80153e4 <printf>
 8000170:	f04f 30ff 	mov.w	r0, #4294967295	; 0xffffffff
 8000174:	f015 f8ec 	bl	8015350 <exit>
 8000178:	f107 0214 	add.w	r2, r7, #20
 800017c:	f8d7 31cc 	ldr.w	r3, [r7, #460]	; 0x1cc
 8000180:	00db      	lsls	r3, r3, #3
 8000182:	4413      	add	r3, r2
 8000184:	4619      	mov	r1, r3
 8000186:	2003      	movs	r0, #3
 8000188:	f003 f81a 	bl	80031c0 <clock_gettime>
 800018c:	4603      	mov	r3, r0
 800018e:	f1b3 3fff 	cmp.w	r3, #4294967295	; 0xffffffff
 8000192:	d106      	bne.n	80001a2 <user_main+0xea>
 8000194:	484a      	ldr	r0, [pc, #296]	; (80002c0 <user_main+0x208>)
 8000196:	f015 f90d 	bl	80153b4 <perror>
 800019a:	f04f 30ff 	mov.w	r0, #4294967295	; 0xffffffff
 800019e:	f015 f8d7 	bl	8015350 <exit>
 80001a2:	f107 0214 	add.w	r2, r7, #20
 80001a6:	f8d7 31cc 	ldr.w	r3, [r7, #460]	; 0x1cc
 80001aa:	00db      	lsls	r3, r3, #3
 80001ac:	4413      	add	r3, r2
 80001ae:	4618      	mov	r0, r3
 80001b0:	f7ff ff5e 	bl	8000070 <timespec_to_double>
 80001b4:	ec54 3b10 	vmov	r3, r4, d0
 80001b8:	461a      	mov	r2, r3
 80001ba:	4623      	mov	r3, r4
 80001bc:	4841      	ldr	r0, [pc, #260]	; (80002c4 <user_main+0x20c>)
 80001be:	f015 f911 	bl	80153e4 <printf>
 80001c2:	f8d7 31cc 	ldr.w	r3, [r7, #460]	; 0x1cc
 80001c6:	3301      	adds	r3, #1
 80001c8:	f8c7 31cc 	str.w	r3, [r7, #460]	; 0x1cc
 80001cc:	f8d7 31cc 	ldr.w	r3, [r7, #460]	; 0x1cc
 80001d0:	2b32      	cmp	r3, #50	; 0x32
 80001d2:	dda4      	ble.n	800011e <user_main+0x66>
 80001d4:	f107 0314 	add.w	r3, r7, #20
 80001d8:	4618      	mov	r0, r3
 80001da:	f7ff ff49 	bl	8000070 <timespec_to_double>
 80001de:	ec54 3b10 	vmov	r3, r4, d0
 80001e2:	461a      	mov	r2, r3
 80001e4:	4623      	mov	r3, r4
 80001e6:	4838      	ldr	r0, [pc, #224]	; (80002c8 <user_main+0x210>)
 80001e8:	f015 f8fc 	bl	80153e4 <printf>
 80001ec:	2301      	movs	r3, #1
 80001ee:	f8c7 31cc 	str.w	r3, [r7, #460]	; 0x1cc
 80001f2:	e04b      	b.n	800028c <user_main+0x1d4>
 80001f4:	f107 0214 	add.w	r2, r7, #20
 80001f8:	f8d7 31cc 	ldr.w	r3, [r7, #460]	; 0x1cc
 80001fc:	00db      	lsls	r3, r3, #3
 80001fe:	4413      	add	r3, r2
 8000200:	4618      	mov	r0, r3
 8000202:	f7ff ff35 	bl	8000070 <timespec_to_double>
 8000206:	ec54 3b10 	vmov	r3, r4, d0
 800020a:	461a      	mov	r2, r3
 800020c:	4623      	mov	r3, r4
 800020e:	f8d7 11cc 	ldr.w	r1, [r7, #460]	; 0x1cc
 8000212:	482e      	ldr	r0, [pc, #184]	; (80002cc <user_main+0x214>)
 8000214:	f015 f8e6 	bl	80153e4 <printf>
 8000218:	f107 0214 	add.w	r2, r7, #20
 800021c:	f8d7 31cc 	ldr.w	r3, [r7, #460]	; 0x1cc
 8000220:	00db      	lsls	r3, r3, #3
 8000222:	4413      	add	r3, r2
 8000224:	4618      	mov	r0, r3
 8000226:	f7ff ff23 	bl	8000070 <timespec_to_double>
 800022a:	eeb0 5b40 	vmov.f64	d5, d0
 800022e:	f8d7 31cc 	ldr.w	r3, [r7, #460]	; 0x1cc
 8000232:	ee07 3a90 	vmov	s15, r3
 8000236:	eeb8 6be7 	vcvt.f64.s32	d6, s15
 800023a:	ed97 7b70 	vldr	d7, [r7, #448]	; 0x1c0
 800023e:	ee26 7b07 	vmul.f64	d7, d6, d7
 8000242:	ee35 6b47 	vsub.f64	d6, d5, d7
 8000246:	ed97 7b6e 	vldr	d7, [r7, #440]	; 0x1b8
 800024a:	ee36 7b47 	vsub.f64	d7, d6, d7
 800024e:	ed87 7b6c 	vstr	d7, [r7, #432]	; 0x1b0
 8000252:	e9d7 236c 	ldrd	r2, r3, [r7, #432]	; 0x1b0
 8000256:	f8d7 11cc 	ldr.w	r1, [r7, #460]	; 0x1cc
 800025a:	481d      	ldr	r0, [pc, #116]	; (80002d0 <user_main+0x218>)
 800025c:	f015 f8c2 	bl	80153e4 <printf>
 8000260:	ed97 7b6c 	vldr	d7, [r7, #432]	; 0x1b0
 8000264:	ed9f 6b10 	vldr	d6, [pc, #64]	; 80002a8 <user_main+0x1f0>
 8000268:	eeb4 7bc6 	vcmpe.f64	d7, d6
 800026c:	eef1 fa10 	vmrs	APSR_nzcv, fpscr
 8000270:	d407      	bmi.n	8000282 <user_main+0x1ca>
 8000272:	2151      	movs	r1, #81	; 0x51
 8000274:	4817      	ldr	r0, [pc, #92]	; (80002d4 <user_main+0x21c>)
 8000276:	f015 f8b5 	bl	80153e4 <printf>
 800027a:	f04f 30ff 	mov.w	r0, #4294967295	; 0xffffffff
 800027e:	f015 f867 	bl	8015350 <exit>
 8000282:	f8d7 31cc 	ldr.w	r3, [r7, #460]	; 0x1cc
 8000286:	3301      	adds	r3, #1
 8000288:	f8c7 31cc 	str.w	r3, [r7, #460]	; 0x1cc
 800028c:	f8d7 31cc 	ldr.w	r3, [r7, #460]	; 0x1cc
 8000290:	2b32      	cmp	r3, #50	; 0x32
 8000292:	ddaf      	ble.n	80001f4 <user_main+0x13c>
 8000294:	4810      	ldr	r0, [pc, #64]	; (80002d8 <user_main+0x220>)
 8000296:	f015 f8ed 	bl	8015474 <puts>
 800029a:	2300      	movs	r3, #0
 800029c:	bf00      	nop
 800029e:	4618      	mov	r0, r3
 80002a0:	f507 77ea 	add.w	r7, r7, #468	; 0x1d4
 80002a4:	46bd      	mov	sp, r7
 80002a6:	bd90      	pop	{r4, r7, pc}
 80002a8:	47ae147b 	.word	0x47ae147b
 80002ac:	3f847ae1 	.word	0x3f847ae1
 80002b0:	05f5e100 	.word	0x05f5e100
 80002b4:	0801e978 	.word	0x0801e978
 80002b8:	0801e9a0 	.word	0x0801e9a0
 80002bc:	0801e9b4 	.word	0x0801e9b4
 80002c0:	0801ea08 	.word	0x0801ea08
 80002c4:	0801ea30 	.word	0x0801ea30
 80002c8:	0801ea44 	.word	0x0801ea44
 80002cc:	0801ea58 	.word	0x0801ea58
 80002d0:	0801ea74 	.word	0x0801ea74
 80002d4:	0801ea90 	.word	0x0801ea90
 80002d8:	0801ead0 	.word	0x0801ead0

080002dc <clock_nanosleep>:
 80002dc:	e92d 48f0 	stmdb	sp!, {r4, r5, r6, r7, fp, lr}
 80002e0:	b08e      	sub	sp, #56	; 0x38
 80002e2:	af00      	add	r7, sp, #0
 80002e4:	60f8      	str	r0, [r7, #12]
 80002e6:	60b9      	str	r1, [r7, #8]
 80002e8:	607a      	str	r2, [r7, #4]
 80002ea:	603b      	str	r3, [r7, #0]
 80002ec:	68f8      	ldr	r0, [r7, #12]
 80002ee:	f000 f9b5 	bl	800065c <marte__kernel__timers__internals__clock_id_ok>
 80002f2:	4603      	mov	r3, r0
 80002f4:	f083 0301 	eor.w	r3, r3, #1
 80002f8:	b2db      	uxtb	r3, r3
 80002fa:	2b00      	cmp	r3, #0
 80002fc:	d105      	bne.n	800030a <clock_nanosleep+0x2e>
 80002fe:	68f8      	ldr	r0, [r7, #12]
 8000300:	f000 f992 	bl	8000628 <marte__kernel__timers__internals__is_cpu_clock_of_self>
 8000304:	4603      	mov	r3, r0
 8000306:	2b00      	cmp	r3, #0
 8000308:	d001      	beq.n	800030e <clock_nanosleep+0x32>
 800030a:	2316      	movs	r3, #22
 800030c:	e157      	b.n	80005be <clock_nanosleep+0x2e2>
 800030e:	68fb      	ldr	r3, [r7, #12]
 8000310:	2b01      	cmp	r3, #1
 8000312:	bf14      	ite	ne
 8000314:	2301      	movne	r3, #1
 8000316:	2300      	moveq	r3, #0
 8000318:	b2da      	uxtb	r2, r3
 800031a:	68fb      	ldr	r3, [r7, #12]
 800031c:	2b03      	cmp	r3, #3
 800031e:	bf14      	ite	ne
 8000320:	2301      	movne	r3, #1
 8000322:	2300      	moveq	r3, #0
 8000324:	b2db      	uxtb	r3, r3
 8000326:	4013      	ands	r3, r2
 8000328:	b2db      	uxtb	r3, r3
 800032a:	2b00      	cmp	r3, #0
 800032c:	d001      	beq.n	8000332 <clock_nanosleep+0x56>
 800032e:	235f      	movs	r3, #95	; 0x5f
 8000330:	e145      	b.n	80005be <clock_nanosleep+0x2e2>
 8000332:	f107 0314 	add.w	r3, r7, #20
 8000336:	4618      	mov	r0, r3
 8000338:	f002 fd54 	bl	8002de4 <kernel_enter_critic_section>
 800033c:	f003 f96a 	bl	8003614 <marte__hal__get_hwtime>
 8000340:	e9c7 010c 	strd	r0, r1, [r7, #48]	; 0x30
 8000344:	f003 fb5a 	bl	80039fc <pthread_self>
 8000348:	4603      	mov	r3, r0
 800034a:	2b00      	cmp	r3, #0
 800034c:	d103      	bne.n	8000356 <clock_nanosleep+0x7a>
 800034e:	2155      	movs	r1, #85	; 0x55
 8000350:	489e      	ldr	r0, [pc, #632]	; (80005cc <clock_nanosleep+0x2f0>)
 8000352:	f013 f95d 	bl	8013610 <__gnat_last_chance_handler>
 8000356:	f8d3 2114 	ldr.w	r2, [r3, #276]	; 0x114
 800035a:	2a00      	cmp	r2, #0
 800035c:	d103      	bne.n	8000366 <clock_nanosleep+0x8a>
 800035e:	2155      	movs	r1, #85	; 0x55
 8000360:	489a      	ldr	r0, [pc, #616]	; (80005cc <clock_nanosleep+0x2f0>)
 8000362:	f013 f955 	bl	8013610 <__gnat_last_chance_handler>
 8000366:	687a      	ldr	r2, [r7, #4]
 8000368:	2a00      	cmp	r2, #0
 800036a:	d103      	bne.n	8000374 <clock_nanosleep+0x98>
 800036c:	2155      	movs	r1, #85	; 0x55
 800036e:	4897      	ldr	r0, [pc, #604]	; (80005cc <clock_nanosleep+0x2f0>)
 8000370:	f013 f94e 	bl	8013610 <__gnat_last_chance_handler>
 8000374:	f8d3 5114 	ldr.w	r5, [r3, #276]	; 0x114
 8000378:	6878      	ldr	r0, [r7, #4]
 800037a:	f002 ffad 	bl	80032d8 <marte__timespec__timespec_to_hwtime>
 800037e:	4603      	mov	r3, r0
 8000380:	460c      	mov	r4, r1
 8000382:	e9c5 3402 	strd	r3, r4, [r5, #8]
 8000386:	68bb      	ldr	r3, [r7, #8]
 8000388:	f003 0301 	and.w	r3, r3, #1
 800038c:	2b00      	cmp	r3, #0
 800038e:	d06e      	beq.n	800046e <clock_nanosleep+0x192>
 8000390:	68fb      	ldr	r3, [r7, #12]
 8000392:	2b01      	cmp	r3, #1
 8000394:	f040 809a 	bne.w	80004cc <clock_nanosleep+0x1f0>
 8000398:	f003 fb30 	bl	80039fc <pthread_self>
 800039c:	4603      	mov	r3, r0
 800039e:	2b00      	cmp	r3, #0
 80003a0:	d103      	bne.n	80003aa <clock_nanosleep+0xce>
 80003a2:	2159      	movs	r1, #89	; 0x59
 80003a4:	4889      	ldr	r0, [pc, #548]	; (80005cc <clock_nanosleep+0x2f0>)
 80003a6:	f013 f933 	bl	8013610 <__gnat_last_chance_handler>
 80003aa:	f8d3 2114 	ldr.w	r2, [r3, #276]	; 0x114
 80003ae:	2a00      	cmp	r2, #0
 80003b0:	d103      	bne.n	80003ba <clock_nanosleep+0xde>
 80003b2:	2159      	movs	r1, #89	; 0x59
 80003b4:	4885      	ldr	r0, [pc, #532]	; (80005cc <clock_nanosleep+0x2f0>)
 80003b6:	f013 f92b 	bl	8013610 <__gnat_last_chance_handler>
 80003ba:	f8d3 3114 	ldr.w	r3, [r3, #276]	; 0x114
 80003be:	e9d3 4502 	ldrd	r4, r5, [r3, #8]
 80003c2:	f000 fb25 	bl	8000a10 <marte__kernel__timers__realtime_clock_offset>
 80003c6:	4602      	mov	r2, r0
 80003c8:	460b      	mov	r3, r1
 80003ca:	429d      	cmp	r5, r3
 80003cc:	bf08      	it	eq
 80003ce:	4294      	cmpeq	r4, r2
 80003d0:	d219      	bcs.n	8000406 <clock_nanosleep+0x12a>
 80003d2:	f003 fb13 	bl	80039fc <pthread_self>
 80003d6:	4603      	mov	r3, r0
 80003d8:	2b00      	cmp	r3, #0
 80003da:	d103      	bne.n	80003e4 <clock_nanosleep+0x108>
 80003dc:	215b      	movs	r1, #91	; 0x5b
 80003de:	487b      	ldr	r0, [pc, #492]	; (80005cc <clock_nanosleep+0x2f0>)
 80003e0:	f013 f916 	bl	8013610 <__gnat_last_chance_handler>
 80003e4:	f8d3 2114 	ldr.w	r2, [r3, #276]	; 0x114
 80003e8:	2a00      	cmp	r2, #0
 80003ea:	d103      	bne.n	80003f4 <clock_nanosleep+0x118>
 80003ec:	215b      	movs	r1, #91	; 0x5b
 80003ee:	4877      	ldr	r0, [pc, #476]	; (80005cc <clock_nanosleep+0x2f0>)
 80003f0:	f013 f90e 	bl	8013610 <__gnat_last_chance_handler>
 80003f4:	f8d3 2114 	ldr.w	r2, [r3, #276]	; 0x114
 80003f8:	f04f 0300 	mov.w	r3, #0
 80003fc:	f04f 0400 	mov.w	r4, #0
 8000400:	e9c2 3402 	strd	r3, r4, [r2, #8]
 8000404:	e062      	b.n	80004cc <clock_nanosleep+0x1f0>
 8000406:	f003 faf9 	bl	80039fc <pthread_self>
 800040a:	4604      	mov	r4, r0
 800040c:	2c00      	cmp	r4, #0
 800040e:	d103      	bne.n	8000418 <clock_nanosleep+0x13c>
 8000410:	215d      	movs	r1, #93	; 0x5d
 8000412:	486e      	ldr	r0, [pc, #440]	; (80005cc <clock_nanosleep+0x2f0>)
 8000414:	f013 f8fc 	bl	8013610 <__gnat_last_chance_handler>
 8000418:	f003 faf0 	bl	80039fc <pthread_self>
 800041c:	4603      	mov	r3, r0
 800041e:	2b00      	cmp	r3, #0
 8000420:	d103      	bne.n	800042a <clock_nanosleep+0x14e>
 8000422:	215d      	movs	r1, #93	; 0x5d
 8000424:	4869      	ldr	r0, [pc, #420]	; (80005cc <clock_nanosleep+0x2f0>)
 8000426:	f013 f8f3 	bl	8013610 <__gnat_last_chance_handler>
 800042a:	f8d4 2114 	ldr.w	r2, [r4, #276]	; 0x114
 800042e:	2a00      	cmp	r2, #0
 8000430:	d103      	bne.n	800043a <clock_nanosleep+0x15e>
 8000432:	215d      	movs	r1, #93	; 0x5d
 8000434:	4865      	ldr	r0, [pc, #404]	; (80005cc <clock_nanosleep+0x2f0>)
 8000436:	f013 f8eb 	bl	8013610 <__gnat_last_chance_handler>
 800043a:	f8d3 2114 	ldr.w	r2, [r3, #276]	; 0x114
 800043e:	2a00      	cmp	r2, #0
 8000440:	d103      	bne.n	800044a <clock_nanosleep+0x16e>
 8000442:	215d      	movs	r1, #93	; 0x5d
 8000444:	4861      	ldr	r0, [pc, #388]	; (80005cc <clock_nanosleep+0x2f0>)
 8000446:	f013 f8e3 	bl	8013610 <__gnat_last_chance_handler>
 800044a:	f8d3 3114 	ldr.w	r3, [r3, #276]	; 0x114
 800044e:	e9d3 5602 	ldrd	r5, r6, [r3, #8]
 8000452:	f000 fadd 	bl	8000a10 <marte__kernel__timers__realtime_clock_offset>
 8000456:	4602      	mov	r2, r0
 8000458:	460b      	mov	r3, r1
 800045a:	f8d4 1114 	ldr.w	r1, [r4, #276]	; 0x114
 800045e:	1aad      	subs	r5, r5, r2
 8000460:	eb66 0603 	sbc.w	r6, r6, r3
 8000464:	462b      	mov	r3, r5
 8000466:	4634      	mov	r4, r6
 8000468:	e9c1 3402 	strd	r3, r4, [r1, #8]
 800046c:	e02e      	b.n	80004cc <clock_nanosleep+0x1f0>
 800046e:	f003 fac5 	bl	80039fc <pthread_self>
 8000472:	4604      	mov	r4, r0
 8000474:	2c00      	cmp	r4, #0
 8000476:	d103      	bne.n	8000480 <clock_nanosleep+0x1a4>
 8000478:	2163      	movs	r1, #99	; 0x63
 800047a:	4854      	ldr	r0, [pc, #336]	; (80005cc <clock_nanosleep+0x2f0>)
 800047c:	f013 f8c8 	bl	8013610 <__gnat_last_chance_handler>
 8000480:	f003 fabc 	bl	80039fc <pthread_self>
 8000484:	4603      	mov	r3, r0
 8000486:	2b00      	cmp	r3, #0
 8000488:	d103      	bne.n	8000492 <clock_nanosleep+0x1b6>
 800048a:	2163      	movs	r1, #99	; 0x63
 800048c:	484f      	ldr	r0, [pc, #316]	; (80005cc <clock_nanosleep+0x2f0>)
 800048e:	f013 f8bf 	bl	8013610 <__gnat_last_chance_handler>
 8000492:	f8d4 2114 	ldr.w	r2, [r4, #276]	; 0x114
 8000496:	2a00      	cmp	r2, #0
 8000498:	d103      	bne.n	80004a2 <clock_nanosleep+0x1c6>
 800049a:	2163      	movs	r1, #99	; 0x63
 800049c:	484b      	ldr	r0, [pc, #300]	; (80005cc <clock_nanosleep+0x2f0>)
 800049e:	f013 f8b7 	bl	8013610 <__gnat_last_chance_handler>
 80004a2:	f8d3 2114 	ldr.w	r2, [r3, #276]	; 0x114
 80004a6:	2a00      	cmp	r2, #0
 80004a8:	d103      	bne.n	80004b2 <clock_nanosleep+0x1d6>
 80004aa:	2163      	movs	r1, #99	; 0x63
 80004ac:	4847      	ldr	r0, [pc, #284]	; (80005cc <clock_nanosleep+0x2f0>)
 80004ae:	f013 f8af 	bl	8013610 <__gnat_last_chance_handler>
 80004b2:	f8d3 3114 	ldr.w	r3, [r3, #276]	; 0x114
 80004b6:	e9d3 1202 	ldrd	r1, r2, [r3, #8]
 80004ba:	f8d4 0114 	ldr.w	r0, [r4, #276]	; 0x114
 80004be:	e9d7 340c 	ldrd	r3, r4, [r7, #48]	; 0x30
 80004c2:	185d      	adds	r5, r3, r1
 80004c4:	eb44 0602 	adc.w	r6, r4, r2
 80004c8:	e9c0 5602 	strd	r5, r6, [r0, #8]
 80004cc:	f003 fa96 	bl	80039fc <pthread_self>
 80004d0:	4603      	mov	r3, r0
 80004d2:	2b00      	cmp	r3, #0
 80004d4:	d103      	bne.n	80004de <clock_nanosleep+0x202>
 80004d6:	2166      	movs	r1, #102	; 0x66
 80004d8:	483c      	ldr	r0, [pc, #240]	; (80005cc <clock_nanosleep+0x2f0>)
 80004da:	f013 f899 	bl	8013610 <__gnat_last_chance_handler>
 80004de:	f8d3 2114 	ldr.w	r2, [r3, #276]	; 0x114
 80004e2:	2a00      	cmp	r2, #0
 80004e4:	d103      	bne.n	80004ee <clock_nanosleep+0x212>
 80004e6:	2166      	movs	r1, #102	; 0x66
 80004e8:	4838      	ldr	r0, [pc, #224]	; (80005cc <clock_nanosleep+0x2f0>)
 80004ea:	f013 f891 	bl	8013610 <__gnat_last_chance_handler>
 80004ee:	f8d3 3114 	ldr.w	r3, [r3, #276]	; 0x114
 80004f2:	e9d3 1202 	ldrd	r1, r2, [r3, #8]
 80004f6:	4b36      	ldr	r3, [pc, #216]	; (80005d0 <clock_nanosleep+0x2f4>)
 80004f8:	e9d3 5600 	ldrd	r5, r6, [r3]
 80004fc:	e9d7 340c 	ldrd	r3, r4, [r7, #48]	; 0x30
 8000500:	eb13 0b05 	adds.w	fp, r3, r5
 8000504:	eb44 0c06 	adc.w	ip, r4, r6
 8000508:	4562      	cmp	r2, ip
 800050a:	bf08      	it	eq
 800050c:	4559      	cmpeq	r1, fp
 800050e:	d202      	bcs.n	8000516 <clock_nanosleep+0x23a>
 8000510:	f004 fa2e 	bl	8004970 <marte__kernel__scheduler__running_task_yields_cpu>
 8000514:	e04c      	b.n	80005b0 <clock_nanosleep+0x2d4>
 8000516:	f003 fa71 	bl	80039fc <pthread_self>
 800051a:	4603      	mov	r3, r0
 800051c:	2b00      	cmp	r3, #0
 800051e:	d103      	bne.n	8000528 <clock_nanosleep+0x24c>
 8000520:	216a      	movs	r1, #106	; 0x6a
 8000522:	482a      	ldr	r0, [pc, #168]	; (80005cc <clock_nanosleep+0x2f0>)
 8000524:	f013 f874 	bl	8013610 <__gnat_last_chance_handler>
 8000528:	f8d3 2114 	ldr.w	r2, [r3, #276]	; 0x114
 800052c:	2a00      	cmp	r2, #0
 800052e:	d02e      	beq.n	800058e <clock_nanosleep+0x2b2>
 8000530:	f8d3 2114 	ldr.w	r2, [r3, #276]	; 0x114
 8000534:	6812      	ldr	r2, [r2, #0]
 8000536:	623a      	str	r2, [r7, #32]
 8000538:	6a3a      	ldr	r2, [r7, #32]
 800053a:	61fa      	str	r2, [r7, #28]
 800053c:	69f9      	ldr	r1, [r7, #28]
 800053e:	2204      	movs	r2, #4
 8000540:	61ba      	str	r2, [r7, #24]
 8000542:	69ba      	ldr	r2, [r7, #24]
 8000544:	1a8a      	subs	r2, r1, r2
 8000546:	6812      	ldr	r2, [r2, #0]
 8000548:	4922      	ldr	r1, [pc, #136]	; (80005d4 <clock_nanosleep+0x2f8>)
 800054a:	62f9      	str	r1, [r7, #44]	; 0x2c
 800054c:	6af9      	ldr	r1, [r7, #44]	; 0x2c
 800054e:	62b9      	str	r1, [r7, #40]	; 0x28
 8000550:	6ab8      	ldr	r0, [r7, #40]	; 0x28
 8000552:	2104      	movs	r1, #4
 8000554:	6279      	str	r1, [r7, #36]	; 0x24
 8000556:	6a79      	ldr	r1, [r7, #36]	; 0x24
 8000558:	1a41      	subs	r1, r0, r1
 800055a:	6809      	ldr	r1, [r1, #0]
 800055c:	6810      	ldr	r0, [r2, #0]
 800055e:	6809      	ldr	r1, [r1, #0]
 8000560:	1a41      	subs	r1, r0, r1
 8000562:	2900      	cmp	r1, #0
 8000564:	db0a      	blt.n	800057c <clock_nanosleep+0x2a0>
 8000566:	3106      	adds	r1, #6
 8000568:	f852 2021 	ldr.w	r2, [r2, r1, lsl #2]
 800056c:	4919      	ldr	r1, [pc, #100]	; (80005d4 <clock_nanosleep+0x2f8>)
 800056e:	428a      	cmp	r2, r1
 8000570:	bf0c      	ite	eq
 8000572:	2201      	moveq	r2, #1
 8000574:	2200      	movne	r2, #0
 8000576:	b2d2      	uxtb	r2, r2
 8000578:	2a00      	cmp	r2, #0
 800057a:	d101      	bne.n	8000580 <clock_nanosleep+0x2a4>
 800057c:	2201      	movs	r2, #1
 800057e:	e000      	b.n	8000582 <clock_nanosleep+0x2a6>
 8000580:	2200      	movs	r2, #0
 8000582:	2a00      	cmp	r2, #0
 8000584:	d003      	beq.n	800058e <clock_nanosleep+0x2b2>
 8000586:	216a      	movs	r1, #106	; 0x6a
 8000588:	4810      	ldr	r0, [pc, #64]	; (80005cc <clock_nanosleep+0x2f0>)
 800058a:	f013 f841 	bl	8013610 <__gnat_last_chance_handler>
 800058e:	f8d3 2114 	ldr.w	r2, [r3, #276]	; 0x114
 8000592:	2a00      	cmp	r2, #0
 8000594:	d103      	bne.n	800059e <clock_nanosleep+0x2c2>
 8000596:	216a      	movs	r1, #106	; 0x6a
 8000598:	480c      	ldr	r0, [pc, #48]	; (80005cc <clock_nanosleep+0x2f0>)
 800059a:	f013 f839 	bl	8013610 <__gnat_last_chance_handler>
 800059e:	f8d3 3114 	ldr.w	r3, [r3, #276]	; 0x114
 80005a2:	2200      	movs	r2, #0
 80005a4:	761a      	strb	r2, [r3, #24]
 80005a6:	e9d7 230c 	ldrd	r2, r3, [r7, #48]	; 0x30
 80005aa:	2001      	movs	r0, #1
 80005ac:	f007 f89e 	bl	80076ec <marte__kernel__scheduler__running_task_gets_suspended>
 80005b0:	f007 fc14 	bl	8007ddc <do_scheduling>
 80005b4:	697b      	ldr	r3, [r7, #20]
 80005b6:	4618      	mov	r0, r3
 80005b8:	f002 fc4e 	bl	8002e58 <kernel_leave_critic_section>
 80005bc:	2300      	movs	r3, #0
 80005be:	bf00      	nop
 80005c0:	4618      	mov	r0, r3
 80005c2:	3738      	adds	r7, #56	; 0x38
 80005c4:	46bd      	mov	sp, r7
 80005c6:	e8bd 88f0 	ldmia.w	sp!, {r4, r5, r6, r7, fp, pc}
 80005ca:	bf00      	nop
 80005cc:	0801ead8 	.word	0x0801ead8
 80005d0:	20000ab8 	.word	0x20000ab8
 80005d4:	0801f6fc 	.word	0x0801f6fc

080005d8 <marte__kernel__timers__internals__account_interrupt_handler_execution_time>:
 80005d8:	e92d 0890 	stmdb	sp!, {r4, r7, fp}
 80005dc:	b083      	sub	sp, #12
 80005de:	af00      	add	r7, sp, #0
 80005e0:	e9c7 0100 	strd	r0, r1, [r7]
 80005e4:	4b08      	ldr	r3, [pc, #32]	; (8000608 <marte__kernel__timers__internals__account_interrupt_handler_execution_time+0x30>)
 80005e6:	e9d3 1200 	ldrd	r1, r2, [r3]
 80005ea:	e9d7 3400 	ldrd	r3, r4, [r7]
 80005ee:	eb13 0b01 	adds.w	fp, r3, r1
 80005f2:	eb44 0c02 	adc.w	ip, r4, r2
 80005f6:	4a04      	ldr	r2, [pc, #16]	; (8000608 <marte__kernel__timers__internals__account_interrupt_handler_execution_time+0x30>)
 80005f8:	e9c2 bc00 	strd	fp, ip, [r2]
 80005fc:	370c      	adds	r7, #12
 80005fe:	46bd      	mov	sp, r7
 8000600:	e8bd 0890 	ldmia.w	sp!, {r4, r7, fp}
 8000604:	4770      	bx	lr
 8000606:	bf00      	nop
 8000608:	20000008 	.word	0x20000008

0800060c <marte__kernel__timers__internals__get_interrupt_handlers_execution_time>:
 800060c:	b490      	push	{r4, r7}
 800060e:	af00      	add	r7, sp, #0
 8000610:	4b04      	ldr	r3, [pc, #16]	; (8000624 <marte__kernel__timers__internals__get_interrupt_handlers_execution_time+0x18>)
 8000612:	e9d3 3400 	ldrd	r3, r4, [r3]
 8000616:	bf00      	nop
 8000618:	4618      	mov	r0, r3
 800061a:	4621      	mov	r1, r4
 800061c:	46bd      	mov	sp, r7
 800061e:	bc90      	pop	{r4, r7}
 8000620:	4770      	bx	lr
 8000622:	bf00      	nop
 8000624:	20000008 	.word	0x20000008

08000628 <marte__kernel__timers__internals__is_cpu_clock_of_self>:
 8000628:	b580      	push	{r7, lr}
 800062a:	b082      	sub	sp, #8
 800062c:	af00      	add	r7, sp, #0
 800062e:	6078      	str	r0, [r7, #4]
 8000630:	687b      	ldr	r3, [r7, #4]
 8000632:	2b02      	cmp	r3, #2
 8000634:	d00a      	beq.n	800064c <marte__kernel__timers__internals__is_cpu_clock_of_self+0x24>
 8000636:	f003 f9e1 	bl	80039fc <pthread_self>
 800063a:	4602      	mov	r2, r0
 800063c:	687b      	ldr	r3, [r7, #4]
 800063e:	429a      	cmp	r2, r3
 8000640:	bf0c      	ite	eq
 8000642:	2301      	moveq	r3, #1
 8000644:	2300      	movne	r3, #0
 8000646:	b2db      	uxtb	r3, r3
 8000648:	2b00      	cmp	r3, #0
 800064a:	d001      	beq.n	8000650 <marte__kernel__timers__internals__is_cpu_clock_of_self+0x28>
 800064c:	2301      	movs	r3, #1
 800064e:	e000      	b.n	8000652 <marte__kernel__timers__internals__is_cpu_clock_of_self+0x2a>
 8000650:	2300      	movs	r3, #0
 8000652:	bf00      	nop
 8000654:	4618      	mov	r0, r3
 8000656:	3708      	adds	r7, #8
 8000658:	46bd      	mov	sp, r7
 800065a:	bd80      	pop	{r7, pc}

0800065c <marte__kernel__timers__internals__clock_id_ok>:
 800065c:	b580      	push	{r7, lr}
 800065e:	b082      	sub	sp, #8
 8000660:	af00      	add	r7, sp, #0
 8000662:	6078      	str	r0, [r7, #4]
 8000664:	687b      	ldr	r3, [r7, #4]
 8000666:	2b01      	cmp	r3, #1
 8000668:	d01b      	beq.n	80006a2 <marte__kernel__timers__internals__clock_id_ok+0x46>
 800066a:	687b      	ldr	r3, [r7, #4]
 800066c:	2b03      	cmp	r3, #3
 800066e:	d018      	beq.n	80006a2 <marte__kernel__timers__internals__clock_id_ok+0x46>
 8000670:	687b      	ldr	r3, [r7, #4]
 8000672:	2b04      	cmp	r3, #4
 8000674:	d015      	beq.n	80006a2 <marte__kernel__timers__internals__clock_id_ok+0x46>
 8000676:	687b      	ldr	r3, [r7, #4]
 8000678:	2b04      	cmp	r3, #4
 800067a:	d012      	beq.n	80006a2 <marte__kernel__timers__internals__clock_id_ok+0x46>
 800067c:	687b      	ldr	r3, [r7, #4]
 800067e:	2b02      	cmp	r3, #2
 8000680:	d00f      	beq.n	80006a2 <marte__kernel__timers__internals__clock_id_ok+0x46>
 8000682:	687a      	ldr	r2, [r7, #4]
 8000684:	4b0b      	ldr	r3, [pc, #44]	; (80006b4 <marte__kernel__timers__internals__clock_id_ok+0x58>)
 8000686:	6819      	ldr	r1, [r3, #0]
 8000688:	4610      	mov	r0, r2
 800068a:	f002 fcf5 	bl	8003078 <marte__kernel__task_ok__4>
 800068e:	4603      	mov	r3, r0
 8000690:	2b00      	cmp	r3, #0
 8000692:	d106      	bne.n	80006a2 <marte__kernel__timers__internals__clock_id_ok+0x46>
 8000694:	687b      	ldr	r3, [r7, #4]
 8000696:	4618      	mov	r0, r3
 8000698:	f008 fe74 	bl	8009384 <marte__kernel__task_sets__task_set_ok>
 800069c:	4603      	mov	r3, r0
 800069e:	2b00      	cmp	r3, #0
 80006a0:	d001      	beq.n	80006a6 <marte__kernel__timers__internals__clock_id_ok+0x4a>
 80006a2:	2301      	movs	r3, #1
 80006a4:	e000      	b.n	80006a8 <marte__kernel__timers__internals__clock_id_ok+0x4c>
 80006a6:	2300      	movs	r3, #0
 80006a8:	bf00      	nop
 80006aa:	4618      	mov	r0, r3
 80006ac:	3708      	adds	r7, #8
 80006ae:	46bd      	mov	sp, r7
 80006b0:	bd80      	pop	{r7, pc}
 80006b2:	bf00      	nop
 80006b4:	0801eb0c 	.word	0x0801eb0c

080006b8 <marte__kernel__timers__internals__timer_expired>:
 80006b8:	e92d 4890 	stmdb	sp!, {r4, r7, fp, lr}
 80006bc:	b084      	sub	sp, #16
 80006be:	af00      	add	r7, sp, #0
 80006c0:	60f8      	str	r0, [r7, #12]
 80006c2:	e9c7 2300 	strd	r2, r3, [r7]
 80006c6:	68fb      	ldr	r3, [r7, #12]
 80006c8:	2b00      	cmp	r3, #0
 80006ca:	d103      	bne.n	80006d4 <marte__kernel__timers__internals__timer_expired+0x1c>
 80006cc:	21b0      	movs	r1, #176	; 0xb0
 80006ce:	4884      	ldr	r0, [pc, #528]	; (80008e0 <marte__kernel__timers__internals__timer_expired+0x228>)
 80006d0:	f012 ff9e 	bl	8013610 <__gnat_last_chance_handler>
 80006d4:	68fb      	ldr	r3, [r7, #12]
 80006d6:	e9d3 3412 	ldrd	r3, r4, [r3, #72]	; 0x48
 80006da:	4323      	orrs	r3, r4
 80006dc:	d115      	bne.n	800070a <marte__kernel__timers__internals__timer_expired+0x52>
 80006de:	68fb      	ldr	r3, [r7, #12]
 80006e0:	2b00      	cmp	r3, #0
 80006e2:	d103      	bne.n	80006ec <marte__kernel__timers__internals__timer_expired+0x34>
 80006e4:	21b2      	movs	r1, #178	; 0xb2
 80006e6:	487e      	ldr	r0, [pc, #504]	; (80008e0 <marte__kernel__timers__internals__timer_expired+0x228>)
 80006e8:	f012 ff92 	bl	8013610 <__gnat_last_chance_handler>
 80006ec:	68fb      	ldr	r3, [r7, #12]
 80006ee:	2200      	movs	r2, #0
 80006f0:	f883 2034 	strb.w	r2, [r3, #52]	; 0x34
 80006f4:	68fb      	ldr	r3, [r7, #12]
 80006f6:	2b00      	cmp	r3, #0
 80006f8:	d103      	bne.n	8000702 <marte__kernel__timers__internals__timer_expired+0x4a>
 80006fa:	21b3      	movs	r1, #179	; 0xb3
 80006fc:	4878      	ldr	r0, [pc, #480]	; (80008e0 <marte__kernel__timers__internals__timer_expired+0x228>)
 80006fe:	f012 ff87 	bl	8013610 <__gnat_last_chance_handler>
 8000702:	68fb      	ldr	r3, [r7, #12]
 8000704:	2200      	movs	r2, #0
 8000706:	631a      	str	r2, [r3, #48]	; 0x30
 8000708:	e092      	b.n	8000830 <marte__kernel__timers__internals__timer_expired+0x178>
 800070a:	68fb      	ldr	r3, [r7, #12]
 800070c:	2b00      	cmp	r3, #0
 800070e:	d103      	bne.n	8000718 <marte__kernel__timers__internals__timer_expired+0x60>
 8000710:	21b7      	movs	r1, #183	; 0xb7
 8000712:	4873      	ldr	r0, [pc, #460]	; (80008e0 <marte__kernel__timers__internals__timer_expired+0x228>)
 8000714:	f012 ff7c 	bl	8013610 <__gnat_last_chance_handler>
 8000718:	68fb      	ldr	r3, [r7, #12]
 800071a:	6adb      	ldr	r3, [r3, #44]	; 0x2c
 800071c:	2b01      	cmp	r3, #1
 800071e:	bf0c      	ite	eq
 8000720:	2301      	moveq	r3, #1
 8000722:	2300      	movne	r3, #0
 8000724:	b2da      	uxtb	r2, r3
 8000726:	68fb      	ldr	r3, [r7, #12]
 8000728:	6adb      	ldr	r3, [r3, #44]	; 0x2c
 800072a:	2b03      	cmp	r3, #3
 800072c:	bf0c      	ite	eq
 800072e:	2301      	moveq	r3, #1
 8000730:	2300      	movne	r3, #0
 8000732:	b2db      	uxtb	r3, r3
 8000734:	4313      	orrs	r3, r2
 8000736:	b2db      	uxtb	r3, r3
 8000738:	2b00      	cmp	r3, #0
 800073a:	d017      	beq.n	800076c <marte__kernel__timers__internals__timer_expired+0xb4>
 800073c:	68fb      	ldr	r3, [r7, #12]
 800073e:	2b00      	cmp	r3, #0
 8000740:	d103      	bne.n	800074a <marte__kernel__timers__internals__timer_expired+0x92>
 8000742:	21ba      	movs	r1, #186	; 0xba
 8000744:	4866      	ldr	r0, [pc, #408]	; (80008e0 <marte__kernel__timers__internals__timer_expired+0x228>)
 8000746:	f012 ff63 	bl	8013610 <__gnat_last_chance_handler>
 800074a:	68fb      	ldr	r3, [r7, #12]
 800074c:	e9d3 1202 	ldrd	r1, r2, [r3, #8]
 8000750:	68fb      	ldr	r3, [r7, #12]
 8000752:	e9d3 bc12 	ldrd	fp, ip, [r3, #72]	; 0x48
 8000756:	eb1b 0301 	adds.w	r3, fp, r1
 800075a:	eb4c 0402 	adc.w	r4, ip, r2
 800075e:	68fa      	ldr	r2, [r7, #12]
 8000760:	e9c2 3402 	strd	r3, r4, [r2, #8]
 8000764:	68f8      	ldr	r0, [r7, #12]
 8000766:	f00a fc93 	bl	800b090 <marte__kernel__timed_events_and_timer__enqueue_standard_event_without_updating_timer>
 800076a:	e061      	b.n	8000830 <marte__kernel__timers__internals__timer_expired+0x178>
 800076c:	68fb      	ldr	r3, [r7, #12]
 800076e:	2b00      	cmp	r3, #0
 8000770:	d103      	bne.n	800077a <marte__kernel__timers__internals__timer_expired+0xc2>
 8000772:	21c3      	movs	r1, #195	; 0xc3
 8000774:	485a      	ldr	r0, [pc, #360]	; (80008e0 <marte__kernel__timers__internals__timer_expired+0x228>)
 8000776:	f012 ff4b 	bl	8013610 <__gnat_last_chance_handler>
 800077a:	68fb      	ldr	r3, [r7, #12]
 800077c:	e9d3 1206 	ldrd	r1, r2, [r3, #24]
 8000780:	68fb      	ldr	r3, [r7, #12]
 8000782:	e9d3 bc12 	ldrd	fp, ip, [r3, #72]	; 0x48
 8000786:	eb1b 0301 	adds.w	r3, fp, r1
 800078a:	eb4c 0402 	adc.w	r4, ip, r2
 800078e:	68fa      	ldr	r2, [r7, #12]
 8000790:	e9c2 3406 	strd	r3, r4, [r2, #24]
 8000794:	68fb      	ldr	r3, [r7, #12]
 8000796:	2b00      	cmp	r3, #0
 8000798:	d103      	bne.n	80007a2 <marte__kernel__timers__internals__timer_expired+0xea>
 800079a:	21c4      	movs	r1, #196	; 0xc4
 800079c:	4850      	ldr	r0, [pc, #320]	; (80008e0 <marte__kernel__timers__internals__timer_expired+0x228>)
 800079e:	f012 ff37 	bl	8013610 <__gnat_last_chance_handler>
 80007a2:	68fb      	ldr	r3, [r7, #12]
 80007a4:	e9d3 1202 	ldrd	r1, r2, [r3, #8]
 80007a8:	68fb      	ldr	r3, [r7, #12]
 80007aa:	e9d3 bc12 	ldrd	fp, ip, [r3, #72]	; 0x48
 80007ae:	eb1b 0301 	adds.w	r3, fp, r1
 80007b2:	eb4c 0402 	adc.w	r4, ip, r2
 80007b6:	68fa      	ldr	r2, [r7, #12]
 80007b8:	e9c2 3402 	strd	r3, r4, [r2, #8]
 80007bc:	68fb      	ldr	r3, [r7, #12]
 80007be:	2b00      	cmp	r3, #0
 80007c0:	d103      	bne.n	80007ca <marte__kernel__timers__internals__timer_expired+0x112>
 80007c2:	21c6      	movs	r1, #198	; 0xc6
 80007c4:	4846      	ldr	r0, [pc, #280]	; (80008e0 <marte__kernel__timers__internals__timer_expired+0x228>)
 80007c6:	f012 ff23 	bl	8013610 <__gnat_last_chance_handler>
 80007ca:	68fb      	ldr	r3, [r7, #12]
 80007cc:	f893 3028 	ldrb.w	r3, [r3, #40]	; 0x28
 80007d0:	2b00      	cmp	r3, #0
 80007d2:	d013      	beq.n	80007fc <marte__kernel__timers__internals__timer_expired+0x144>
 80007d4:	68fb      	ldr	r3, [r7, #12]
 80007d6:	2b00      	cmp	r3, #0
 80007d8:	d103      	bne.n	80007e2 <marte__kernel__timers__internals__timer_expired+0x12a>
 80007da:	21c9      	movs	r1, #201	; 0xc9
 80007dc:	4840      	ldr	r0, [pc, #256]	; (80008e0 <marte__kernel__timers__internals__timer_expired+0x228>)
 80007de:	f012 ff17 	bl	8013610 <__gnat_last_chance_handler>
 80007e2:	68fb      	ldr	r3, [r7, #12]
 80007e4:	e9d3 1208 	ldrd	r1, r2, [r3, #32]
 80007e8:	68fb      	ldr	r3, [r7, #12]
 80007ea:	e9d3 bc12 	ldrd	fp, ip, [r3, #72]	; 0x48
 80007ee:	eb1b 0301 	adds.w	r3, fp, r1
 80007f2:	eb4c 0402 	adc.w	r4, ip, r2
 80007f6:	68fa      	ldr	r2, [r7, #12]
 80007f8:	e9c2 3408 	strd	r3, r4, [r2, #32]
 80007fc:	68fb      	ldr	r3, [r7, #12]
 80007fe:	2b00      	cmp	r3, #0
 8000800:	d103      	bne.n	800080a <marte__kernel__timers__internals__timer_expired+0x152>
 8000802:	21cc      	movs	r1, #204	; 0xcc
 8000804:	4836      	ldr	r0, [pc, #216]	; (80008e0 <marte__kernel__timers__internals__timer_expired+0x228>)
 8000806:	f012 ff03 	bl	8013610 <__gnat_last_chance_handler>
 800080a:	68fb      	ldr	r3, [r7, #12]
 800080c:	6b1b      	ldr	r3, [r3, #48]	; 0x30
 800080e:	2b00      	cmp	r3, #0
 8000810:	d103      	bne.n	800081a <marte__kernel__timers__internals__timer_expired+0x162>
 8000812:	21cc      	movs	r1, #204	; 0xcc
 8000814:	4832      	ldr	r0, [pc, #200]	; (80008e0 <marte__kernel__timers__internals__timer_expired+0x228>)
 8000816:	f012 fefb 	bl	8013610 <__gnat_last_chance_handler>
 800081a:	68fb      	ldr	r3, [r7, #12]
 800081c:	6b1c      	ldr	r4, [r3, #48]	; 0x30
 800081e:	f8d4 30a8 	ldr.w	r3, [r4, #168]	; 0xa8
 8000822:	4619      	mov	r1, r3
 8000824:	68f8      	ldr	r0, [r7, #12]
 8000826:	f000 fb83 	bl	8000f30 <marte__kernel__cpu_time_timed_events_lists_order__enqueue_in_order>
 800082a:	4603      	mov	r3, r0
 800082c:	f8c4 30a8 	str.w	r3, [r4, #168]	; 0xa8
 8000830:	68fb      	ldr	r3, [r7, #12]
 8000832:	2b00      	cmp	r3, #0
 8000834:	d103      	bne.n	800083e <marte__kernel__timers__internals__timer_expired+0x186>
 8000836:	21d1      	movs	r1, #209	; 0xd1
 8000838:	4829      	ldr	r0, [pc, #164]	; (80008e0 <marte__kernel__timers__internals__timer_expired+0x228>)
 800083a:	f012 fee9 	bl	8013610 <__gnat_last_chance_handler>
 800083e:	68fb      	ldr	r3, [r7, #12]
 8000840:	6d1b      	ldr	r3, [r3, #80]	; 0x50
 8000842:	2b01      	cmp	r3, #1
 8000844:	d903      	bls.n	800084e <marte__kernel__timers__internals__timer_expired+0x196>
 8000846:	21d1      	movs	r1, #209	; 0xd1
 8000848:	4825      	ldr	r0, [pc, #148]	; (80008e0 <marte__kernel__timers__internals__timer_expired+0x228>)
 800084a:	f012 fee1 	bl	8013610 <__gnat_last_chance_handler>
 800084e:	b25b      	sxtb	r3, r3
 8000850:	2b01      	cmp	r3, #1
 8000852:	d13f      	bne.n	80008d4 <marte__kernel__timers__internals__timer_expired+0x21c>
 8000854:	68fb      	ldr	r3, [r7, #12]
 8000856:	2b00      	cmp	r3, #0
 8000858:	d103      	bne.n	8000862 <marte__kernel__timers__internals__timer_expired+0x1aa>
 800085a:	21d4      	movs	r1, #212	; 0xd4
 800085c:	4820      	ldr	r0, [pc, #128]	; (80008e0 <marte__kernel__timers__internals__timer_expired+0x228>)
 800085e:	f012 fed7 	bl	8013610 <__gnat_last_chance_handler>
 8000862:	68fb      	ldr	r3, [r7, #12]
 8000864:	6e5b      	ldr	r3, [r3, #100]	; 0x64
 8000866:	4618      	mov	r0, r3
 8000868:	f007 fd46 	bl	80082f8 <marte__kernel__signals__internals__is_reserved_signal_instance_pending>
 800086c:	4603      	mov	r3, r0
 800086e:	f083 0301 	eor.w	r3, r3, #1
 8000872:	b2db      	uxtb	r3, r3
 8000874:	2b00      	cmp	r3, #0
 8000876:	d016      	beq.n	80008a6 <marte__kernel__timers__internals__timer_expired+0x1ee>
 8000878:	68fb      	ldr	r3, [r7, #12]
 800087a:	2b00      	cmp	r3, #0
 800087c:	d103      	bne.n	8000886 <marte__kernel__timers__internals__timer_expired+0x1ce>
 800087e:	21d5      	movs	r1, #213	; 0xd5
 8000880:	4817      	ldr	r0, [pc, #92]	; (80008e0 <marte__kernel__timers__internals__timer_expired+0x228>)
 8000882:	f012 fec5 	bl	8013610 <__gnat_last_chance_handler>
 8000886:	68fb      	ldr	r3, [r7, #12]
 8000888:	2200      	movs	r2, #0
 800088a:	65da      	str	r2, [r3, #92]	; 0x5c
 800088c:	68fb      	ldr	r3, [r7, #12]
 800088e:	2b00      	cmp	r3, #0
 8000890:	d103      	bne.n	800089a <marte__kernel__timers__internals__timer_expired+0x1e2>
 8000892:	21d6      	movs	r1, #214	; 0xd6
 8000894:	4812      	ldr	r0, [pc, #72]	; (80008e0 <marte__kernel__timers__internals__timer_expired+0x228>)
 8000896:	f012 febb 	bl	8013610 <__gnat_last_chance_handler>
 800089a:	68fb      	ldr	r3, [r7, #12]
 800089c:	6e5b      	ldr	r3, [r3, #100]	; 0x64
 800089e:	4618      	mov	r0, r3
 80008a0:	f007 ffda 	bl	8008858 <marte__kernel__signals__internals__send_signal_to_process>
 80008a4:	e017      	b.n	80008d6 <marte__kernel__timers__internals__timer_expired+0x21e>
 80008a6:	68fb      	ldr	r3, [r7, #12]
 80008a8:	2b00      	cmp	r3, #0
 80008aa:	d103      	bne.n	80008b4 <marte__kernel__timers__internals__timer_expired+0x1fc>
 80008ac:	21d8      	movs	r1, #216	; 0xd8
 80008ae:	480c      	ldr	r0, [pc, #48]	; (80008e0 <marte__kernel__timers__internals__timer_expired+0x228>)
 80008b0:	f012 feae 	bl	8013610 <__gnat_last_chance_handler>
 80008b4:	68fb      	ldr	r3, [r7, #12]
 80008b6:	6ddb      	ldr	r3, [r3, #92]	; 0x5c
 80008b8:	f06f 4200 	mvn.w	r2, #2147483648	; 0x80000000
 80008bc:	4293      	cmp	r3, r2
 80008be:	d103      	bne.n	80008c8 <marte__kernel__timers__internals__timer_expired+0x210>
 80008c0:	21d8      	movs	r1, #216	; 0xd8
 80008c2:	4807      	ldr	r0, [pc, #28]	; (80008e0 <marte__kernel__timers__internals__timer_expired+0x228>)
 80008c4:	f012 fea4 	bl	8013610 <__gnat_last_chance_handler>
 80008c8:	68fb      	ldr	r3, [r7, #12]
 80008ca:	6ddb      	ldr	r3, [r3, #92]	; 0x5c
 80008cc:	1c5a      	adds	r2, r3, #1
 80008ce:	68fb      	ldr	r3, [r7, #12]
 80008d0:	65da      	str	r2, [r3, #92]	; 0x5c
 80008d2:	e000      	b.n	80008d6 <marte__kernel__timers__internals__timer_expired+0x21e>
 80008d4:	bf00      	nop
 80008d6:	3710      	adds	r7, #16
 80008d8:	46bd      	mov	sp, r7
 80008da:	e8bd 8890 	ldmia.w	sp!, {r4, r7, fp, pc}
 80008de:	bf00      	nop
 80008e0:	0801eb1c 	.word	0x0801eb1c

080008e4 <marte__kernel__timers__timer_timed_eventIP>:
 80008e4:	b580      	push	{r7, lr}
 80008e6:	b082      	sub	sp, #8
 80008e8:	af00      	add	r7, sp, #0
 80008ea:	6078      	str	r0, [r7, #4]
 80008ec:	460b      	mov	r3, r1
 80008ee:	70fb      	strb	r3, [r7, #3]
 80008f0:	78fb      	ldrb	r3, [r7, #3]
 80008f2:	2b00      	cmp	r3, #0
 80008f4:	d002      	beq.n	80008fc <marte__kernel__timers__timer_timed_eventIP+0x18>
 80008f6:	4a09      	ldr	r2, [pc, #36]	; (800091c <marte__kernel__timers__timer_timed_eventIP+0x38>)
 80008f8:	687b      	ldr	r3, [r7, #4]
 80008fa:	601a      	str	r2, [r3, #0]
 80008fc:	687b      	ldr	r3, [r7, #4]
 80008fe:	2100      	movs	r1, #0
 8000900:	4618      	mov	r0, r3
 8000902:	f001 fb39 	bl	8001f78 <marte__kernel__cpu_time_timed_events_lists__elementIP>
 8000906:	687b      	ldr	r3, [r7, #4]
 8000908:	3350      	adds	r3, #80	; 0x50
 800090a:	4618      	mov	r0, r3
 800090c:	f008 fbbc 	bl	8009088 <marte__kernel__signals__signal_eventIP>
 8000910:	687b      	ldr	r3, [r7, #4]
 8000912:	2200      	movs	r2, #0
 8000914:	665a      	str	r2, [r3, #100]	; 0x64
 8000916:	3708      	adds	r7, #8
 8000918:	46bd      	mov	sp, r7
 800091a:	bd80      	pop	{r7, pc}
 800091c:	0801ebe8 	.word	0x0801ebe8

08000920 <marte__kernel__timers___size>:
 8000920:	b490      	push	{r4, r7}
 8000922:	b082      	sub	sp, #8
 8000924:	af00      	add	r7, sp, #0
 8000926:	6078      	str	r0, [r7, #4]
 8000928:	f44f 7350 	mov.w	r3, #832	; 0x340
 800092c:	f04f 0400 	mov.w	r4, #0
 8000930:	4618      	mov	r0, r3
 8000932:	4621      	mov	r1, r4
 8000934:	3708      	adds	r7, #8
 8000936:	46bd      	mov	sp, r7
 8000938:	bc90      	pop	{r4, r7}
 800093a:	4770      	bx	lr

0800093c <marte__kernel__timers__Oeq>:
 800093c:	b590      	push	{r4, r7, lr}
 800093e:	b083      	sub	sp, #12
 8000940:	af00      	add	r7, sp, #0
 8000942:	6078      	str	r0, [r7, #4]
 8000944:	6039      	str	r1, [r7, #0]
 8000946:	687b      	ldr	r3, [r7, #4]
 8000948:	683a      	ldr	r2, [r7, #0]
 800094a:	4611      	mov	r1, r2
 800094c:	4618      	mov	r0, r3
 800094e:	f001 fb3b 	bl	8001fc8 <marte__kernel__cpu_time_timed_events_lists__Oeq__2>
 8000952:	4603      	mov	r3, r0
 8000954:	2b00      	cmp	r3, #0
 8000956:	d041      	beq.n	80009dc <marte__kernel__timers__Oeq+0xa0>
 8000958:	687b      	ldr	r3, [r7, #4]
 800095a:	e9d3 1210 	ldrd	r1, r2, [r3, #64]	; 0x40
 800095e:	683b      	ldr	r3, [r7, #0]
 8000960:	e9d3 3410 	ldrd	r3, r4, [r3, #64]	; 0x40
 8000964:	42a2      	cmp	r2, r4
 8000966:	bf08      	it	eq
 8000968:	4299      	cmpeq	r1, r3
 800096a:	d137      	bne.n	80009dc <marte__kernel__timers__Oeq+0xa0>
 800096c:	687b      	ldr	r3, [r7, #4]
 800096e:	e9d3 1212 	ldrd	r1, r2, [r3, #72]	; 0x48
 8000972:	683b      	ldr	r3, [r7, #0]
 8000974:	e9d3 3412 	ldrd	r3, r4, [r3, #72]	; 0x48
 8000978:	42a2      	cmp	r2, r4
 800097a:	bf08      	it	eq
 800097c:	4299      	cmpeq	r1, r3
 800097e:	d12d      	bne.n	80009dc <marte__kernel__timers__Oeq+0xa0>
 8000980:	687b      	ldr	r3, [r7, #4]
 8000982:	6d1b      	ldr	r3, [r3, #80]	; 0x50
 8000984:	b25a      	sxtb	r2, r3
 8000986:	683b      	ldr	r3, [r7, #0]
 8000988:	6d1b      	ldr	r3, [r3, #80]	; 0x50
 800098a:	b25b      	sxtb	r3, r3
 800098c:	429a      	cmp	r2, r3
 800098e:	d125      	bne.n	80009dc <marte__kernel__timers__Oeq+0xa0>
 8000990:	687b      	ldr	r3, [r7, #4]
 8000992:	6d5a      	ldr	r2, [r3, #84]	; 0x54
 8000994:	683b      	ldr	r3, [r7, #0]
 8000996:	6d5b      	ldr	r3, [r3, #84]	; 0x54
 8000998:	429a      	cmp	r2, r3
 800099a:	d11f      	bne.n	80009dc <marte__kernel__timers__Oeq+0xa0>
 800099c:	687b      	ldr	r3, [r7, #4]
 800099e:	6d9a      	ldr	r2, [r3, #88]	; 0x58
 80009a0:	683b      	ldr	r3, [r7, #0]
 80009a2:	6d9b      	ldr	r3, [r3, #88]	; 0x58
 80009a4:	429a      	cmp	r2, r3
 80009a6:	d119      	bne.n	80009dc <marte__kernel__timers__Oeq+0xa0>
 80009a8:	687b      	ldr	r3, [r7, #4]
 80009aa:	6dda      	ldr	r2, [r3, #92]	; 0x5c
 80009ac:	683b      	ldr	r3, [r7, #0]
 80009ae:	6ddb      	ldr	r3, [r3, #92]	; 0x5c
 80009b0:	429a      	cmp	r2, r3
 80009b2:	d113      	bne.n	80009dc <marte__kernel__timers__Oeq+0xa0>
 80009b4:	687b      	ldr	r3, [r7, #4]
 80009b6:	f103 0060 	add.w	r0, r3, #96	; 0x60
 80009ba:	683b      	ldr	r3, [r7, #0]
 80009bc:	3360      	adds	r3, #96	; 0x60
 80009be:	2204      	movs	r2, #4
 80009c0:	4619      	mov	r1, r3
 80009c2:	f012 ff47 	bl	8013854 <memcmp>
 80009c6:	4603      	mov	r3, r0
 80009c8:	2b00      	cmp	r3, #0
 80009ca:	d107      	bne.n	80009dc <marte__kernel__timers__Oeq+0xa0>
 80009cc:	687b      	ldr	r3, [r7, #4]
 80009ce:	6e5a      	ldr	r2, [r3, #100]	; 0x64
 80009d0:	683b      	ldr	r3, [r7, #0]
 80009d2:	6e5b      	ldr	r3, [r3, #100]	; 0x64
 80009d4:	429a      	cmp	r2, r3
 80009d6:	d101      	bne.n	80009dc <marte__kernel__timers__Oeq+0xa0>
 80009d8:	2301      	movs	r3, #1
 80009da:	e000      	b.n	80009de <marte__kernel__timers__Oeq+0xa2>
 80009dc:	2300      	movs	r3, #0
 80009de:	4618      	mov	r0, r3
 80009e0:	370c      	adds	r7, #12
 80009e2:	46bd      	mov	sp, r7
 80009e4:	bd90      	pop	{r4, r7, pc}
 80009e6:	bf00      	nop

080009e8 <marte__kernel__timers___assign>:
 80009e8:	b590      	push	{r4, r7, lr}
 80009ea:	b083      	sub	sp, #12
 80009ec:	af00      	add	r7, sp, #0
 80009ee:	6078      	str	r0, [r7, #4]
 80009f0:	6039      	str	r1, [r7, #0]
 80009f2:	687b      	ldr	r3, [r7, #4]
 80009f4:	681c      	ldr	r4, [r3, #0]
 80009f6:	687a      	ldr	r2, [r7, #4]
 80009f8:	683b      	ldr	r3, [r7, #0]
 80009fa:	4610      	mov	r0, r2
 80009fc:	4619      	mov	r1, r3
 80009fe:	2368      	movs	r3, #104	; 0x68
 8000a00:	461a      	mov	r2, r3
 8000a02:	f012 ff59 	bl	80138b8 <memcpy>
 8000a06:	687b      	ldr	r3, [r7, #4]
 8000a08:	601c      	str	r4, [r3, #0]
 8000a0a:	370c      	adds	r7, #12
 8000a0c:	46bd      	mov	sp, r7
 8000a0e:	bd90      	pop	{r4, r7, pc}

08000a10 <marte__kernel__timers__realtime_clock_offset>:
 8000a10:	b490      	push	{r4, r7}
 8000a12:	af00      	add	r7, sp, #0
 8000a14:	4b04      	ldr	r3, [pc, #16]	; (8000a28 <marte__kernel__timers__realtime_clock_offset+0x18>)
 8000a16:	e9d3 3400 	ldrd	r3, r4, [r3]
 8000a1a:	bf00      	nop
 8000a1c:	4618      	mov	r0, r3
 8000a1e:	4621      	mov	r1, r4
 8000a20:	46bd      	mov	sp, r7
 8000a22:	bc90      	pop	{r4, r7}
 8000a24:	4770      	bx	lr
 8000a26:	bf00      	nop
 8000a28:	20000ab0 	.word	0x20000ab0

08000a2c <marte__kernel__timers__get_time>:
 8000a2c:	b5f0      	push	{r4, r5, r6, r7, lr}
 8000a2e:	b087      	sub	sp, #28
 8000a30:	af00      	add	r7, sp, #0
 8000a32:	6078      	str	r0, [r7, #4]
 8000a34:	f107 030c 	add.w	r3, r7, #12
 8000a38:	4618      	mov	r0, r3
 8000a3a:	f002 f9d3 	bl	8002de4 <kernel_enter_critic_section>
 8000a3e:	6878      	ldr	r0, [r7, #4]
 8000a40:	f7ff fe0c 	bl	800065c <marte__kernel__timers__internals__clock_id_ok>
 8000a44:	4603      	mov	r3, r0
 8000a46:	f083 0301 	eor.w	r3, r3, #1
 8000a4a:	b2db      	uxtb	r3, r3
 8000a4c:	2b00      	cmp	r3, #0
 8000a4e:	d00b      	beq.n	8000a68 <marte__kernel__timers__get_time+0x3c>
 8000a50:	2016      	movs	r0, #22
 8000a52:	f00a f90b 	bl	800ac6c <marte__kernel__tasks_operations__internals__set_posix_error>
 8000a56:	68fb      	ldr	r3, [r7, #12]
 8000a58:	4618      	mov	r0, r3
 8000a5a:	f002 f9fd 	bl	8002e58 <kernel_leave_critic_section>
 8000a5e:	f04f 0300 	mov.w	r3, #0
 8000a62:	f04f 0400 	mov.w	r4, #0
 8000a66:	e0c7      	b.n	8000bf8 <marte__kernel__timers__get_time+0x1cc>
 8000a68:	f00a f946 	bl	800acf8 <marte__kernel__tasks_operations__internals__reset_posix_error>
 8000a6c:	687b      	ldr	r3, [r7, #4]
 8000a6e:	2b01      	cmp	r3, #1
 8000a70:	d10d      	bne.n	8000a8e <marte__kernel__timers__get_time+0x62>
 8000a72:	f002 fdcf 	bl	8003614 <marte__hal__get_hwtime>
 8000a76:	4605      	mov	r5, r0
 8000a78:	460e      	mov	r6, r1
 8000a7a:	f7ff ffc9 	bl	8000a10 <marte__kernel__timers__realtime_clock_offset>
 8000a7e:	460a      	mov	r2, r1
 8000a80:	4601      	mov	r1, r0
 8000a82:	194b      	adds	r3, r1, r5
 8000a84:	eb42 0406 	adc.w	r4, r2, r6
 8000a88:	e9c7 3404 	strd	r3, r4, [r7, #16]
 8000a8c:	e0ae      	b.n	8000bec <marte__kernel__timers__get_time+0x1c0>
 8000a8e:	687b      	ldr	r3, [r7, #4]
 8000a90:	2b03      	cmp	r3, #3
 8000a92:	d104      	bne.n	8000a9e <marte__kernel__timers__get_time+0x72>
 8000a94:	f002 fdbe 	bl	8003614 <marte__hal__get_hwtime>
 8000a98:	e9c7 0104 	strd	r0, r1, [r7, #16]
 8000a9c:	e0a6      	b.n	8000bec <marte__kernel__timers__get_time+0x1c0>
 8000a9e:	687b      	ldr	r3, [r7, #4]
 8000aa0:	2b04      	cmp	r3, #4
 8000aa2:	d104      	bne.n	8000aae <marte__kernel__timers__get_time+0x82>
 8000aa4:	f7ff fdb2 	bl	800060c <marte__kernel__timers__internals__get_interrupt_handlers_execution_time>
 8000aa8:	e9c7 0104 	strd	r0, r1, [r7, #16]
 8000aac:	e09e      	b.n	8000bec <marte__kernel__timers__get_time+0x1c0>
 8000aae:	687b      	ldr	r3, [r7, #4]
 8000ab0:	2b02      	cmp	r3, #2
 8000ab2:	d00a      	beq.n	8000aca <marte__kernel__timers__get_time+0x9e>
 8000ab4:	f002 ffa2 	bl	80039fc <pthread_self>
 8000ab8:	4602      	mov	r2, r0
 8000aba:	687b      	ldr	r3, [r7, #4]
 8000abc:	429a      	cmp	r2, r3
 8000abe:	bf0c      	ite	eq
 8000ac0:	2301      	moveq	r3, #1
 8000ac2:	2300      	movne	r3, #0
 8000ac4:	b2db      	uxtb	r3, r3
 8000ac6:	2b00      	cmp	r3, #0
 8000ac8:	d026      	beq.n	8000b18 <marte__kernel__timers__get_time+0xec>
 8000aca:	f002 ff97 	bl	80039fc <pthread_self>
 8000ace:	4604      	mov	r4, r0
 8000ad0:	2c00      	cmp	r4, #0
 8000ad2:	d103      	bne.n	8000adc <marte__kernel__timers__get_time+0xb0>
 8000ad4:	21b3      	movs	r1, #179	; 0xb3
 8000ad6:	484b      	ldr	r0, [pc, #300]	; (8000c04 <marte__kernel__timers__get_time+0x1d8>)
 8000ad8:	f012 fd9a 	bl	8013610 <__gnat_last_chance_handler>
 8000adc:	f002 ff8e 	bl	80039fc <pthread_self>
 8000ae0:	4606      	mov	r6, r0
 8000ae2:	2e00      	cmp	r6, #0
 8000ae4:	d103      	bne.n	8000aee <marte__kernel__timers__get_time+0xc2>
 8000ae6:	21b4      	movs	r1, #180	; 0xb4
 8000ae8:	4846      	ldr	r0, [pc, #280]	; (8000c04 <marte__kernel__timers__get_time+0x1d8>)
 8000aea:	f012 fd91 	bl	8013610 <__gnat_last_chance_handler>
 8000aee:	e9d4 452e 	ldrd	r4, r5, [r4, #184]	; 0xb8
 8000af2:	f002 fd8f 	bl	8003614 <marte__hal__get_hwtime>
 8000af6:	4602      	mov	r2, r0
 8000af8:	460b      	mov	r3, r1
 8000afa:	18a0      	adds	r0, r4, r2
 8000afc:	eb45 0103 	adc.w	r1, r5, r3
 8000b00:	460a      	mov	r2, r1
 8000b02:	4601      	mov	r1, r0
 8000b04:	e9d6 562c 	ldrd	r5, r6, [r6, #176]	; 0xb0
 8000b08:	460b      	mov	r3, r1
 8000b0a:	4614      	mov	r4, r2
 8000b0c:	1b5b      	subs	r3, r3, r5
 8000b0e:	eb64 0406 	sbc.w	r4, r4, r6
 8000b12:	e9c7 3404 	strd	r3, r4, [r7, #16]
 8000b16:	e069      	b.n	8000bec <marte__kernel__timers__get_time+0x1c0>
 8000b18:	687a      	ldr	r2, [r7, #4]
 8000b1a:	4b3b      	ldr	r3, [pc, #236]	; (8000c08 <marte__kernel__timers__get_time+0x1dc>)
 8000b1c:	6819      	ldr	r1, [r3, #0]
 8000b1e:	4610      	mov	r0, r2
 8000b20:	f002 faaa 	bl	8003078 <marte__kernel__task_ok__4>
 8000b24:	4603      	mov	r3, r0
 8000b26:	2b00      	cmp	r3, #0
 8000b28:	d00c      	beq.n	8000b44 <marte__kernel__timers__get_time+0x118>
 8000b2a:	687b      	ldr	r3, [r7, #4]
 8000b2c:	2b00      	cmp	r3, #0
 8000b2e:	d103      	bne.n	8000b38 <marte__kernel__timers__get_time+0x10c>
 8000b30:	21b8      	movs	r1, #184	; 0xb8
 8000b32:	4834      	ldr	r0, [pc, #208]	; (8000c04 <marte__kernel__timers__get_time+0x1d8>)
 8000b34:	f012 fd6c 	bl	8013610 <__gnat_last_chance_handler>
 8000b38:	687b      	ldr	r3, [r7, #4]
 8000b3a:	e9d3 342e 	ldrd	r3, r4, [r3, #184]	; 0xb8
 8000b3e:	e9c7 3404 	strd	r3, r4, [r7, #16]
 8000b42:	e053      	b.n	8000bec <marte__kernel__timers__get_time+0x1c0>
 8000b44:	f002 ff5a 	bl	80039fc <pthread_self>
 8000b48:	4603      	mov	r3, r0
 8000b4a:	2b00      	cmp	r3, #0
 8000b4c:	d103      	bne.n	8000b56 <marte__kernel__timers__get_time+0x12a>
 8000b4e:	21ba      	movs	r1, #186	; 0xba
 8000b50:	482c      	ldr	r0, [pc, #176]	; (8000c04 <marte__kernel__timers__get_time+0x1d8>)
 8000b52:	f012 fd5d 	bl	8013610 <__gnat_last_chance_handler>
 8000b56:	f8d3 2158 	ldr.w	r2, [r3, #344]	; 0x158
 8000b5a:	687b      	ldr	r3, [r7, #4]
 8000b5c:	429a      	cmp	r2, r3
 8000b5e:	d130      	bne.n	8000bc2 <marte__kernel__timers__get_time+0x196>
 8000b60:	f002 ff4c 	bl	80039fc <pthread_self>
 8000b64:	4604      	mov	r4, r0
 8000b66:	2c00      	cmp	r4, #0
 8000b68:	d103      	bne.n	8000b72 <marte__kernel__timers__get_time+0x146>
 8000b6a:	21bc      	movs	r1, #188	; 0xbc
 8000b6c:	4825      	ldr	r0, [pc, #148]	; (8000c04 <marte__kernel__timers__get_time+0x1d8>)
 8000b6e:	f012 fd4f 	bl	8013610 <__gnat_last_chance_handler>
 8000b72:	f8d4 3158 	ldr.w	r3, [r4, #344]	; 0x158
 8000b76:	2b00      	cmp	r3, #0
 8000b78:	d103      	bne.n	8000b82 <marte__kernel__timers__get_time+0x156>
 8000b7a:	21bc      	movs	r1, #188	; 0xbc
 8000b7c:	4821      	ldr	r0, [pc, #132]	; (8000c04 <marte__kernel__timers__get_time+0x1d8>)
 8000b7e:	f012 fd47 	bl	8013610 <__gnat_last_chance_handler>
 8000b82:	f002 ff3b 	bl	80039fc <pthread_self>
 8000b86:	4606      	mov	r6, r0
 8000b88:	2e00      	cmp	r6, #0
 8000b8a:	d103      	bne.n	8000b94 <marte__kernel__timers__get_time+0x168>
 8000b8c:	21bd      	movs	r1, #189	; 0xbd
 8000b8e:	481d      	ldr	r0, [pc, #116]	; (8000c04 <marte__kernel__timers__get_time+0x1d8>)
 8000b90:	f012 fd3e 	bl	8013610 <__gnat_last_chance_handler>
 8000b94:	f8d4 3158 	ldr.w	r3, [r4, #344]	; 0x158
 8000b98:	e9d3 4502 	ldrd	r4, r5, [r3, #8]
 8000b9c:	f002 fd3a 	bl	8003614 <marte__hal__get_hwtime>
 8000ba0:	4602      	mov	r2, r0
 8000ba2:	460b      	mov	r3, r1
 8000ba4:	18a0      	adds	r0, r4, r2
 8000ba6:	eb45 0103 	adc.w	r1, r5, r3
 8000baa:	460a      	mov	r2, r1
 8000bac:	4601      	mov	r1, r0
 8000bae:	e9d6 562c 	ldrd	r5, r6, [r6, #176]	; 0xb0
 8000bb2:	460b      	mov	r3, r1
 8000bb4:	4614      	mov	r4, r2
 8000bb6:	1b5b      	subs	r3, r3, r5
 8000bb8:	eb64 0406 	sbc.w	r4, r4, r6
 8000bbc:	e9c7 3404 	strd	r3, r4, [r7, #16]
 8000bc0:	e014      	b.n	8000bec <marte__kernel__timers__get_time+0x1c0>
 8000bc2:	687b      	ldr	r3, [r7, #4]
 8000bc4:	4618      	mov	r0, r3
 8000bc6:	f008 fbdd 	bl	8009384 <marte__kernel__task_sets__task_set_ok>
 8000bca:	4603      	mov	r3, r0
 8000bcc:	2b00      	cmp	r3, #0
 8000bce:	d00c      	beq.n	8000bea <marte__kernel__timers__get_time+0x1be>
 8000bd0:	687b      	ldr	r3, [r7, #4]
 8000bd2:	2b00      	cmp	r3, #0
 8000bd4:	d103      	bne.n	8000bde <marte__kernel__timers__get_time+0x1b2>
 8000bd6:	21c1      	movs	r1, #193	; 0xc1
 8000bd8:	480a      	ldr	r0, [pc, #40]	; (8000c04 <marte__kernel__timers__get_time+0x1d8>)
 8000bda:	f012 fd19 	bl	8013610 <__gnat_last_chance_handler>
 8000bde:	687b      	ldr	r3, [r7, #4]
 8000be0:	e9d3 3402 	ldrd	r3, r4, [r3, #8]
 8000be4:	e9c7 3404 	strd	r3, r4, [r7, #16]
 8000be8:	e000      	b.n	8000bec <marte__kernel__timers__get_time+0x1c0>
 8000bea:	bf00      	nop
 8000bec:	68fb      	ldr	r3, [r7, #12]
 8000bee:	4618      	mov	r0, r3
 8000bf0:	f002 f932 	bl	8002e58 <kernel_leave_critic_section>
 8000bf4:	e9d7 3404 	ldrd	r3, r4, [r7, #16]
 8000bf8:	bf00      	nop
 8000bfa:	4618      	mov	r0, r3
 8000bfc:	4621      	mov	r1, r4
 8000bfe:	371c      	adds	r7, #28
 8000c00:	46bd      	mov	sp, r7
 8000c02:	bdf0      	pop	{r4, r5, r6, r7, pc}
 8000c04:	0801eb40 	.word	0x0801eb40
 8000c08:	0801eb58 	.word	0x0801eb58

08000c0c <marte__kernel__timers__initialize_realtime_clock_offset>:
 8000c0c:	b490      	push	{r4, r7}
 8000c0e:	af00      	add	r7, sp, #0
 8000c10:	4a06      	ldr	r2, [pc, #24]	; (8000c2c <marte__kernel__timers__initialize_realtime_clock_offset+0x20>)
 8000c12:	f04f 0300 	mov.w	r3, #0
 8000c16:	f04f 0400 	mov.w	r4, #0
 8000c1a:	e9c2 3400 	strd	r3, r4, [r2]
 8000c1e:	4b04      	ldr	r3, [pc, #16]	; (8000c30 <marte__kernel__timers__initialize_realtime_clock_offset+0x24>)
 8000c20:	2201      	movs	r2, #1
 8000c22:	701a      	strb	r2, [r3, #0]
 8000c24:	46bd      	mov	sp, r7
 8000c26:	bc90      	pop	{r4, r7}
 8000c28:	4770      	bx	lr
 8000c2a:	bf00      	nop
 8000c2c:	20000ab0 	.word	0x20000ab0
 8000c30:	20000012 	.word	0x20000012

08000c34 <marte__kernel__mutexes_lists__initialize>:
 8000c34:	b480      	push	{r7}
 8000c36:	b083      	sub	sp, #12
 8000c38:	af00      	add	r7, sp, #0
 8000c3a:	6078      	str	r0, [r7, #4]
 8000c3c:	2300      	movs	r3, #0
 8000c3e:	607b      	str	r3, [r7, #4]
 8000c40:	687b      	ldr	r3, [r7, #4]
 8000c42:	bf00      	nop
 8000c44:	4618      	mov	r0, r3
 8000c46:	370c      	adds	r7, #12
 8000c48:	46bd      	mov	sp, r7
 8000c4a:	f85d 7b04 	ldr.w	r7, [sp], #4
 8000c4e:	4770      	bx	lr

08000c50 <marte__kernel__mutexes_lists__enqueue_head>:
 8000c50:	b580      	push	{r7, lr}
 8000c52:	b082      	sub	sp, #8
 8000c54:	af00      	add	r7, sp, #0
 8000c56:	6078      	str	r0, [r7, #4]
 8000c58:	6039      	str	r1, [r7, #0]
 8000c5a:	687b      	ldr	r3, [r7, #4]
 8000c5c:	2b00      	cmp	r3, #0
 8000c5e:	d103      	bne.n	8000c68 <marte__kernel__mutexes_lists__enqueue_head+0x18>
 8000c60:	213d      	movs	r1, #61	; 0x3d
 8000c62:	4807      	ldr	r0, [pc, #28]	; (8000c80 <marte__kernel__mutexes_lists__enqueue_head+0x30>)
 8000c64:	f012 fcd4 	bl	8013610 <__gnat_last_chance_handler>
 8000c68:	687b      	ldr	r3, [r7, #4]
 8000c6a:	683a      	ldr	r2, [r7, #0]
 8000c6c:	609a      	str	r2, [r3, #8]
 8000c6e:	687b      	ldr	r3, [r7, #4]
 8000c70:	603b      	str	r3, [r7, #0]
 8000c72:	683b      	ldr	r3, [r7, #0]
 8000c74:	bf00      	nop
 8000c76:	4618      	mov	r0, r3
 8000c78:	3708      	adds	r7, #8
 8000c7a:	46bd      	mov	sp, r7
 8000c7c:	bd80      	pop	{r7, pc}
 8000c7e:	bf00      	nop
 8000c80:	0801ebec 	.word	0x0801ebec

08000c84 <marte__kernel__mutexes_lists__is_empty>:
 8000c84:	b480      	push	{r7}
 8000c86:	b083      	sub	sp, #12
 8000c88:	af00      	add	r7, sp, #0
 8000c8a:	6078      	str	r0, [r7, #4]
 8000c8c:	687b      	ldr	r3, [r7, #4]
 8000c8e:	2b00      	cmp	r3, #0
 8000c90:	bf0c      	ite	eq
 8000c92:	2301      	moveq	r3, #1
 8000c94:	2300      	movne	r3, #0
 8000c96:	b2db      	uxtb	r3, r3
 8000c98:	bf00      	nop
 8000c9a:	4618      	mov	r0, r3
 8000c9c:	370c      	adds	r7, #12
 8000c9e:	46bd      	mov	sp, r7
 8000ca0:	f85d 7b04 	ldr.w	r7, [sp], #4
 8000ca4:	4770      	bx	lr
 8000ca6:	bf00      	nop

08000ca8 <marte__kernel__timed_events_lists__enqueue_head>:
 8000ca8:	b580      	push	{r7, lr}
 8000caa:	b082      	sub	sp, #8
 8000cac:	af00      	add	r7, sp, #0
 8000cae:	6078      	str	r0, [r7, #4]
 8000cb0:	6039      	str	r1, [r7, #0]
 8000cb2:	687b      	ldr	r3, [r7, #4]
 8000cb4:	2b00      	cmp	r3, #0
 8000cb6:	d103      	bne.n	8000cc0 <marte__kernel__timed_events_lists__enqueue_head+0x18>
 8000cb8:	213d      	movs	r1, #61	; 0x3d
 8000cba:	4807      	ldr	r0, [pc, #28]	; (8000cd8 <marte__kernel__timed_events_lists__enqueue_head+0x30>)
 8000cbc:	f012 fca8 	bl	8013610 <__gnat_last_chance_handler>
 8000cc0:	687b      	ldr	r3, [r7, #4]
 8000cc2:	683a      	ldr	r2, [r7, #0]
 8000cc4:	615a      	str	r2, [r3, #20]
 8000cc6:	687b      	ldr	r3, [r7, #4]
 8000cc8:	603b      	str	r3, [r7, #0]
 8000cca:	683b      	ldr	r3, [r7, #0]
 8000ccc:	bf00      	nop
 8000cce:	4618      	mov	r0, r3
 8000cd0:	3708      	adds	r7, #8
 8000cd2:	46bd      	mov	sp, r7
 8000cd4:	bd80      	pop	{r7, pc}
 8000cd6:	bf00      	nop
 8000cd8:	0801ebec 	.word	0x0801ebec

08000cdc <marte__kernel__timed_events_lists__enqueue_tail>:
 8000cdc:	b580      	push	{r7, lr}
 8000cde:	b084      	sub	sp, #16
 8000ce0:	af00      	add	r7, sp, #0
 8000ce2:	6078      	str	r0, [r7, #4]
 8000ce4:	6039      	str	r1, [r7, #0]
 8000ce6:	683b      	ldr	r3, [r7, #0]
 8000ce8:	60fb      	str	r3, [r7, #12]
 8000cea:	683b      	ldr	r3, [r7, #0]
 8000cec:	2b00      	cmp	r3, #0
 8000cee:	d10c      	bne.n	8000d0a <marte__kernel__timed_events_lists__enqueue_tail+0x2e>
 8000cf0:	687b      	ldr	r3, [r7, #4]
 8000cf2:	603b      	str	r3, [r7, #0]
 8000cf4:	687b      	ldr	r3, [r7, #4]
 8000cf6:	2b00      	cmp	r3, #0
 8000cf8:	d103      	bne.n	8000d02 <marte__kernel__timed_events_lists__enqueue_tail+0x26>
 8000cfa:	214c      	movs	r1, #76	; 0x4c
 8000cfc:	481b      	ldr	r0, [pc, #108]	; (8000d6c <marte__kernel__timed_events_lists__enqueue_tail+0x90>)
 8000cfe:	f012 fc87 	bl	8013610 <__gnat_last_chance_handler>
 8000d02:	687b      	ldr	r3, [r7, #4]
 8000d04:	2200      	movs	r2, #0
 8000d06:	615a      	str	r2, [r3, #20]
 8000d08:	e02a      	b.n	8000d60 <marte__kernel__timed_events_lists__enqueue_tail+0x84>
 8000d0a:	68fb      	ldr	r3, [r7, #12]
 8000d0c:	2b00      	cmp	r3, #0
 8000d0e:	d103      	bne.n	8000d18 <marte__kernel__timed_events_lists__enqueue_tail+0x3c>
 8000d10:	214f      	movs	r1, #79	; 0x4f
 8000d12:	4816      	ldr	r0, [pc, #88]	; (8000d6c <marte__kernel__timed_events_lists__enqueue_tail+0x90>)
 8000d14:	f012 fc7c 	bl	8013610 <__gnat_last_chance_handler>
 8000d18:	68fb      	ldr	r3, [r7, #12]
 8000d1a:	695b      	ldr	r3, [r3, #20]
 8000d1c:	2b00      	cmp	r3, #0
 8000d1e:	d114      	bne.n	8000d4a <marte__kernel__timed_events_lists__enqueue_tail+0x6e>
 8000d20:	68fb      	ldr	r3, [r7, #12]
 8000d22:	2b00      	cmp	r3, #0
 8000d24:	d103      	bne.n	8000d2e <marte__kernel__timed_events_lists__enqueue_tail+0x52>
 8000d26:	2150      	movs	r1, #80	; 0x50
 8000d28:	4810      	ldr	r0, [pc, #64]	; (8000d6c <marte__kernel__timed_events_lists__enqueue_tail+0x90>)
 8000d2a:	f012 fc71 	bl	8013610 <__gnat_last_chance_handler>
 8000d2e:	68fb      	ldr	r3, [r7, #12]
 8000d30:	687a      	ldr	r2, [r7, #4]
 8000d32:	615a      	str	r2, [r3, #20]
 8000d34:	687b      	ldr	r3, [r7, #4]
 8000d36:	2b00      	cmp	r3, #0
 8000d38:	d103      	bne.n	8000d42 <marte__kernel__timed_events_lists__enqueue_tail+0x66>
 8000d3a:	2151      	movs	r1, #81	; 0x51
 8000d3c:	480b      	ldr	r0, [pc, #44]	; (8000d6c <marte__kernel__timed_events_lists__enqueue_tail+0x90>)
 8000d3e:	f012 fc67 	bl	8013610 <__gnat_last_chance_handler>
 8000d42:	687b      	ldr	r3, [r7, #4]
 8000d44:	2200      	movs	r2, #0
 8000d46:	615a      	str	r2, [r3, #20]
 8000d48:	e00a      	b.n	8000d60 <marte__kernel__timed_events_lists__enqueue_tail+0x84>
 8000d4a:	68fb      	ldr	r3, [r7, #12]
 8000d4c:	2b00      	cmp	r3, #0
 8000d4e:	d103      	bne.n	8000d58 <marte__kernel__timed_events_lists__enqueue_tail+0x7c>
 8000d50:	2154      	movs	r1, #84	; 0x54
 8000d52:	4806      	ldr	r0, [pc, #24]	; (8000d6c <marte__kernel__timed_events_lists__enqueue_tail+0x90>)
 8000d54:	f012 fc5c 	bl	8013610 <__gnat_last_chance_handler>
 8000d58:	68fb      	ldr	r3, [r7, #12]
 8000d5a:	695b      	ldr	r3, [r3, #20]
 8000d5c:	60fb      	str	r3, [r7, #12]
 8000d5e:	e7d4      	b.n	8000d0a <marte__kernel__timed_events_lists__enqueue_tail+0x2e>
 8000d60:	683b      	ldr	r3, [r7, #0]
 8000d62:	bf00      	nop
 8000d64:	4618      	mov	r0, r3
 8000d66:	3710      	adds	r7, #16
 8000d68:	46bd      	mov	sp, r7
 8000d6a:	bd80      	pop	{r7, pc}
 8000d6c:	0801ebec 	.word	0x0801ebec

08000d70 <marte__kernel__timed_events_lists__dequeue_head>:
 8000d70:	b580      	push	{r7, lr}
 8000d72:	b082      	sub	sp, #8
 8000d74:	af00      	add	r7, sp, #0
 8000d76:	6078      	str	r0, [r7, #4]
 8000d78:	687b      	ldr	r3, [r7, #4]
 8000d7a:	2b00      	cmp	r3, #0
 8000d7c:	d103      	bne.n	8000d86 <marte__kernel__timed_events_lists__dequeue_head+0x16>
 8000d7e:	215f      	movs	r1, #95	; 0x5f
 8000d80:	4805      	ldr	r0, [pc, #20]	; (8000d98 <marte__kernel__timed_events_lists__dequeue_head+0x28>)
 8000d82:	f012 fc45 	bl	8013610 <__gnat_last_chance_handler>
 8000d86:	687b      	ldr	r3, [r7, #4]
 8000d88:	695b      	ldr	r3, [r3, #20]
 8000d8a:	607b      	str	r3, [r7, #4]
 8000d8c:	687b      	ldr	r3, [r7, #4]
 8000d8e:	bf00      	nop
 8000d90:	4618      	mov	r0, r3
 8000d92:	3708      	adds	r7, #8
 8000d94:	46bd      	mov	sp, r7
 8000d96:	bd80      	pop	{r7, pc}
 8000d98:	0801ebec 	.word	0x0801ebec

08000d9c <marte__kernel__cpu_time_timed_events_lists__initialize>:
 8000d9c:	b480      	push	{r7}
 8000d9e:	b083      	sub	sp, #12
 8000da0:	af00      	add	r7, sp, #0
 8000da2:	6078      	str	r0, [r7, #4]
 8000da4:	2300      	movs	r3, #0
 8000da6:	607b      	str	r3, [r7, #4]
 8000da8:	687b      	ldr	r3, [r7, #4]
 8000daa:	bf00      	nop
 8000dac:	4618      	mov	r0, r3
 8000dae:	370c      	adds	r7, #12
 8000db0:	46bd      	mov	sp, r7
 8000db2:	f85d 7b04 	ldr.w	r7, [sp], #4
 8000db6:	4770      	bx	lr

08000db8 <marte__kernel__cpu_time_timed_events_lists__enqueue_head>:
 8000db8:	b580      	push	{r7, lr}
 8000dba:	b082      	sub	sp, #8
 8000dbc:	af00      	add	r7, sp, #0
 8000dbe:	6078      	str	r0, [r7, #4]
 8000dc0:	6039      	str	r1, [r7, #0]
 8000dc2:	687b      	ldr	r3, [r7, #4]
 8000dc4:	2b00      	cmp	r3, #0
 8000dc6:	d103      	bne.n	8000dd0 <marte__kernel__cpu_time_timed_events_lists__enqueue_head+0x18>
 8000dc8:	213d      	movs	r1, #61	; 0x3d
 8000dca:	4807      	ldr	r0, [pc, #28]	; (8000de8 <marte__kernel__cpu_time_timed_events_lists__enqueue_head+0x30>)
 8000dcc:	f012 fc20 	bl	8013610 <__gnat_last_chance_handler>
 8000dd0:	687b      	ldr	r3, [r7, #4]
 8000dd2:	683a      	ldr	r2, [r7, #0]
 8000dd4:	63da      	str	r2, [r3, #60]	; 0x3c
 8000dd6:	687b      	ldr	r3, [r7, #4]
 8000dd8:	603b      	str	r3, [r7, #0]
 8000dda:	683b      	ldr	r3, [r7, #0]
 8000ddc:	bf00      	nop
 8000dde:	4618      	mov	r0, r3
 8000de0:	3708      	adds	r7, #8
 8000de2:	46bd      	mov	sp, r7
 8000de4:	bd80      	pop	{r7, pc}
 8000de6:	bf00      	nop
 8000de8:	0801ebec 	.word	0x0801ebec

08000dec <marte__kernel__cpu_time_timed_events_lists__dequeue_head>:
 8000dec:	b580      	push	{r7, lr}
 8000dee:	b082      	sub	sp, #8
 8000df0:	af00      	add	r7, sp, #0
 8000df2:	6078      	str	r0, [r7, #4]
 8000df4:	687b      	ldr	r3, [r7, #4]
 8000df6:	2b00      	cmp	r3, #0
 8000df8:	d103      	bne.n	8000e02 <marte__kernel__cpu_time_timed_events_lists__dequeue_head+0x16>
 8000dfa:	215f      	movs	r1, #95	; 0x5f
 8000dfc:	4805      	ldr	r0, [pc, #20]	; (8000e14 <marte__kernel__cpu_time_timed_events_lists__dequeue_head+0x28>)
 8000dfe:	f012 fc07 	bl	8013610 <__gnat_last_chance_handler>
 8000e02:	687b      	ldr	r3, [r7, #4]
 8000e04:	6bdb      	ldr	r3, [r3, #60]	; 0x3c
 8000e06:	607b      	str	r3, [r7, #4]
 8000e08:	687b      	ldr	r3, [r7, #4]
 8000e0a:	bf00      	nop
 8000e0c:	4618      	mov	r0, r3
 8000e0e:	3708      	adds	r7, #8
 8000e10:	46bd      	mov	sp, r7
 8000e12:	bd80      	pop	{r7, pc}
 8000e14:	0801ebec 	.word	0x0801ebec

08000e18 <marte__kernel__cpu_time_timed_events_lists__head>:
 8000e18:	b480      	push	{r7}
 8000e1a:	b083      	sub	sp, #12
 8000e1c:	af00      	add	r7, sp, #0
 8000e1e:	6078      	str	r0, [r7, #4]
 8000e20:	687b      	ldr	r3, [r7, #4]
 8000e22:	bf00      	nop
 8000e24:	4618      	mov	r0, r3
 8000e26:	370c      	adds	r7, #12
 8000e28:	46bd      	mov	sp, r7
 8000e2a:	f85d 7b04 	ldr.w	r7, [sp], #4
 8000e2e:	4770      	bx	lr

08000e30 <marte__kernel__cpu_time_timed_events_lists__dequeue>:
 8000e30:	b580      	push	{r7, lr}
 8000e32:	b084      	sub	sp, #16
 8000e34:	af00      	add	r7, sp, #0
 8000e36:	6078      	str	r0, [r7, #4]
 8000e38:	6039      	str	r1, [r7, #0]
 8000e3a:	683b      	ldr	r3, [r7, #0]
 8000e3c:	60fb      	str	r3, [r7, #12]
 8000e3e:	683b      	ldr	r3, [r7, #0]
 8000e40:	2b00      	cmp	r3, #0
 8000e42:	d043      	beq.n	8000ecc <marte__kernel__cpu_time_timed_events_lists__dequeue+0x9c>
 8000e44:	683a      	ldr	r2, [r7, #0]
 8000e46:	687b      	ldr	r3, [r7, #4]
 8000e48:	429a      	cmp	r2, r3
 8000e4a:	d10a      	bne.n	8000e62 <marte__kernel__cpu_time_timed_events_lists__dequeue+0x32>
 8000e4c:	687b      	ldr	r3, [r7, #4]
 8000e4e:	2b00      	cmp	r3, #0
 8000e50:	d103      	bne.n	8000e5a <marte__kernel__cpu_time_timed_events_lists__dequeue+0x2a>
 8000e52:	2178      	movs	r1, #120	; 0x78
 8000e54:	4822      	ldr	r0, [pc, #136]	; (8000ee0 <marte__kernel__cpu_time_timed_events_lists__dequeue+0xb0>)
 8000e56:	f012 fbdb 	bl	8013610 <__gnat_last_chance_handler>
 8000e5a:	687b      	ldr	r3, [r7, #4]
 8000e5c:	6bdb      	ldr	r3, [r3, #60]	; 0x3c
 8000e5e:	603b      	str	r3, [r7, #0]
 8000e60:	e037      	b.n	8000ed2 <marte__kernel__cpu_time_timed_events_lists__dequeue+0xa2>
 8000e62:	68fb      	ldr	r3, [r7, #12]
 8000e64:	2b00      	cmp	r3, #0
 8000e66:	d103      	bne.n	8000e70 <marte__kernel__cpu_time_timed_events_lists__dequeue+0x40>
 8000e68:	217b      	movs	r1, #123	; 0x7b
 8000e6a:	481d      	ldr	r0, [pc, #116]	; (8000ee0 <marte__kernel__cpu_time_timed_events_lists__dequeue+0xb0>)
 8000e6c:	f012 fbd0 	bl	8013610 <__gnat_last_chance_handler>
 8000e70:	68fb      	ldr	r3, [r7, #12]
 8000e72:	6bdb      	ldr	r3, [r3, #60]	; 0x3c
 8000e74:	2b00      	cmp	r3, #0
 8000e76:	d02b      	beq.n	8000ed0 <marte__kernel__cpu_time_timed_events_lists__dequeue+0xa0>
 8000e78:	68fb      	ldr	r3, [r7, #12]
 8000e7a:	2b00      	cmp	r3, #0
 8000e7c:	d103      	bne.n	8000e86 <marte__kernel__cpu_time_timed_events_lists__dequeue+0x56>
 8000e7e:	217d      	movs	r1, #125	; 0x7d
 8000e80:	4817      	ldr	r0, [pc, #92]	; (8000ee0 <marte__kernel__cpu_time_timed_events_lists__dequeue+0xb0>)
 8000e82:	f012 fbc5 	bl	8013610 <__gnat_last_chance_handler>
 8000e86:	68fb      	ldr	r3, [r7, #12]
 8000e88:	6bdb      	ldr	r3, [r3, #60]	; 0x3c
 8000e8a:	687a      	ldr	r2, [r7, #4]
 8000e8c:	429a      	cmp	r2, r3
 8000e8e:	d112      	bne.n	8000eb6 <marte__kernel__cpu_time_timed_events_lists__dequeue+0x86>
 8000e90:	68fb      	ldr	r3, [r7, #12]
 8000e92:	2b00      	cmp	r3, #0
 8000e94:	d103      	bne.n	8000e9e <marte__kernel__cpu_time_timed_events_lists__dequeue+0x6e>
 8000e96:	217e      	movs	r1, #126	; 0x7e
 8000e98:	4811      	ldr	r0, [pc, #68]	; (8000ee0 <marte__kernel__cpu_time_timed_events_lists__dequeue+0xb0>)
 8000e9a:	f012 fbb9 	bl	8013610 <__gnat_last_chance_handler>
 8000e9e:	687b      	ldr	r3, [r7, #4]
 8000ea0:	2b00      	cmp	r3, #0
 8000ea2:	d103      	bne.n	8000eac <marte__kernel__cpu_time_timed_events_lists__dequeue+0x7c>
 8000ea4:	217e      	movs	r1, #126	; 0x7e
 8000ea6:	480e      	ldr	r0, [pc, #56]	; (8000ee0 <marte__kernel__cpu_time_timed_events_lists__dequeue+0xb0>)
 8000ea8:	f012 fbb2 	bl	8013610 <__gnat_last_chance_handler>
 8000eac:	687b      	ldr	r3, [r7, #4]
 8000eae:	6bda      	ldr	r2, [r3, #60]	; 0x3c
 8000eb0:	68fb      	ldr	r3, [r7, #12]
 8000eb2:	63da      	str	r2, [r3, #60]	; 0x3c
 8000eb4:	e00d      	b.n	8000ed2 <marte__kernel__cpu_time_timed_events_lists__dequeue+0xa2>
 8000eb6:	68fb      	ldr	r3, [r7, #12]
 8000eb8:	2b00      	cmp	r3, #0
 8000eba:	d103      	bne.n	8000ec4 <marte__kernel__cpu_time_timed_events_lists__dequeue+0x94>
 8000ebc:	2181      	movs	r1, #129	; 0x81
 8000ebe:	4808      	ldr	r0, [pc, #32]	; (8000ee0 <marte__kernel__cpu_time_timed_events_lists__dequeue+0xb0>)
 8000ec0:	f012 fba6 	bl	8013610 <__gnat_last_chance_handler>
 8000ec4:	68fb      	ldr	r3, [r7, #12]
 8000ec6:	6bdb      	ldr	r3, [r3, #60]	; 0x3c
 8000ec8:	60fb      	str	r3, [r7, #12]
 8000eca:	e7ca      	b.n	8000e62 <marte__kernel__cpu_time_timed_events_lists__dequeue+0x32>
 8000ecc:	bf00      	nop
 8000ece:	e000      	b.n	8000ed2 <marte__kernel__cpu_time_timed_events_lists__dequeue+0xa2>
 8000ed0:	bf00      	nop
 8000ed2:	683b      	ldr	r3, [r7, #0]
 8000ed4:	bf00      	nop
 8000ed6:	4618      	mov	r0, r3
 8000ed8:	3710      	adds	r7, #16
 8000eda:	46bd      	mov	sp, r7
 8000edc:	bd80      	pop	{r7, pc}
 8000ede:	bf00      	nop
 8000ee0:	0801ebec 	.word	0x0801ebec

08000ee4 <marte__kernel__cpu_time_timed_events_lists__is_empty>:
 8000ee4:	b480      	push	{r7}
 8000ee6:	b083      	sub	sp, #12
 8000ee8:	af00      	add	r7, sp, #0
 8000eea:	6078      	str	r0, [r7, #4]
 8000eec:	687b      	ldr	r3, [r7, #4]
 8000eee:	2b00      	cmp	r3, #0
 8000ef0:	bf0c      	ite	eq
 8000ef2:	2301      	moveq	r3, #1
 8000ef4:	2300      	movne	r3, #0
 8000ef6:	b2db      	uxtb	r3, r3
 8000ef8:	bf00      	nop
 8000efa:	4618      	mov	r0, r3
 8000efc:	370c      	adds	r7, #12
 8000efe:	46bd      	mov	sp, r7
 8000f00:	f85d 7b04 	ldr.w	r7, [sp], #4
 8000f04:	4770      	bx	lr
 8000f06:	bf00      	nop

08000f08 <marte__kernel__cpu_time_timed_events_lists__next>:
 8000f08:	b580      	push	{r7, lr}
 8000f0a:	b082      	sub	sp, #8
 8000f0c:	af00      	add	r7, sp, #0
 8000f0e:	6078      	str	r0, [r7, #4]
 8000f10:	687b      	ldr	r3, [r7, #4]
 8000f12:	2b00      	cmp	r3, #0
 8000f14:	d103      	bne.n	8000f1e <marte__kernel__cpu_time_timed_events_lists__next+0x16>
 8000f16:	2194      	movs	r1, #148	; 0x94
 8000f18:	4804      	ldr	r0, [pc, #16]	; (8000f2c <marte__kernel__cpu_time_timed_events_lists__next+0x24>)
 8000f1a:	f012 fb79 	bl	8013610 <__gnat_last_chance_handler>
 8000f1e:	687b      	ldr	r3, [r7, #4]
 8000f20:	6bdb      	ldr	r3, [r3, #60]	; 0x3c
 8000f22:	bf00      	nop
 8000f24:	4618      	mov	r0, r3
 8000f26:	3708      	adds	r7, #8
 8000f28:	46bd      	mov	sp, r7
 8000f2a:	bd80      	pop	{r7, pc}
 8000f2c:	0801ebec 	.word	0x0801ebec

08000f30 <marte__kernel__cpu_time_timed_events_lists_order__enqueue_in_order>:
 8000f30:	b580      	push	{r7, lr}
 8000f32:	b084      	sub	sp, #16
 8000f34:	af00      	add	r7, sp, #0
 8000f36:	6078      	str	r0, [r7, #4]
 8000f38:	6039      	str	r1, [r7, #0]
 8000f3a:	683b      	ldr	r3, [r7, #0]
 8000f3c:	60fb      	str	r3, [r7, #12]
 8000f3e:	683b      	ldr	r3, [r7, #0]
 8000f40:	2b00      	cmp	r3, #0
 8000f42:	d006      	beq.n	8000f52 <marte__kernel__cpu_time_timed_events_lists_order__enqueue_in_order+0x22>
 8000f44:	6839      	ldr	r1, [r7, #0]
 8000f46:	6878      	ldr	r0, [r7, #4]
 8000f48:	f001 ffb6 	bl	8002eb8 <marte__kernel__Ogt__2>
 8000f4c:	4603      	mov	r3, r0
 8000f4e:	2b00      	cmp	r3, #0
 8000f50:	d00c      	beq.n	8000f6c <marte__kernel__cpu_time_timed_events_lists_order__enqueue_in_order+0x3c>
 8000f52:	687b      	ldr	r3, [r7, #4]
 8000f54:	2b00      	cmp	r3, #0
 8000f56:	d103      	bne.n	8000f60 <marte__kernel__cpu_time_timed_events_lists_order__enqueue_in_order+0x30>
 8000f58:	2135      	movs	r1, #53	; 0x35
 8000f5a:	482b      	ldr	r0, [pc, #172]	; (8001008 <marte__kernel__cpu_time_timed_events_lists_order__enqueue_in_order+0xd8>)
 8000f5c:	f012 fb58 	bl	8013610 <__gnat_last_chance_handler>
 8000f60:	687b      	ldr	r3, [r7, #4]
 8000f62:	683a      	ldr	r2, [r7, #0]
 8000f64:	63da      	str	r2, [r3, #60]	; 0x3c
 8000f66:	687b      	ldr	r3, [r7, #4]
 8000f68:	603b      	str	r3, [r7, #0]
 8000f6a:	e047      	b.n	8000ffc <marte__kernel__cpu_time_timed_events_lists_order__enqueue_in_order+0xcc>
 8000f6c:	68fb      	ldr	r3, [r7, #12]
 8000f6e:	2b00      	cmp	r3, #0
 8000f70:	d103      	bne.n	8000f7a <marte__kernel__cpu_time_timed_events_lists_order__enqueue_in_order+0x4a>
 8000f72:	2139      	movs	r1, #57	; 0x39
 8000f74:	4824      	ldr	r0, [pc, #144]	; (8001008 <marte__kernel__cpu_time_timed_events_lists_order__enqueue_in_order+0xd8>)
 8000f76:	f012 fb4b 	bl	8013610 <__gnat_last_chance_handler>
 8000f7a:	68fb      	ldr	r3, [r7, #12]
 8000f7c:	6bdb      	ldr	r3, [r3, #60]	; 0x3c
 8000f7e:	2b00      	cmp	r3, #0
 8000f80:	bf0c      	ite	eq
 8000f82:	2301      	moveq	r3, #1
 8000f84:	2300      	movne	r3, #0
 8000f86:	b2db      	uxtb	r3, r3
 8000f88:	2b00      	cmp	r3, #0
 8000f8a:	d10f      	bne.n	8000fac <marte__kernel__cpu_time_timed_events_lists_order__enqueue_in_order+0x7c>
 8000f8c:	68fb      	ldr	r3, [r7, #12]
 8000f8e:	2b00      	cmp	r3, #0
 8000f90:	d103      	bne.n	8000f9a <marte__kernel__cpu_time_timed_events_lists_order__enqueue_in_order+0x6a>
 8000f92:	2139      	movs	r1, #57	; 0x39
 8000f94:	481c      	ldr	r0, [pc, #112]	; (8001008 <marte__kernel__cpu_time_timed_events_lists_order__enqueue_in_order+0xd8>)
 8000f96:	f012 fb3b 	bl	8013610 <__gnat_last_chance_handler>
 8000f9a:	68fb      	ldr	r3, [r7, #12]
 8000f9c:	6bdb      	ldr	r3, [r3, #60]	; 0x3c
 8000f9e:	4619      	mov	r1, r3
 8000fa0:	6878      	ldr	r0, [r7, #4]
 8000fa2:	f001 ff89 	bl	8002eb8 <marte__kernel__Ogt__2>
 8000fa6:	4603      	mov	r3, r0
 8000fa8:	2b00      	cmp	r3, #0
 8000faa:	d01c      	beq.n	8000fe6 <marte__kernel__cpu_time_timed_events_lists_order__enqueue_in_order+0xb6>
 8000fac:	687b      	ldr	r3, [r7, #4]
 8000fae:	2b00      	cmp	r3, #0
 8000fb0:	d103      	bne.n	8000fba <marte__kernel__cpu_time_timed_events_lists_order__enqueue_in_order+0x8a>
 8000fb2:	213a      	movs	r1, #58	; 0x3a
 8000fb4:	4814      	ldr	r0, [pc, #80]	; (8001008 <marte__kernel__cpu_time_timed_events_lists_order__enqueue_in_order+0xd8>)
 8000fb6:	f012 fb2b 	bl	8013610 <__gnat_last_chance_handler>
 8000fba:	68fb      	ldr	r3, [r7, #12]
 8000fbc:	2b00      	cmp	r3, #0
 8000fbe:	d103      	bne.n	8000fc8 <marte__kernel__cpu_time_timed_events_lists_order__enqueue_in_order+0x98>
 8000fc0:	213a      	movs	r1, #58	; 0x3a
 8000fc2:	4811      	ldr	r0, [pc, #68]	; (8001008 <marte__kernel__cpu_time_timed_events_lists_order__enqueue_in_order+0xd8>)
 8000fc4:	f012 fb24 	bl	8013610 <__gnat_last_chance_handler>
 8000fc8:	68fb      	ldr	r3, [r7, #12]
 8000fca:	6bda      	ldr	r2, [r3, #60]	; 0x3c
 8000fcc:	687b      	ldr	r3, [r7, #4]
 8000fce:	63da      	str	r2, [r3, #60]	; 0x3c
 8000fd0:	68fb      	ldr	r3, [r7, #12]
 8000fd2:	2b00      	cmp	r3, #0
 8000fd4:	d103      	bne.n	8000fde <marte__kernel__cpu_time_timed_events_lists_order__enqueue_in_order+0xae>
 8000fd6:	213b      	movs	r1, #59	; 0x3b
 8000fd8:	480b      	ldr	r0, [pc, #44]	; (8001008 <marte__kernel__cpu_time_timed_events_lists_order__enqueue_in_order+0xd8>)
 8000fda:	f012 fb19 	bl	8013610 <__gnat_last_chance_handler>
 8000fde:	68fb      	ldr	r3, [r7, #12]
 8000fe0:	687a      	ldr	r2, [r7, #4]
 8000fe2:	63da      	str	r2, [r3, #60]	; 0x3c
 8000fe4:	e00a      	b.n	8000ffc <marte__kernel__cpu_time_timed_events_lists_order__enqueue_in_order+0xcc>
 8000fe6:	68fb      	ldr	r3, [r7, #12]
 8000fe8:	2b00      	cmp	r3, #0
 8000fea:	d103      	bne.n	8000ff4 <marte__kernel__cpu_time_timed_events_lists_order__enqueue_in_order+0xc4>
 8000fec:	213e      	movs	r1, #62	; 0x3e
 8000fee:	4806      	ldr	r0, [pc, #24]	; (8001008 <marte__kernel__cpu_time_timed_events_lists_order__enqueue_in_order+0xd8>)
 8000ff0:	f012 fb0e 	bl	8013610 <__gnat_last_chance_handler>
 8000ff4:	68fb      	ldr	r3, [r7, #12]
 8000ff6:	6bdb      	ldr	r3, [r3, #60]	; 0x3c
 8000ff8:	60fb      	str	r3, [r7, #12]
 8000ffa:	e7b7      	b.n	8000f6c <marte__kernel__cpu_time_timed_events_lists_order__enqueue_in_order+0x3c>
 8000ffc:	683b      	ldr	r3, [r7, #0]
 8000ffe:	bf00      	nop
 8001000:	4618      	mov	r0, r3
 8001002:	3710      	adds	r7, #16
 8001004:	46bd      	mov	sp, r7
 8001006:	bd80      	pop	{r7, pc}
 8001008:	0801ebfc 	.word	0x0801ebfc

0800100c <marte__kernel__tasks_lists__initialize>:
 800100c:	b480      	push	{r7}
 800100e:	b083      	sub	sp, #12
 8001010:	af00      	add	r7, sp, #0
 8001012:	6078      	str	r0, [r7, #4]
 8001014:	2300      	movs	r3, #0
 8001016:	607b      	str	r3, [r7, #4]
 8001018:	687b      	ldr	r3, [r7, #4]
 800101a:	bf00      	nop
 800101c:	4618      	mov	r0, r3
 800101e:	370c      	adds	r7, #12
 8001020:	46bd      	mov	sp, r7
 8001022:	f85d 7b04 	ldr.w	r7, [sp], #4
 8001026:	4770      	bx	lr

08001028 <marte__kernel__tasks_lists__enqueue_head>:
 8001028:	b580      	push	{r7, lr}
 800102a:	b082      	sub	sp, #8
 800102c:	af00      	add	r7, sp, #0
 800102e:	6078      	str	r0, [r7, #4]
 8001030:	6039      	str	r1, [r7, #0]
 8001032:	687b      	ldr	r3, [r7, #4]
 8001034:	2b00      	cmp	r3, #0
 8001036:	d103      	bne.n	8001040 <marte__kernel__tasks_lists__enqueue_head+0x18>
 8001038:	213d      	movs	r1, #61	; 0x3d
 800103a:	4807      	ldr	r0, [pc, #28]	; (8001058 <marte__kernel__tasks_lists__enqueue_head+0x30>)
 800103c:	f012 fae8 	bl	8013610 <__gnat_last_chance_handler>
 8001040:	687b      	ldr	r3, [r7, #4]
 8001042:	683a      	ldr	r2, [r7, #0]
 8001044:	f8c3 2194 	str.w	r2, [r3, #404]	; 0x194
 8001048:	687b      	ldr	r3, [r7, #4]
 800104a:	603b      	str	r3, [r7, #0]
 800104c:	683b      	ldr	r3, [r7, #0]
 800104e:	bf00      	nop
 8001050:	4618      	mov	r0, r3
 8001052:	3708      	adds	r7, #8
 8001054:	46bd      	mov	sp, r7
 8001056:	bd80      	pop	{r7, pc}
 8001058:	0801ebec 	.word	0x0801ebec

0800105c <marte__kernel__tasks_lists__enqueue_tail>:
 800105c:	b580      	push	{r7, lr}
 800105e:	b084      	sub	sp, #16
 8001060:	af00      	add	r7, sp, #0
 8001062:	6078      	str	r0, [r7, #4]
 8001064:	6039      	str	r1, [r7, #0]
 8001066:	683b      	ldr	r3, [r7, #0]
 8001068:	60fb      	str	r3, [r7, #12]
 800106a:	683b      	ldr	r3, [r7, #0]
 800106c:	2b00      	cmp	r3, #0
 800106e:	d10d      	bne.n	800108c <marte__kernel__tasks_lists__enqueue_tail+0x30>
 8001070:	687b      	ldr	r3, [r7, #4]
 8001072:	603b      	str	r3, [r7, #0]
 8001074:	687b      	ldr	r3, [r7, #4]
 8001076:	2b00      	cmp	r3, #0
 8001078:	d103      	bne.n	8001082 <marte__kernel__tasks_lists__enqueue_tail+0x26>
 800107a:	214c      	movs	r1, #76	; 0x4c
 800107c:	481e      	ldr	r0, [pc, #120]	; (80010f8 <marte__kernel__tasks_lists__enqueue_tail+0x9c>)
 800107e:	f012 fac7 	bl	8013610 <__gnat_last_chance_handler>
 8001082:	687b      	ldr	r3, [r7, #4]
 8001084:	2200      	movs	r2, #0
 8001086:	f8c3 2194 	str.w	r2, [r3, #404]	; 0x194
 800108a:	e02e      	b.n	80010ea <marte__kernel__tasks_lists__enqueue_tail+0x8e>
 800108c:	68fb      	ldr	r3, [r7, #12]
 800108e:	2b00      	cmp	r3, #0
 8001090:	d103      	bne.n	800109a <marte__kernel__tasks_lists__enqueue_tail+0x3e>
 8001092:	214f      	movs	r1, #79	; 0x4f
 8001094:	4818      	ldr	r0, [pc, #96]	; (80010f8 <marte__kernel__tasks_lists__enqueue_tail+0x9c>)
 8001096:	f012 fabb 	bl	8013610 <__gnat_last_chance_handler>
 800109a:	68fb      	ldr	r3, [r7, #12]
 800109c:	f8d3 3194 	ldr.w	r3, [r3, #404]	; 0x194
 80010a0:	2b00      	cmp	r3, #0
 80010a2:	d116      	bne.n	80010d2 <marte__kernel__tasks_lists__enqueue_tail+0x76>
 80010a4:	68fb      	ldr	r3, [r7, #12]
 80010a6:	2b00      	cmp	r3, #0
 80010a8:	d103      	bne.n	80010b2 <marte__kernel__tasks_lists__enqueue_tail+0x56>
 80010aa:	2150      	movs	r1, #80	; 0x50
 80010ac:	4812      	ldr	r0, [pc, #72]	; (80010f8 <marte__kernel__tasks_lists__enqueue_tail+0x9c>)
 80010ae:	f012 faaf 	bl	8013610 <__gnat_last_chance_handler>
 80010b2:	68fb      	ldr	r3, [r7, #12]
 80010b4:	687a      	ldr	r2, [r7, #4]
 80010b6:	f8c3 2194 	str.w	r2, [r3, #404]	; 0x194
 80010ba:	687b      	ldr	r3, [r7, #4]
 80010bc:	2b00      	cmp	r3, #0
 80010be:	d103      	bne.n	80010c8 <marte__kernel__tasks_lists__enqueue_tail+0x6c>
 80010c0:	2151      	movs	r1, #81	; 0x51
 80010c2:	480d      	ldr	r0, [pc, #52]	; (80010f8 <marte__kernel__tasks_lists__enqueue_tail+0x9c>)
 80010c4:	f012 faa4 	bl	8013610 <__gnat_last_chance_handler>
 80010c8:	687b      	ldr	r3, [r7, #4]
 80010ca:	2200      	movs	r2, #0
 80010cc:	f8c3 2194 	str.w	r2, [r3, #404]	; 0x194
 80010d0:	e00b      	b.n	80010ea <marte__kernel__tasks_lists__enqueue_tail+0x8e>
 80010d2:	68fb      	ldr	r3, [r7, #12]
 80010d4:	2b00      	cmp	r3, #0
 80010d6:	d103      	bne.n	80010e0 <marte__kernel__tasks_lists__enqueue_tail+0x84>
 80010d8:	2154      	movs	r1, #84	; 0x54
 80010da:	4807      	ldr	r0, [pc, #28]	; (80010f8 <marte__kernel__tasks_lists__enqueue_tail+0x9c>)
 80010dc:	f012 fa98 	bl	8013610 <__gnat_last_chance_handler>
 80010e0:	68fb      	ldr	r3, [r7, #12]
 80010e2:	f8d3 3194 	ldr.w	r3, [r3, #404]	; 0x194
 80010e6:	60fb      	str	r3, [r7, #12]
 80010e8:	e7d0      	b.n	800108c <marte__kernel__tasks_lists__enqueue_tail+0x30>
 80010ea:	683b      	ldr	r3, [r7, #0]
 80010ec:	bf00      	nop
 80010ee:	4618      	mov	r0, r3
 80010f0:	3710      	adds	r7, #16
 80010f2:	46bd      	mov	sp, r7
 80010f4:	bd80      	pop	{r7, pc}
 80010f6:	bf00      	nop
 80010f8:	0801ebec 	.word	0x0801ebec

080010fc <marte__kernel__tasks_lists__dequeue_head>:
 80010fc:	b580      	push	{r7, lr}
 80010fe:	b082      	sub	sp, #8
 8001100:	af00      	add	r7, sp, #0
 8001102:	6078      	str	r0, [r7, #4]
 8001104:	687b      	ldr	r3, [r7, #4]
 8001106:	2b00      	cmp	r3, #0
 8001108:	d103      	bne.n	8001112 <marte__kernel__tasks_lists__dequeue_head+0x16>
 800110a:	215f      	movs	r1, #95	; 0x5f
 800110c:	4806      	ldr	r0, [pc, #24]	; (8001128 <marte__kernel__tasks_lists__dequeue_head+0x2c>)
 800110e:	f012 fa7f 	bl	8013610 <__gnat_last_chance_handler>
 8001112:	687b      	ldr	r3, [r7, #4]
 8001114:	f8d3 3194 	ldr.w	r3, [r3, #404]	; 0x194
 8001118:	607b      	str	r3, [r7, #4]
 800111a:	687b      	ldr	r3, [r7, #4]
 800111c:	bf00      	nop
 800111e:	4618      	mov	r0, r3
 8001120:	3708      	adds	r7, #8
 8001122:	46bd      	mov	sp, r7
 8001124:	bd80      	pop	{r7, pc}
 8001126:	bf00      	nop
 8001128:	0801ebec 	.word	0x0801ebec

0800112c <marte__kernel__tasks_lists__head>:
 800112c:	b480      	push	{r7}
 800112e:	b083      	sub	sp, #12
 8001130:	af00      	add	r7, sp, #0
 8001132:	6078      	str	r0, [r7, #4]
 8001134:	687b      	ldr	r3, [r7, #4]
 8001136:	bf00      	nop
 8001138:	4618      	mov	r0, r3
 800113a:	370c      	adds	r7, #12
 800113c:	46bd      	mov	sp, r7
 800113e:	f85d 7b04 	ldr.w	r7, [sp], #4
 8001142:	4770      	bx	lr

08001144 <marte__kernel__tasks_lists__dequeue>:
 8001144:	b580      	push	{r7, lr}
 8001146:	b084      	sub	sp, #16
 8001148:	af00      	add	r7, sp, #0
 800114a:	6078      	str	r0, [r7, #4]
 800114c:	6039      	str	r1, [r7, #0]
 800114e:	683b      	ldr	r3, [r7, #0]
 8001150:	60fb      	str	r3, [r7, #12]
 8001152:	683b      	ldr	r3, [r7, #0]
 8001154:	2b00      	cmp	r3, #0
 8001156:	d049      	beq.n	80011ec <marte__kernel__tasks_lists__dequeue+0xa8>
 8001158:	683a      	ldr	r2, [r7, #0]
 800115a:	687b      	ldr	r3, [r7, #4]
 800115c:	429a      	cmp	r2, r3
 800115e:	d10b      	bne.n	8001178 <marte__kernel__tasks_lists__dequeue+0x34>
 8001160:	687b      	ldr	r3, [r7, #4]
 8001162:	2b00      	cmp	r3, #0
 8001164:	d103      	bne.n	800116e <marte__kernel__tasks_lists__dequeue+0x2a>
 8001166:	2178      	movs	r1, #120	; 0x78
 8001168:	4825      	ldr	r0, [pc, #148]	; (8001200 <marte__kernel__tasks_lists__dequeue+0xbc>)
 800116a:	f012 fa51 	bl	8013610 <__gnat_last_chance_handler>
 800116e:	687b      	ldr	r3, [r7, #4]
 8001170:	f8d3 3194 	ldr.w	r3, [r3, #404]	; 0x194
 8001174:	603b      	str	r3, [r7, #0]
 8001176:	e03c      	b.n	80011f2 <marte__kernel__tasks_lists__dequeue+0xae>
 8001178:	68fb      	ldr	r3, [r7, #12]
 800117a:	2b00      	cmp	r3, #0
 800117c:	d103      	bne.n	8001186 <marte__kernel__tasks_lists__dequeue+0x42>
 800117e:	217b      	movs	r1, #123	; 0x7b
 8001180:	481f      	ldr	r0, [pc, #124]	; (8001200 <marte__kernel__tasks_lists__dequeue+0xbc>)
 8001182:	f012 fa45 	bl	8013610 <__gnat_last_chance_handler>
 8001186:	68fb      	ldr	r3, [r7, #12]
 8001188:	f8d3 3194 	ldr.w	r3, [r3, #404]	; 0x194
 800118c:	2b00      	cmp	r3, #0
 800118e:	d02f      	beq.n	80011f0 <marte__kernel__tasks_lists__dequeue+0xac>
 8001190:	68fb      	ldr	r3, [r7, #12]
 8001192:	2b00      	cmp	r3, #0
 8001194:	d103      	bne.n	800119e <marte__kernel__tasks_lists__dequeue+0x5a>
 8001196:	217d      	movs	r1, #125	; 0x7d
 8001198:	4819      	ldr	r0, [pc, #100]	; (8001200 <marte__kernel__tasks_lists__dequeue+0xbc>)
 800119a:	f012 fa39 	bl	8013610 <__gnat_last_chance_handler>
 800119e:	68fb      	ldr	r3, [r7, #12]
 80011a0:	f8d3 3194 	ldr.w	r3, [r3, #404]	; 0x194
 80011a4:	687a      	ldr	r2, [r7, #4]
 80011a6:	429a      	cmp	r2, r3
 80011a8:	d114      	bne.n	80011d4 <marte__kernel__tasks_lists__dequeue+0x90>
 80011aa:	68fb      	ldr	r3, [r7, #12]
 80011ac:	2b00      	cmp	r3, #0
 80011ae:	d103      	bne.n	80011b8 <marte__kernel__tasks_lists__dequeue+0x74>
 80011b0:	217e      	movs	r1, #126	; 0x7e
 80011b2:	4813      	ldr	r0, [pc, #76]	; (8001200 <marte__kernel__tasks_lists__dequeue+0xbc>)
 80011b4:	f012 fa2c 	bl	8013610 <__gnat_last_chance_handler>
 80011b8:	687b      	ldr	r3, [r7, #4]
 80011ba:	2b00      	cmp	r3, #0
 80011bc:	d103      	bne.n	80011c6 <marte__kernel__tasks_lists__dequeue+0x82>
 80011be:	217e      	movs	r1, #126	; 0x7e
 80011c0:	480f      	ldr	r0, [pc, #60]	; (8001200 <marte__kernel__tasks_lists__dequeue+0xbc>)
 80011c2:	f012 fa25 	bl	8013610 <__gnat_last_chance_handler>
 80011c6:	687b      	ldr	r3, [r7, #4]
 80011c8:	f8d3 2194 	ldr.w	r2, [r3, #404]	; 0x194
 80011cc:	68fb      	ldr	r3, [r7, #12]
 80011ce:	f8c3 2194 	str.w	r2, [r3, #404]	; 0x194
 80011d2:	e00e      	b.n	80011f2 <marte__kernel__tasks_lists__dequeue+0xae>
 80011d4:	68fb      	ldr	r3, [r7, #12]
 80011d6:	2b00      	cmp	r3, #0
 80011d8:	d103      	bne.n	80011e2 <marte__kernel__tasks_lists__dequeue+0x9e>
 80011da:	2181      	movs	r1, #129	; 0x81
 80011dc:	4808      	ldr	r0, [pc, #32]	; (8001200 <marte__kernel__tasks_lists__dequeue+0xbc>)
 80011de:	f012 fa17 	bl	8013610 <__gnat_last_chance_handler>
 80011e2:	68fb      	ldr	r3, [r7, #12]
 80011e4:	f8d3 3194 	ldr.w	r3, [r3, #404]	; 0x194
 80011e8:	60fb      	str	r3, [r7, #12]
 80011ea:	e7c5      	b.n	8001178 <marte__kernel__tasks_lists__dequeue+0x34>
 80011ec:	bf00      	nop
 80011ee:	e000      	b.n	80011f2 <marte__kernel__tasks_lists__dequeue+0xae>
 80011f0:	bf00      	nop
 80011f2:	683b      	ldr	r3, [r7, #0]
 80011f4:	bf00      	nop
 80011f6:	4618      	mov	r0, r3
 80011f8:	3710      	adds	r7, #16
 80011fa:	46bd      	mov	sp, r7
 80011fc:	bd80      	pop	{r7, pc}
 80011fe:	bf00      	nop
 8001200:	0801ebec 	.word	0x0801ebec

08001204 <marte__kernel__tasks_lists__is_empty>:
 8001204:	b480      	push	{r7}
 8001206:	b083      	sub	sp, #12
 8001208:	af00      	add	r7, sp, #0
 800120a:	6078      	str	r0, [r7, #4]
 800120c:	687b      	ldr	r3, [r7, #4]
 800120e:	2b00      	cmp	r3, #0
 8001210:	bf0c      	ite	eq
 8001212:	2301      	moveq	r3, #1
 8001214:	2300      	movne	r3, #0
 8001216:	b2db      	uxtb	r3, r3
 8001218:	bf00      	nop
 800121a:	4618      	mov	r0, r3
 800121c:	370c      	adds	r7, #12
 800121e:	46bd      	mov	sp, r7
 8001220:	f85d 7b04 	ldr.w	r7, [sp], #4
 8001224:	4770      	bx	lr
 8001226:	bf00      	nop

08001228 <marte__kernel__tasks_lists__is_the_tail>:
 8001228:	b580      	push	{r7, lr}
 800122a:	b082      	sub	sp, #8
 800122c:	af00      	add	r7, sp, #0
 800122e:	6078      	str	r0, [r7, #4]
 8001230:	687b      	ldr	r3, [r7, #4]
 8001232:	2b00      	cmp	r3, #0
 8001234:	d103      	bne.n	800123e <marte__kernel__tasks_lists__is_the_tail+0x16>
 8001236:	21a5      	movs	r1, #165	; 0xa5
 8001238:	4807      	ldr	r0, [pc, #28]	; (8001258 <marte__kernel__tasks_lists__is_the_tail+0x30>)
 800123a:	f012 f9e9 	bl	8013610 <__gnat_last_chance_handler>
 800123e:	687b      	ldr	r3, [r7, #4]
 8001240:	f8d3 3194 	ldr.w	r3, [r3, #404]	; 0x194
 8001244:	2b00      	cmp	r3, #0
 8001246:	bf0c      	ite	eq
 8001248:	2301      	moveq	r3, #1
 800124a:	2300      	movne	r3, #0
 800124c:	b2db      	uxtb	r3, r3
 800124e:	bf00      	nop
 8001250:	4618      	mov	r0, r3
 8001252:	3708      	adds	r7, #8
 8001254:	46bd      	mov	sp, r7
 8001256:	bd80      	pop	{r7, pc}
 8001258:	0801ebec 	.word	0x0801ebec

0800125c <marte__kernel__tasks_map_lists__enqueue_in_urgency_order_tail__tail.8400>:
 800125c:	b580      	push	{r7, lr}
 800125e:	b084      	sub	sp, #16
 8001260:	af00      	add	r7, sp, #0
 8001262:	6078      	str	r0, [r7, #4]
 8001264:	f8c7 c000 	str.w	ip, [r7]
 8001268:	687b      	ldr	r3, [r7, #4]
 800126a:	60fb      	str	r3, [r7, #12]
 800126c:	687b      	ldr	r3, [r7, #4]
 800126e:	2b00      	cmp	r3, #0
 8001270:	d101      	bne.n	8001276 <marte__kernel__tasks_map_lists__enqueue_in_urgency_order_tail__tail.8400+0x1a>
 8001272:	2300      	movs	r3, #0
 8001274:	e019      	b.n	80012aa <marte__kernel__tasks_map_lists__enqueue_in_urgency_order_tail__tail.8400+0x4e>
 8001276:	68fb      	ldr	r3, [r7, #12]
 8001278:	2b00      	cmp	r3, #0
 800127a:	d103      	bne.n	8001284 <marte__kernel__tasks_map_lists__enqueue_in_urgency_order_tail__tail.8400+0x28>
 800127c:	2154      	movs	r1, #84	; 0x54
 800127e:	480d      	ldr	r0, [pc, #52]	; (80012b4 <marte__kernel__tasks_map_lists__enqueue_in_urgency_order_tail__tail.8400+0x58>)
 8001280:	f012 f9c6 	bl	8013610 <__gnat_last_chance_handler>
 8001284:	68fb      	ldr	r3, [r7, #12]
 8001286:	f8d3 3194 	ldr.w	r3, [r3, #404]	; 0x194
 800128a:	2b00      	cmp	r3, #0
 800128c:	d101      	bne.n	8001292 <marte__kernel__tasks_map_lists__enqueue_in_urgency_order_tail__tail.8400+0x36>
 800128e:	68fb      	ldr	r3, [r7, #12]
 8001290:	e00b      	b.n	80012aa <marte__kernel__tasks_map_lists__enqueue_in_urgency_order_tail__tail.8400+0x4e>
 8001292:	68fb      	ldr	r3, [r7, #12]
 8001294:	2b00      	cmp	r3, #0
 8001296:	d103      	bne.n	80012a0 <marte__kernel__tasks_map_lists__enqueue_in_urgency_order_tail__tail.8400+0x44>
 8001298:	2157      	movs	r1, #87	; 0x57
 800129a:	4806      	ldr	r0, [pc, #24]	; (80012b4 <marte__kernel__tasks_map_lists__enqueue_in_urgency_order_tail__tail.8400+0x58>)
 800129c:	f012 f9b8 	bl	8013610 <__gnat_last_chance_handler>
 80012a0:	68fb      	ldr	r3, [r7, #12]
 80012a2:	f8d3 3194 	ldr.w	r3, [r3, #404]	; 0x194
 80012a6:	60fb      	str	r3, [r7, #12]
 80012a8:	e7e5      	b.n	8001276 <marte__kernel__tasks_map_lists__enqueue_in_urgency_order_tail__tail.8400+0x1a>
 80012aa:	bf00      	nop
 80012ac:	4618      	mov	r0, r3
 80012ae:	3710      	adds	r7, #16
 80012b0:	46bd      	mov	sp, r7
 80012b2:	bd80      	pop	{r7, pc}
 80012b4:	0801ec28 	.word	0x0801ec28

080012b8 <marte__kernel__tasks_map_lists__enqueue_in_urgency_order_tail>:
 80012b8:	b590      	push	{r4, r7, lr}
 80012ba:	b087      	sub	sp, #28
 80012bc:	af00      	add	r7, sp, #0
 80012be:	60f8      	str	r0, [r7, #12]
 80012c0:	60b9      	str	r1, [r7, #8]
 80012c2:	4613      	mov	r3, r2
 80012c4:	71fb      	strb	r3, [r7, #7]
 80012c6:	f107 0328 	add.w	r3, r7, #40	; 0x28
 80012ca:	613b      	str	r3, [r7, #16]
 80012cc:	f107 0310 	add.w	r3, r7, #16
 80012d0:	469c      	mov	ip, r3
 80012d2:	68b8      	ldr	r0, [r7, #8]
 80012d4:	f7ff ffc2 	bl	800125c <marte__kernel__tasks_map_lists__enqueue_in_urgency_order_tail__tail.8400>
 80012d8:	6178      	str	r0, [r7, #20]
 80012da:	697b      	ldr	r3, [r7, #20]
 80012dc:	2b00      	cmp	r3, #0
 80012de:	d10d      	bne.n	80012fc <marte__kernel__tasks_map_lists__enqueue_in_urgency_order_tail+0x44>
 80012e0:	68fb      	ldr	r3, [r7, #12]
 80012e2:	2b00      	cmp	r3, #0
 80012e4:	d103      	bne.n	80012ee <marte__kernel__tasks_map_lists__enqueue_in_urgency_order_tail+0x36>
 80012e6:	2176      	movs	r1, #118	; 0x76
 80012e8:	4829      	ldr	r0, [pc, #164]	; (8001390 <marte__kernel__tasks_map_lists__enqueue_in_urgency_order_tail+0xd8>)
 80012ea:	f012 f991 	bl	8013610 <__gnat_last_chance_handler>
 80012ee:	68fb      	ldr	r3, [r7, #12]
 80012f0:	68ba      	ldr	r2, [r7, #8]
 80012f2:	f8c3 2194 	str.w	r2, [r3, #404]	; 0x194
 80012f6:	68fb      	ldr	r3, [r7, #12]
 80012f8:	60bb      	str	r3, [r7, #8]
 80012fa:	e042      	b.n	8001382 <marte__kernel__tasks_map_lists__enqueue_in_urgency_order_tail+0xca>
 80012fc:	79fc      	ldrb	r4, [r7, #7]
 80012fe:	6979      	ldr	r1, [r7, #20]
 8001300:	68f8      	ldr	r0, [r7, #12]
 8001302:	f001 fe01 	bl	8002f08 <marte__kernel__Ogt__3>
 8001306:	4603      	mov	r3, r0
 8001308:	f083 0301 	eor.w	r3, r3, #1
 800130c:	b2db      	uxtb	r3, r3
 800130e:	4023      	ands	r3, r4
 8001310:	b2db      	uxtb	r3, r3
 8001312:	2b00      	cmp	r3, #0
 8001314:	d10c      	bne.n	8001330 <marte__kernel__tasks_map_lists__enqueue_in_urgency_order_tail+0x78>
 8001316:	79fb      	ldrb	r3, [r7, #7]
 8001318:	f083 0301 	eor.w	r3, r3, #1
 800131c:	b2dc      	uxtb	r4, r3
 800131e:	68f9      	ldr	r1, [r7, #12]
 8001320:	6978      	ldr	r0, [r7, #20]
 8001322:	f001 fdf1 	bl	8002f08 <marte__kernel__Ogt__3>
 8001326:	4603      	mov	r3, r0
 8001328:	4023      	ands	r3, r4
 800132a:	b2db      	uxtb	r3, r3
 800132c:	2b00      	cmp	r3, #0
 800132e:	d01f      	beq.n	8001370 <marte__kernel__tasks_map_lists__enqueue_in_urgency_order_tail+0xb8>
 8001330:	68fb      	ldr	r3, [r7, #12]
 8001332:	2b00      	cmp	r3, #0
 8001334:	d103      	bne.n	800133e <marte__kernel__tasks_map_lists__enqueue_in_urgency_order_tail+0x86>
 8001336:	217e      	movs	r1, #126	; 0x7e
 8001338:	4815      	ldr	r0, [pc, #84]	; (8001390 <marte__kernel__tasks_map_lists__enqueue_in_urgency_order_tail+0xd8>)
 800133a:	f012 f969 	bl	8013610 <__gnat_last_chance_handler>
 800133e:	697b      	ldr	r3, [r7, #20]
 8001340:	2b00      	cmp	r3, #0
 8001342:	d103      	bne.n	800134c <marte__kernel__tasks_map_lists__enqueue_in_urgency_order_tail+0x94>
 8001344:	217e      	movs	r1, #126	; 0x7e
 8001346:	4812      	ldr	r0, [pc, #72]	; (8001390 <marte__kernel__tasks_map_lists__enqueue_in_urgency_order_tail+0xd8>)
 8001348:	f012 f962 	bl	8013610 <__gnat_last_chance_handler>
 800134c:	697b      	ldr	r3, [r7, #20]
 800134e:	f8d3 2194 	ldr.w	r2, [r3, #404]	; 0x194
 8001352:	68fb      	ldr	r3, [r7, #12]
 8001354:	f8c3 2194 	str.w	r2, [r3, #404]	; 0x194
 8001358:	697b      	ldr	r3, [r7, #20]
 800135a:	2b00      	cmp	r3, #0
 800135c:	d103      	bne.n	8001366 <marte__kernel__tasks_map_lists__enqueue_in_urgency_order_tail+0xae>
 800135e:	217f      	movs	r1, #127	; 0x7f
 8001360:	480b      	ldr	r0, [pc, #44]	; (8001390 <marte__kernel__tasks_map_lists__enqueue_in_urgency_order_tail+0xd8>)
 8001362:	f012 f955 	bl	8013610 <__gnat_last_chance_handler>
 8001366:	697b      	ldr	r3, [r7, #20]
 8001368:	68fa      	ldr	r2, [r7, #12]
 800136a:	f8c3 2194 	str.w	r2, [r3, #404]	; 0x194
 800136e:	e008      	b.n	8001382 <marte__kernel__tasks_map_lists__enqueue_in_urgency_order_tail+0xca>
 8001370:	f107 0310 	add.w	r3, r7, #16
 8001374:	469c      	mov	ip, r3
 8001376:	6979      	ldr	r1, [r7, #20]
 8001378:	68b8      	ldr	r0, [r7, #8]
 800137a:	f000 f80b 	bl	8001394 <marte__kernel__tasks_map_lists__enqueue_in_urgency_order_tail__previous.8404>
 800137e:	6178      	str	r0, [r7, #20]
 8001380:	e7ab      	b.n	80012da <marte__kernel__tasks_map_lists__enqueue_in_urgency_order_tail+0x22>
 8001382:	68bb      	ldr	r3, [r7, #8]
 8001384:	bf00      	nop
 8001386:	4618      	mov	r0, r3
 8001388:	371c      	adds	r7, #28
 800138a:	46bd      	mov	sp, r7
 800138c:	bd90      	pop	{r4, r7, pc}
 800138e:	bf00      	nop
 8001390:	0801ec28 	.word	0x0801ec28

08001394 <marte__kernel__tasks_map_lists__enqueue_in_urgency_order_tail__previous.8404>:
 8001394:	b580      	push	{r7, lr}
 8001396:	b086      	sub	sp, #24
 8001398:	af00      	add	r7, sp, #0
 800139a:	60f8      	str	r0, [r7, #12]
 800139c:	60b9      	str	r1, [r7, #8]
 800139e:	f8c7 c004 	str.w	ip, [r7, #4]
 80013a2:	68fb      	ldr	r3, [r7, #12]
 80013a4:	617b      	str	r3, [r7, #20]
 80013a6:	697a      	ldr	r2, [r7, #20]
 80013a8:	68bb      	ldr	r3, [r7, #8]
 80013aa:	429a      	cmp	r2, r3
 80013ac:	d101      	bne.n	80013b2 <marte__kernel__tasks_map_lists__enqueue_in_urgency_order_tail__previous.8404+0x1e>
 80013ae:	2300      	movs	r3, #0
 80013b0:	e01e      	b.n	80013f0 <marte__kernel__tasks_map_lists__enqueue_in_urgency_order_tail__previous.8404+0x5c>
 80013b2:	697b      	ldr	r3, [r7, #20]
 80013b4:	2b00      	cmp	r3, #0
 80013b6:	d01a      	beq.n	80013ee <marte__kernel__tasks_map_lists__enqueue_in_urgency_order_tail__previous.8404+0x5a>
 80013b8:	697b      	ldr	r3, [r7, #20]
 80013ba:	2b00      	cmp	r3, #0
 80013bc:	d103      	bne.n	80013c6 <marte__kernel__tasks_map_lists__enqueue_in_urgency_order_tail__previous.8404+0x32>
 80013be:	2167      	movs	r1, #103	; 0x67
 80013c0:	480e      	ldr	r0, [pc, #56]	; (80013fc <marte__kernel__tasks_map_lists__enqueue_in_urgency_order_tail__previous.8404+0x68>)
 80013c2:	f012 f925 	bl	8013610 <__gnat_last_chance_handler>
 80013c6:	697b      	ldr	r3, [r7, #20]
 80013c8:	f8d3 3194 	ldr.w	r3, [r3, #404]	; 0x194
 80013cc:	68ba      	ldr	r2, [r7, #8]
 80013ce:	429a      	cmp	r2, r3
 80013d0:	d101      	bne.n	80013d6 <marte__kernel__tasks_map_lists__enqueue_in_urgency_order_tail__previous.8404+0x42>
 80013d2:	697b      	ldr	r3, [r7, #20]
 80013d4:	e00c      	b.n	80013f0 <marte__kernel__tasks_map_lists__enqueue_in_urgency_order_tail__previous.8404+0x5c>
 80013d6:	697b      	ldr	r3, [r7, #20]
 80013d8:	2b00      	cmp	r3, #0
 80013da:	d103      	bne.n	80013e4 <marte__kernel__tasks_map_lists__enqueue_in_urgency_order_tail__previous.8404+0x50>
 80013dc:	216a      	movs	r1, #106	; 0x6a
 80013de:	4807      	ldr	r0, [pc, #28]	; (80013fc <marte__kernel__tasks_map_lists__enqueue_in_urgency_order_tail__previous.8404+0x68>)
 80013e0:	f012 f916 	bl	8013610 <__gnat_last_chance_handler>
 80013e4:	697b      	ldr	r3, [r7, #20]
 80013e6:	f8d3 3194 	ldr.w	r3, [r3, #404]	; 0x194
 80013ea:	617b      	str	r3, [r7, #20]
 80013ec:	e7e1      	b.n	80013b2 <marte__kernel__tasks_map_lists__enqueue_in_urgency_order_tail__previous.8404+0x1e>
 80013ee:	2300      	movs	r3, #0
 80013f0:	bf00      	nop
 80013f2:	4618      	mov	r0, r3
 80013f4:	3718      	adds	r7, #24
 80013f6:	46bd      	mov	sp, r7
 80013f8:	bd80      	pop	{r7, pc}
 80013fa:	bf00      	nop
 80013fc:	0801ec28 	.word	0x0801ec28

08001400 <marte__kernel__tasks_map_lists__enqueue_in_urgency_order_head>:
 8001400:	b580      	push	{r7, lr}
 8001402:	b084      	sub	sp, #16
 8001404:	af00      	add	r7, sp, #0
 8001406:	6078      	str	r0, [r7, #4]
 8001408:	6039      	str	r1, [r7, #0]
 800140a:	683b      	ldr	r3, [r7, #0]
 800140c:	60fb      	str	r3, [r7, #12]
 800140e:	683b      	ldr	r3, [r7, #0]
 8001410:	2b00      	cmp	r3, #0
 8001412:	d009      	beq.n	8001428 <marte__kernel__tasks_map_lists__enqueue_in_urgency_order_head+0x28>
 8001414:	6879      	ldr	r1, [r7, #4]
 8001416:	68f8      	ldr	r0, [r7, #12]
 8001418:	f001 fd76 	bl	8002f08 <marte__kernel__Ogt__3>
 800141c:	4603      	mov	r3, r0
 800141e:	f083 0301 	eor.w	r3, r3, #1
 8001422:	b2db      	uxtb	r3, r3
 8001424:	2b00      	cmp	r3, #0
 8001426:	d00d      	beq.n	8001444 <marte__kernel__tasks_map_lists__enqueue_in_urgency_order_head+0x44>
 8001428:	687b      	ldr	r3, [r7, #4]
 800142a:	603b      	str	r3, [r7, #0]
 800142c:	687b      	ldr	r3, [r7, #4]
 800142e:	2b00      	cmp	r3, #0
 8001430:	d103      	bne.n	800143a <marte__kernel__tasks_map_lists__enqueue_in_urgency_order_head+0x3a>
 8001432:	2196      	movs	r1, #150	; 0x96
 8001434:	482f      	ldr	r0, [pc, #188]	; (80014f4 <marte__kernel__tasks_map_lists__enqueue_in_urgency_order_head+0xf4>)
 8001436:	f012 f8eb 	bl	8013610 <__gnat_last_chance_handler>
 800143a:	687b      	ldr	r3, [r7, #4]
 800143c:	68fa      	ldr	r2, [r7, #12]
 800143e:	f8c3 2194 	str.w	r2, [r3, #404]	; 0x194
 8001442:	e050      	b.n	80014e6 <marte__kernel__tasks_map_lists__enqueue_in_urgency_order_head+0xe6>
 8001444:	68fb      	ldr	r3, [r7, #12]
 8001446:	2b00      	cmp	r3, #0
 8001448:	d103      	bne.n	8001452 <marte__kernel__tasks_map_lists__enqueue_in_urgency_order_head+0x52>
 800144a:	219d      	movs	r1, #157	; 0x9d
 800144c:	4829      	ldr	r0, [pc, #164]	; (80014f4 <marte__kernel__tasks_map_lists__enqueue_in_urgency_order_head+0xf4>)
 800144e:	f012 f8df 	bl	8013610 <__gnat_last_chance_handler>
 8001452:	68fb      	ldr	r3, [r7, #12]
 8001454:	f8d3 3194 	ldr.w	r3, [r3, #404]	; 0x194
 8001458:	2b00      	cmp	r3, #0
 800145a:	bf0c      	ite	eq
 800145c:	2301      	moveq	r3, #1
 800145e:	2300      	movne	r3, #0
 8001460:	b2db      	uxtb	r3, r3
 8001462:	2b00      	cmp	r3, #0
 8001464:	d113      	bne.n	800148e <marte__kernel__tasks_map_lists__enqueue_in_urgency_order_head+0x8e>
 8001466:	68fb      	ldr	r3, [r7, #12]
 8001468:	2b00      	cmp	r3, #0
 800146a:	d103      	bne.n	8001474 <marte__kernel__tasks_map_lists__enqueue_in_urgency_order_head+0x74>
 800146c:	219d      	movs	r1, #157	; 0x9d
 800146e:	4821      	ldr	r0, [pc, #132]	; (80014f4 <marte__kernel__tasks_map_lists__enqueue_in_urgency_order_head+0xf4>)
 8001470:	f012 f8ce 	bl	8013610 <__gnat_last_chance_handler>
 8001474:	68fb      	ldr	r3, [r7, #12]
 8001476:	f8d3 3194 	ldr.w	r3, [r3, #404]	; 0x194
 800147a:	6879      	ldr	r1, [r7, #4]
 800147c:	4618      	mov	r0, r3
 800147e:	f001 fd43 	bl	8002f08 <marte__kernel__Ogt__3>
 8001482:	4603      	mov	r3, r0
 8001484:	f083 0301 	eor.w	r3, r3, #1
 8001488:	b2db      	uxtb	r3, r3
 800148a:	2b00      	cmp	r3, #0
 800148c:	d01f      	beq.n	80014ce <marte__kernel__tasks_map_lists__enqueue_in_urgency_order_head+0xce>
 800148e:	687b      	ldr	r3, [r7, #4]
 8001490:	2b00      	cmp	r3, #0
 8001492:	d103      	bne.n	800149c <marte__kernel__tasks_map_lists__enqueue_in_urgency_order_head+0x9c>
 8001494:	21a0      	movs	r1, #160	; 0xa0
 8001496:	4817      	ldr	r0, [pc, #92]	; (80014f4 <marte__kernel__tasks_map_lists__enqueue_in_urgency_order_head+0xf4>)
 8001498:	f012 f8ba 	bl	8013610 <__gnat_last_chance_handler>
 800149c:	68fb      	ldr	r3, [r7, #12]
 800149e:	2b00      	cmp	r3, #0
 80014a0:	d103      	bne.n	80014aa <marte__kernel__tasks_map_lists__enqueue_in_urgency_order_head+0xaa>
 80014a2:	21a0      	movs	r1, #160	; 0xa0
 80014a4:	4813      	ldr	r0, [pc, #76]	; (80014f4 <marte__kernel__tasks_map_lists__enqueue_in_urgency_order_head+0xf4>)
 80014a6:	f012 f8b3 	bl	8013610 <__gnat_last_chance_handler>
 80014aa:	68fb      	ldr	r3, [r7, #12]
 80014ac:	f8d3 2194 	ldr.w	r2, [r3, #404]	; 0x194
 80014b0:	687b      	ldr	r3, [r7, #4]
 80014b2:	f8c3 2194 	str.w	r2, [r3, #404]	; 0x194
 80014b6:	68fb      	ldr	r3, [r7, #12]
 80014b8:	2b00      	cmp	r3, #0
 80014ba:	d103      	bne.n	80014c4 <marte__kernel__tasks_map_lists__enqueue_in_urgency_order_head+0xc4>
 80014bc:	21a1      	movs	r1, #161	; 0xa1
 80014be:	480d      	ldr	r0, [pc, #52]	; (80014f4 <marte__kernel__tasks_map_lists__enqueue_in_urgency_order_head+0xf4>)
 80014c0:	f012 f8a6 	bl	8013610 <__gnat_last_chance_handler>
 80014c4:	68fb      	ldr	r3, [r7, #12]
 80014c6:	687a      	ldr	r2, [r7, #4]
 80014c8:	f8c3 2194 	str.w	r2, [r3, #404]	; 0x194
 80014cc:	e00b      	b.n	80014e6 <marte__kernel__tasks_map_lists__enqueue_in_urgency_order_head+0xe6>
 80014ce:	68fb      	ldr	r3, [r7, #12]
 80014d0:	2b00      	cmp	r3, #0
 80014d2:	d103      	bne.n	80014dc <marte__kernel__tasks_map_lists__enqueue_in_urgency_order_head+0xdc>
 80014d4:	21a5      	movs	r1, #165	; 0xa5
 80014d6:	4807      	ldr	r0, [pc, #28]	; (80014f4 <marte__kernel__tasks_map_lists__enqueue_in_urgency_order_head+0xf4>)
 80014d8:	f012 f89a 	bl	8013610 <__gnat_last_chance_handler>
 80014dc:	68fb      	ldr	r3, [r7, #12]
 80014de:	f8d3 3194 	ldr.w	r3, [r3, #404]	; 0x194
 80014e2:	60fb      	str	r3, [r7, #12]
 80014e4:	e7ae      	b.n	8001444 <marte__kernel__tasks_map_lists__enqueue_in_urgency_order_head+0x44>
 80014e6:	683b      	ldr	r3, [r7, #0]
 80014e8:	bf00      	nop
 80014ea:	4618      	mov	r0, r3
 80014ec:	3710      	adds	r7, #16
 80014ee:	46bd      	mov	sp, r7
 80014f0:	bd80      	pop	{r7, pc}
 80014f2:	bf00      	nop
 80014f4:	0801ec28 	.word	0x0801ec28

080014f8 <marte__kernel__tasks_map_lists__initialize>:
 80014f8:	b590      	push	{r4, r7, lr}
 80014fa:	b085      	sub	sp, #20
 80014fc:	af00      	add	r7, sp, #0
 80014fe:	6078      	str	r0, [r7, #4]
 8001500:	2300      	movs	r3, #0
 8001502:	60fb      	str	r3, [r7, #12]
 8001504:	68fb      	ldr	r3, [r7, #12]
 8001506:	2b03      	cmp	r3, #3
 8001508:	d808      	bhi.n	800151c <marte__kernel__tasks_map_lists__initialize+0x24>
 800150a:	687b      	ldr	r3, [r7, #4]
 800150c:	68fa      	ldr	r2, [r7, #12]
 800150e:	2100      	movs	r1, #0
 8001510:	f843 1022 	str.w	r1, [r3, r2, lsl #2]
 8001514:	68fb      	ldr	r3, [r7, #12]
 8001516:	3301      	adds	r3, #1
 8001518:	60fb      	str	r3, [r7, #12]
 800151a:	e7f3      	b.n	8001504 <marte__kernel__tasks_map_lists__initialize+0xc>
 800151c:	2300      	movs	r3, #0
 800151e:	60bb      	str	r3, [r7, #8]
 8001520:	68bb      	ldr	r3, [r7, #8]
 8001522:	2b62      	cmp	r3, #98	; 0x62
 8001524:	dc12      	bgt.n	800154c <marte__kernel__tasks_map_lists__initialize+0x54>
 8001526:	68b9      	ldr	r1, [r7, #8]
 8001528:	460a      	mov	r2, r1
 800152a:	687b      	ldr	r3, [r7, #4]
 800152c:	3204      	adds	r2, #4
 800152e:	f853 3022 	ldr.w	r3, [r3, r2, lsl #2]
 8001532:	460c      	mov	r4, r1
 8001534:	4618      	mov	r0, r3
 8001536:	f7ff fd69 	bl	800100c <marte__kernel__tasks_lists__initialize>
 800153a:	4601      	mov	r1, r0
 800153c:	687b      	ldr	r3, [r7, #4]
 800153e:	1d22      	adds	r2, r4, #4
 8001540:	f843 1022 	str.w	r1, [r3, r2, lsl #2]
 8001544:	68bb      	ldr	r3, [r7, #8]
 8001546:	3301      	adds	r3, #1
 8001548:	60bb      	str	r3, [r7, #8]
 800154a:	e7e9      	b.n	8001520 <marte__kernel__tasks_map_lists__initialize+0x28>
 800154c:	687b      	ldr	r3, [r7, #4]
 800154e:	2200      	movs	r2, #0
 8001550:	f8c3 219c 	str.w	r2, [r3, #412]	; 0x19c
 8001554:	3714      	adds	r7, #20
 8001556:	46bd      	mov	sp, r7
 8001558:	bd90      	pop	{r4, r7, pc}
 800155a:	bf00      	nop

0800155c <marte__kernel__tasks_map_lists__set_last_element>:
 800155c:	b480      	push	{r7}
 800155e:	b083      	sub	sp, #12
 8001560:	af00      	add	r7, sp, #0
 8001562:	6078      	str	r0, [r7, #4]
 8001564:	6039      	str	r1, [r7, #0]
 8001566:	683b      	ldr	r3, [r7, #0]
 8001568:	687a      	ldr	r2, [r7, #4]
 800156a:	f8c3 219c 	str.w	r2, [r3, #412]	; 0x19c
 800156e:	370c      	adds	r7, #12
 8001570:	46bd      	mov	sp, r7
 8001572:	f85d 7b04 	ldr.w	r7, [sp], #4
 8001576:	4770      	bx	lr

08001578 <marte__kernel__tasks_map_lists__enqueue_in_order>:
 8001578:	b590      	push	{r4, r7, lr}
 800157a:	b087      	sub	sp, #28
 800157c:	af00      	add	r7, sp, #0
 800157e:	6078      	str	r0, [r7, #4]
 8001580:	6039      	str	r1, [r7, #0]
 8001582:	6878      	ldr	r0, [r7, #4]
 8001584:	f001 fd48 	bl	8003018 <marte__kernel__get_active_prio>
 8001588:	4603      	mov	r3, r0
 800158a:	461a      	mov	r2, r3
 800158c:	683b      	ldr	r3, [r7, #0]
 800158e:	3204      	adds	r2, #4
 8001590:	f853 3022 	ldr.w	r3, [r3, r2, lsl #2]
 8001594:	4618      	mov	r0, r3
 8001596:	f7ff fe35 	bl	8001204 <marte__kernel__tasks_lists__is_empty>
 800159a:	4603      	mov	r3, r0
 800159c:	2b00      	cmp	r3, #0
 800159e:	d041      	beq.n	8001624 <marte__kernel__tasks_map_lists__enqueue_in_order+0xac>
 80015a0:	6878      	ldr	r0, [r7, #4]
 80015a2:	f001 fd39 	bl	8003018 <marte__kernel__get_active_prio>
 80015a6:	4603      	mov	r3, r0
 80015a8:	095b      	lsrs	r3, r3, #5
 80015aa:	617b      	str	r3, [r7, #20]
 80015ac:	6878      	ldr	r0, [r7, #4]
 80015ae:	f001 fd33 	bl	8003018 <marte__kernel__get_active_prio>
 80015b2:	4603      	mov	r3, r0
 80015b4:	f003 031f 	and.w	r3, r3, #31
 80015b8:	613b      	str	r3, [r7, #16]
 80015ba:	697b      	ldr	r3, [r7, #20]
 80015bc:	2b03      	cmp	r3, #3
 80015be:	d903      	bls.n	80015c8 <marte__kernel__tasks_map_lists__enqueue_in_order+0x50>
 80015c0:	21cc      	movs	r1, #204	; 0xcc
 80015c2:	4827      	ldr	r0, [pc, #156]	; (8001660 <marte__kernel__tasks_map_lists__enqueue_in_order+0xe8>)
 80015c4:	f012 f824 	bl	8013610 <__gnat_last_chance_handler>
 80015c8:	697c      	ldr	r4, [r7, #20]
 80015ca:	683b      	ldr	r3, [r7, #0]
 80015cc:	f853 3024 	ldr.w	r3, [r3, r4, lsl #2]
 80015d0:	60fb      	str	r3, [r7, #12]
 80015d2:	693b      	ldr	r3, [r7, #16]
 80015d4:	60bb      	str	r3, [r7, #8]
 80015d6:	68b8      	ldr	r0, [r7, #8]
 80015d8:	f001 ff32 	bl	8003440 <set__bit__from__zeros>
 80015dc:	4602      	mov	r2, r0
 80015de:	68fb      	ldr	r3, [r7, #12]
 80015e0:	ea43 0302 	orr.w	r3, r3, r2
 80015e4:	60fb      	str	r3, [r7, #12]
 80015e6:	68fa      	ldr	r2, [r7, #12]
 80015e8:	683b      	ldr	r3, [r7, #0]
 80015ea:	f843 2024 	str.w	r2, [r3, r4, lsl #2]
 80015ee:	6878      	ldr	r0, [r7, #4]
 80015f0:	f001 fd12 	bl	8003018 <marte__kernel__get_active_prio>
 80015f4:	4601      	mov	r1, r0
 80015f6:	460b      	mov	r3, r1
 80015f8:	2b62      	cmp	r3, #98	; 0x62
 80015fa:	d903      	bls.n	8001604 <marte__kernel__tasks_map_lists__enqueue_in_order+0x8c>
 80015fc:	21ce      	movs	r1, #206	; 0xce
 80015fe:	4818      	ldr	r0, [pc, #96]	; (8001660 <marte__kernel__tasks_map_lists__enqueue_in_order+0xe8>)
 8001600:	f012 f806 	bl	8013610 <__gnat_last_chance_handler>
 8001604:	460a      	mov	r2, r1
 8001606:	683b      	ldr	r3, [r7, #0]
 8001608:	3204      	adds	r2, #4
 800160a:	f853 3022 	ldr.w	r3, [r3, r2, lsl #2]
 800160e:	460c      	mov	r4, r1
 8001610:	4619      	mov	r1, r3
 8001612:	6878      	ldr	r0, [r7, #4]
 8001614:	f7ff fd08 	bl	8001028 <marte__kernel__tasks_lists__enqueue_head>
 8001618:	4601      	mov	r1, r0
 800161a:	683b      	ldr	r3, [r7, #0]
 800161c:	1d22      	adds	r2, r4, #4
 800161e:	f843 1022 	str.w	r1, [r3, r2, lsl #2]
 8001622:	e01a      	b.n	800165a <marte__kernel__tasks_map_lists__enqueue_in_order+0xe2>
 8001624:	6878      	ldr	r0, [r7, #4]
 8001626:	f001 fcf7 	bl	8003018 <marte__kernel__get_active_prio>
 800162a:	4601      	mov	r1, r0
 800162c:	460b      	mov	r3, r1
 800162e:	2b62      	cmp	r3, #98	; 0x62
 8001630:	d903      	bls.n	800163a <marte__kernel__tasks_map_lists__enqueue_in_order+0xc2>
 8001632:	21d5      	movs	r1, #213	; 0xd5
 8001634:	480a      	ldr	r0, [pc, #40]	; (8001660 <marte__kernel__tasks_map_lists__enqueue_in_order+0xe8>)
 8001636:	f011 ffeb 	bl	8013610 <__gnat_last_chance_handler>
 800163a:	460a      	mov	r2, r1
 800163c:	683b      	ldr	r3, [r7, #0]
 800163e:	3204      	adds	r2, #4
 8001640:	f853 3022 	ldr.w	r3, [r3, r2, lsl #2]
 8001644:	460c      	mov	r4, r1
 8001646:	2201      	movs	r2, #1
 8001648:	4619      	mov	r1, r3
 800164a:	6878      	ldr	r0, [r7, #4]
 800164c:	f7ff fe34 	bl	80012b8 <marte__kernel__tasks_map_lists__enqueue_in_urgency_order_tail>
 8001650:	4601      	mov	r1, r0
 8001652:	683b      	ldr	r3, [r7, #0]
 8001654:	1d22      	adds	r2, r4, #4
 8001656:	f843 1022 	str.w	r1, [r3, r2, lsl #2]
 800165a:	371c      	adds	r7, #28
 800165c:	46bd      	mov	sp, r7
 800165e:	bd90      	pop	{r4, r7, pc}
 8001660:	0801ec28 	.word	0x0801ec28

08001664 <marte__kernel__tasks_map_lists__enqueue_first_in_priority>:
 8001664:	b590      	push	{r4, r7, lr}
 8001666:	b087      	sub	sp, #28
 8001668:	af00      	add	r7, sp, #0
 800166a:	6078      	str	r0, [r7, #4]
 800166c:	6039      	str	r1, [r7, #0]
 800166e:	6878      	ldr	r0, [r7, #4]
 8001670:	f001 fcd2 	bl	8003018 <marte__kernel__get_active_prio>
 8001674:	4603      	mov	r3, r0
 8001676:	461a      	mov	r2, r3
 8001678:	683b      	ldr	r3, [r7, #0]
 800167a:	3204      	adds	r2, #4
 800167c:	f853 3022 	ldr.w	r3, [r3, r2, lsl #2]
 8001680:	4618      	mov	r0, r3
 8001682:	f7ff fdbf 	bl	8001204 <marte__kernel__tasks_lists__is_empty>
 8001686:	4603      	mov	r3, r0
 8001688:	2b00      	cmp	r3, #0
 800168a:	d026      	beq.n	80016da <marte__kernel__tasks_map_lists__enqueue_first_in_priority+0x76>
 800168c:	6878      	ldr	r0, [r7, #4]
 800168e:	f001 fcc3 	bl	8003018 <marte__kernel__get_active_prio>
 8001692:	4603      	mov	r3, r0
 8001694:	095b      	lsrs	r3, r3, #5
 8001696:	617b      	str	r3, [r7, #20]
 8001698:	6878      	ldr	r0, [r7, #4]
 800169a:	f001 fcbd 	bl	8003018 <marte__kernel__get_active_prio>
 800169e:	4603      	mov	r3, r0
 80016a0:	f003 031f 	and.w	r3, r3, #31
 80016a4:	613b      	str	r3, [r7, #16]
 80016a6:	697b      	ldr	r3, [r7, #20]
 80016a8:	2b03      	cmp	r3, #3
 80016aa:	d903      	bls.n	80016b4 <marte__kernel__tasks_map_lists__enqueue_first_in_priority+0x50>
 80016ac:	21e5      	movs	r1, #229	; 0xe5
 80016ae:	4819      	ldr	r0, [pc, #100]	; (8001714 <marte__kernel__tasks_map_lists__enqueue_first_in_priority+0xb0>)
 80016b0:	f011 ffae 	bl	8013610 <__gnat_last_chance_handler>
 80016b4:	697c      	ldr	r4, [r7, #20]
 80016b6:	683b      	ldr	r3, [r7, #0]
 80016b8:	f853 3024 	ldr.w	r3, [r3, r4, lsl #2]
 80016bc:	60fb      	str	r3, [r7, #12]
 80016be:	693b      	ldr	r3, [r7, #16]
 80016c0:	60bb      	str	r3, [r7, #8]
 80016c2:	68b8      	ldr	r0, [r7, #8]
 80016c4:	f001 febc 	bl	8003440 <set__bit__from__zeros>
 80016c8:	4602      	mov	r2, r0
 80016ca:	68fb      	ldr	r3, [r7, #12]
 80016cc:	ea43 0302 	orr.w	r3, r3, r2
 80016d0:	60fb      	str	r3, [r7, #12]
 80016d2:	68fa      	ldr	r2, [r7, #12]
 80016d4:	683b      	ldr	r3, [r7, #0]
 80016d6:	f843 2024 	str.w	r2, [r3, r4, lsl #2]
 80016da:	6878      	ldr	r0, [r7, #4]
 80016dc:	f001 fc9c 	bl	8003018 <marte__kernel__get_active_prio>
 80016e0:	4601      	mov	r1, r0
 80016e2:	460b      	mov	r3, r1
 80016e4:	2b62      	cmp	r3, #98	; 0x62
 80016e6:	d903      	bls.n	80016f0 <marte__kernel__tasks_map_lists__enqueue_first_in_priority+0x8c>
 80016e8:	21ee      	movs	r1, #238	; 0xee
 80016ea:	480a      	ldr	r0, [pc, #40]	; (8001714 <marte__kernel__tasks_map_lists__enqueue_first_in_priority+0xb0>)
 80016ec:	f011 ff90 	bl	8013610 <__gnat_last_chance_handler>
 80016f0:	460a      	mov	r2, r1
 80016f2:	683b      	ldr	r3, [r7, #0]
 80016f4:	3204      	adds	r2, #4
 80016f6:	f853 3022 	ldr.w	r3, [r3, r2, lsl #2]
 80016fa:	460c      	mov	r4, r1
 80016fc:	4619      	mov	r1, r3
 80016fe:	6878      	ldr	r0, [r7, #4]
 8001700:	f7ff fe7e 	bl	8001400 <marte__kernel__tasks_map_lists__enqueue_in_urgency_order_head>
 8001704:	4601      	mov	r1, r0
 8001706:	683b      	ldr	r3, [r7, #0]
 8001708:	1d22      	adds	r2, r4, #4
 800170a:	f843 1022 	str.w	r1, [r3, r2, lsl #2]
 800170e:	371c      	adds	r7, #28
 8001710:	46bd      	mov	sp, r7
 8001712:	bd90      	pop	{r4, r7, pc}
 8001714:	0801ec28 	.word	0x0801ec28

08001718 <marte__kernel__tasks_map_lists__dequeue_first_in_priority>:
 8001718:	b590      	push	{r4, r7, lr}
 800171a:	b087      	sub	sp, #28
 800171c:	af00      	add	r7, sp, #0
 800171e:	6078      	str	r0, [r7, #4]
 8001720:	6039      	str	r1, [r7, #0]
 8001722:	6878      	ldr	r0, [r7, #4]
 8001724:	f7ff fd80 	bl	8001228 <marte__kernel__tasks_lists__is_the_tail>
 8001728:	4603      	mov	r3, r0
 800172a:	2b00      	cmp	r3, #0
 800172c:	d026      	beq.n	800177c <marte__kernel__tasks_map_lists__dequeue_first_in_priority+0x64>
 800172e:	6878      	ldr	r0, [r7, #4]
 8001730:	f001 fc72 	bl	8003018 <marte__kernel__get_active_prio>
 8001734:	4603      	mov	r3, r0
 8001736:	095b      	lsrs	r3, r3, #5
 8001738:	617b      	str	r3, [r7, #20]
 800173a:	6878      	ldr	r0, [r7, #4]
 800173c:	f001 fc6c 	bl	8003018 <marte__kernel__get_active_prio>
 8001740:	4603      	mov	r3, r0
 8001742:	f003 031f 	and.w	r3, r3, #31
 8001746:	613b      	str	r3, [r7, #16]
 8001748:	697b      	ldr	r3, [r7, #20]
 800174a:	2b03      	cmp	r3, #3
 800174c:	d903      	bls.n	8001756 <marte__kernel__tasks_map_lists__dequeue_first_in_priority+0x3e>
 800174e:	21ff      	movs	r1, #255	; 0xff
 8001750:	4819      	ldr	r0, [pc, #100]	; (80017b8 <marte__kernel__tasks_map_lists__dequeue_first_in_priority+0xa0>)
 8001752:	f011 ff5d 	bl	8013610 <__gnat_last_chance_handler>
 8001756:	697c      	ldr	r4, [r7, #20]
 8001758:	683b      	ldr	r3, [r7, #0]
 800175a:	f853 3024 	ldr.w	r3, [r3, r4, lsl #2]
 800175e:	60fb      	str	r3, [r7, #12]
 8001760:	693b      	ldr	r3, [r7, #16]
 8001762:	60bb      	str	r3, [r7, #8]
 8001764:	68b8      	ldr	r0, [r7, #8]
 8001766:	f001 fe6b 	bl	8003440 <set__bit__from__zeros>
 800176a:	4602      	mov	r2, r0
 800176c:	68fb      	ldr	r3, [r7, #12]
 800176e:	ea23 0302 	bic.w	r3, r3, r2
 8001772:	60fb      	str	r3, [r7, #12]
 8001774:	68fa      	ldr	r2, [r7, #12]
 8001776:	683b      	ldr	r3, [r7, #0]
 8001778:	f843 2024 	str.w	r2, [r3, r4, lsl #2]
 800177c:	6878      	ldr	r0, [r7, #4]
 800177e:	f001 fc4b 	bl	8003018 <marte__kernel__get_active_prio>
 8001782:	4601      	mov	r1, r0
 8001784:	460b      	mov	r3, r1
 8001786:	2b62      	cmp	r3, #98	; 0x62
 8001788:	d904      	bls.n	8001794 <marte__kernel__tasks_map_lists__dequeue_first_in_priority+0x7c>
 800178a:	f44f 7181 	mov.w	r1, #258	; 0x102
 800178e:	480a      	ldr	r0, [pc, #40]	; (80017b8 <marte__kernel__tasks_map_lists__dequeue_first_in_priority+0xa0>)
 8001790:	f011 ff3e 	bl	8013610 <__gnat_last_chance_handler>
 8001794:	460a      	mov	r2, r1
 8001796:	683b      	ldr	r3, [r7, #0]
 8001798:	3204      	adds	r2, #4
 800179a:	f853 3022 	ldr.w	r3, [r3, r2, lsl #2]
 800179e:	460c      	mov	r4, r1
 80017a0:	4618      	mov	r0, r3
 80017a2:	f7ff fcab 	bl	80010fc <marte__kernel__tasks_lists__dequeue_head>
 80017a6:	4601      	mov	r1, r0
 80017a8:	683b      	ldr	r3, [r7, #0]
 80017aa:	1d22      	adds	r2, r4, #4
 80017ac:	f843 1022 	str.w	r1, [r3, r2, lsl #2]
 80017b0:	371c      	adds	r7, #28
 80017b2:	46bd      	mov	sp, r7
 80017b4:	bd90      	pop	{r4, r7, pc}
 80017b6:	bf00      	nop
 80017b8:	0801ec28 	.word	0x0801ec28

080017bc <marte__kernel__tasks_map_lists__dequeue_head>:
 80017bc:	b580      	push	{r7, lr}
 80017be:	b082      	sub	sp, #8
 80017c0:	af00      	add	r7, sp, #0
 80017c2:	6078      	str	r0, [r7, #4]
 80017c4:	6039      	str	r1, [r7, #0]
 80017c6:	6839      	ldr	r1, [r7, #0]
 80017c8:	6878      	ldr	r0, [r7, #4]
 80017ca:	f7ff ffa5 	bl	8001718 <marte__kernel__tasks_map_lists__dequeue_first_in_priority>
 80017ce:	3708      	adds	r7, #8
 80017d0:	46bd      	mov	sp, r7
 80017d2:	bd80      	pop	{r7, pc}

080017d4 <marte__kernel__tasks_map_lists__dequeue>:
 80017d4:	b590      	push	{r4, r7, lr}
 80017d6:	b087      	sub	sp, #28
 80017d8:	af00      	add	r7, sp, #0
 80017da:	6078      	str	r0, [r7, #4]
 80017dc:	6039      	str	r1, [r7, #0]
 80017de:	6878      	ldr	r0, [r7, #4]
 80017e0:	f001 fc1a 	bl	8003018 <marte__kernel__get_active_prio>
 80017e4:	4601      	mov	r1, r0
 80017e6:	460b      	mov	r3, r1
 80017e8:	2b62      	cmp	r3, #98	; 0x62
 80017ea:	d904      	bls.n	80017f6 <marte__kernel__tasks_map_lists__dequeue+0x22>
 80017ec:	f44f 718b 	mov.w	r1, #278	; 0x116
 80017f0:	4825      	ldr	r0, [pc, #148]	; (8001888 <marte__kernel__tasks_map_lists__dequeue+0xb4>)
 80017f2:	f011 ff0d 	bl	8013610 <__gnat_last_chance_handler>
 80017f6:	460a      	mov	r2, r1
 80017f8:	683b      	ldr	r3, [r7, #0]
 80017fa:	3204      	adds	r2, #4
 80017fc:	f853 3022 	ldr.w	r3, [r3, r2, lsl #2]
 8001800:	460c      	mov	r4, r1
 8001802:	4619      	mov	r1, r3
 8001804:	6878      	ldr	r0, [r7, #4]
 8001806:	f7ff fc9d 	bl	8001144 <marte__kernel__tasks_lists__dequeue>
 800180a:	4601      	mov	r1, r0
 800180c:	683b      	ldr	r3, [r7, #0]
 800180e:	1d22      	adds	r2, r4, #4
 8001810:	f843 1022 	str.w	r1, [r3, r2, lsl #2]
 8001814:	6878      	ldr	r0, [r7, #4]
 8001816:	f001 fbff 	bl	8003018 <marte__kernel__get_active_prio>
 800181a:	4603      	mov	r3, r0
 800181c:	461a      	mov	r2, r3
 800181e:	683b      	ldr	r3, [r7, #0]
 8001820:	3204      	adds	r2, #4
 8001822:	f853 3022 	ldr.w	r3, [r3, r2, lsl #2]
 8001826:	4618      	mov	r0, r3
 8001828:	f7ff fcec 	bl	8001204 <marte__kernel__tasks_lists__is_empty>
 800182c:	4603      	mov	r3, r0
 800182e:	2b00      	cmp	r3, #0
 8001830:	d027      	beq.n	8001882 <marte__kernel__tasks_map_lists__dequeue+0xae>
 8001832:	6878      	ldr	r0, [r7, #4]
 8001834:	f001 fbf0 	bl	8003018 <marte__kernel__get_active_prio>
 8001838:	4603      	mov	r3, r0
 800183a:	095b      	lsrs	r3, r3, #5
 800183c:	617b      	str	r3, [r7, #20]
 800183e:	6878      	ldr	r0, [r7, #4]
 8001840:	f001 fbea 	bl	8003018 <marte__kernel__get_active_prio>
 8001844:	4603      	mov	r3, r0
 8001846:	f003 031f 	and.w	r3, r3, #31
 800184a:	613b      	str	r3, [r7, #16]
 800184c:	697b      	ldr	r3, [r7, #20]
 800184e:	2b03      	cmp	r3, #3
 8001850:	d904      	bls.n	800185c <marte__kernel__tasks_map_lists__dequeue+0x88>
 8001852:	f44f 718e 	mov.w	r1, #284	; 0x11c
 8001856:	480c      	ldr	r0, [pc, #48]	; (8001888 <marte__kernel__tasks_map_lists__dequeue+0xb4>)
 8001858:	f011 feda 	bl	8013610 <__gnat_last_chance_handler>
 800185c:	697c      	ldr	r4, [r7, #20]
 800185e:	683b      	ldr	r3, [r7, #0]
 8001860:	f853 3024 	ldr.w	r3, [r3, r4, lsl #2]
 8001864:	60fb      	str	r3, [r7, #12]
 8001866:	693b      	ldr	r3, [r7, #16]
 8001868:	60bb      	str	r3, [r7, #8]
 800186a:	68b8      	ldr	r0, [r7, #8]
 800186c:	f001 fde8 	bl	8003440 <set__bit__from__zeros>
 8001870:	4602      	mov	r2, r0
 8001872:	68fb      	ldr	r3, [r7, #12]
 8001874:	ea23 0302 	bic.w	r3, r3, r2
 8001878:	60fb      	str	r3, [r7, #12]
 800187a:	68fa      	ldr	r2, [r7, #12]
 800187c:	683b      	ldr	r3, [r7, #0]
 800187e:	f843 2024 	str.w	r2, [r3, r4, lsl #2]
 8001882:	371c      	adds	r7, #28
 8001884:	46bd      	mov	sp, r7
 8001886:	bd90      	pop	{r4, r7, pc}
 8001888:	0801ec28 	.word	0x0801ec28

0800188c <marte__kernel__tasks_map_lists__head>:
 800188c:	b580      	push	{r7, lr}
 800188e:	b084      	sub	sp, #16
 8001890:	af00      	add	r7, sp, #0
 8001892:	6078      	str	r0, [r7, #4]
 8001894:	2304      	movs	r3, #4
 8001896:	60fb      	str	r3, [r7, #12]
 8001898:	68fb      	ldr	r3, [r7, #12]
 800189a:	2b00      	cmp	r3, #0
 800189c:	d026      	beq.n	80018ec <marte__kernel__tasks_map_lists__head+0x60>
 800189e:	68fb      	ldr	r3, [r7, #12]
 80018a0:	3b01      	subs	r3, #1
 80018a2:	60fb      	str	r3, [r7, #12]
 80018a4:	687b      	ldr	r3, [r7, #4]
 80018a6:	68fa      	ldr	r2, [r7, #12]
 80018a8:	f853 3022 	ldr.w	r3, [r3, r2, lsl #2]
 80018ac:	2b00      	cmp	r3, #0
 80018ae:	d0f3      	beq.n	8001898 <marte__kernel__tasks_map_lists__head+0xc>
 80018b0:	687b      	ldr	r3, [r7, #4]
 80018b2:	68fa      	ldr	r2, [r7, #12]
 80018b4:	f853 3022 	ldr.w	r3, [r3, r2, lsl #2]
 80018b8:	f107 0208 	add.w	r2, r7, #8
 80018bc:	4611      	mov	r1, r2
 80018be:	4618      	mov	r0, r3
 80018c0:	f001 fdcd 	bl	800345e <bit_scan_reverse>
 80018c4:	68fb      	ldr	r3, [r7, #12]
 80018c6:	015a      	lsls	r2, r3, #5
 80018c8:	68bb      	ldr	r3, [r7, #8]
 80018ca:	4413      	add	r3, r2
 80018cc:	2b62      	cmp	r3, #98	; 0x62
 80018ce:	d904      	bls.n	80018da <marte__kernel__tasks_map_lists__head+0x4e>
 80018d0:	f44f 7196 	mov.w	r1, #300	; 0x12c
 80018d4:	4809      	ldr	r0, [pc, #36]	; (80018fc <marte__kernel__tasks_map_lists__head+0x70>)
 80018d6:	f011 fe9b 	bl	8013610 <__gnat_last_chance_handler>
 80018da:	687a      	ldr	r2, [r7, #4]
 80018dc:	3304      	adds	r3, #4
 80018de:	f852 3023 	ldr.w	r3, [r2, r3, lsl #2]
 80018e2:	4618      	mov	r0, r3
 80018e4:	f7ff fc22 	bl	800112c <marte__kernel__tasks_lists__head>
 80018e8:	4603      	mov	r3, r0
 80018ea:	e002      	b.n	80018f2 <marte__kernel__tasks_map_lists__head+0x66>
 80018ec:	687b      	ldr	r3, [r7, #4]
 80018ee:	f8d3 319c 	ldr.w	r3, [r3, #412]	; 0x19c
 80018f2:	bf00      	nop
 80018f4:	4618      	mov	r0, r3
 80018f6:	3710      	adds	r7, #16
 80018f8:	46bd      	mov	sp, r7
 80018fa:	bd80      	pop	{r7, pc}
 80018fc:	0801ec28 	.word	0x0801ec28

08001900 <marte__kernel__tasks_map_lists__reenqueue_head_in_order>:
 8001900:	b590      	push	{r4, r7, lr}
 8001902:	b083      	sub	sp, #12
 8001904:	af00      	add	r7, sp, #0
 8001906:	6078      	str	r0, [r7, #4]
 8001908:	6039      	str	r1, [r7, #0]
 800190a:	6878      	ldr	r0, [r7, #4]
 800190c:	f7ff fc8c 	bl	8001228 <marte__kernel__tasks_lists__is_the_tail>
 8001910:	4603      	mov	r3, r0
 8001912:	f083 0301 	eor.w	r3, r3, #1
 8001916:	b2db      	uxtb	r3, r3
 8001918:	2b00      	cmp	r3, #0
 800191a:	d035      	beq.n	8001988 <marte__kernel__tasks_map_lists__reenqueue_head_in_order+0x88>
 800191c:	6878      	ldr	r0, [r7, #4]
 800191e:	f001 fb7b 	bl	8003018 <marte__kernel__get_active_prio>
 8001922:	4601      	mov	r1, r0
 8001924:	460b      	mov	r3, r1
 8001926:	2b62      	cmp	r3, #98	; 0x62
 8001928:	d904      	bls.n	8001934 <marte__kernel__tasks_map_lists__reenqueue_head_in_order+0x34>
 800192a:	f44f 719f 	mov.w	r1, #318	; 0x13e
 800192e:	4818      	ldr	r0, [pc, #96]	; (8001990 <marte__kernel__tasks_map_lists__reenqueue_head_in_order+0x90>)
 8001930:	f011 fe6e 	bl	8013610 <__gnat_last_chance_handler>
 8001934:	460a      	mov	r2, r1
 8001936:	683b      	ldr	r3, [r7, #0]
 8001938:	3204      	adds	r2, #4
 800193a:	f853 3022 	ldr.w	r3, [r3, r2, lsl #2]
 800193e:	460c      	mov	r4, r1
 8001940:	4618      	mov	r0, r3
 8001942:	f7ff fbdb 	bl	80010fc <marte__kernel__tasks_lists__dequeue_head>
 8001946:	4601      	mov	r1, r0
 8001948:	683b      	ldr	r3, [r7, #0]
 800194a:	1d22      	adds	r2, r4, #4
 800194c:	f843 1022 	str.w	r1, [r3, r2, lsl #2]
 8001950:	6878      	ldr	r0, [r7, #4]
 8001952:	f001 fb61 	bl	8003018 <marte__kernel__get_active_prio>
 8001956:	4601      	mov	r1, r0
 8001958:	460b      	mov	r3, r1
 800195a:	2b62      	cmp	r3, #98	; 0x62
 800195c:	d904      	bls.n	8001968 <marte__kernel__tasks_map_lists__reenqueue_head_in_order+0x68>
 800195e:	f44f 71a2 	mov.w	r1, #324	; 0x144
 8001962:	480b      	ldr	r0, [pc, #44]	; (8001990 <marte__kernel__tasks_map_lists__reenqueue_head_in_order+0x90>)
 8001964:	f011 fe54 	bl	8013610 <__gnat_last_chance_handler>
 8001968:	460a      	mov	r2, r1
 800196a:	683b      	ldr	r3, [r7, #0]
 800196c:	3204      	adds	r2, #4
 800196e:	f853 3022 	ldr.w	r3, [r3, r2, lsl #2]
 8001972:	460c      	mov	r4, r1
 8001974:	2201      	movs	r2, #1
 8001976:	4619      	mov	r1, r3
 8001978:	6878      	ldr	r0, [r7, #4]
 800197a:	f7ff fc9d 	bl	80012b8 <marte__kernel__tasks_map_lists__enqueue_in_urgency_order_tail>
 800197e:	4601      	mov	r1, r0
 8001980:	683b      	ldr	r3, [r7, #0]
 8001982:	1d22      	adds	r2, r4, #4
 8001984:	f843 1022 	str.w	r1, [r3, r2, lsl #2]
 8001988:	370c      	adds	r7, #12
 800198a:	46bd      	mov	sp, r7
 800198c:	bd90      	pop	{r4, r7, pc}
 800198e:	bf00      	nop
 8001990:	0801ec28 	.word	0x0801ec28

08001994 <marte__kernel__tasks_map_lists__is_empty>:
 8001994:	b480      	push	{r7}
 8001996:	b085      	sub	sp, #20
 8001998:	af00      	add	r7, sp, #0
 800199a:	6078      	str	r0, [r7, #4]
 800199c:	687b      	ldr	r3, [r7, #4]
 800199e:	f8d3 319c 	ldr.w	r3, [r3, #412]	; 0x19c
 80019a2:	2b00      	cmp	r3, #0
 80019a4:	d001      	beq.n	80019aa <marte__kernel__tasks_map_lists__is_empty+0x16>
 80019a6:	2300      	movs	r3, #0
 80019a8:	e011      	b.n	80019ce <marte__kernel__tasks_map_lists__is_empty+0x3a>
 80019aa:	2300      	movs	r3, #0
 80019ac:	60fb      	str	r3, [r7, #12]
 80019ae:	68fb      	ldr	r3, [r7, #12]
 80019b0:	2b03      	cmp	r3, #3
 80019b2:	d80b      	bhi.n	80019cc <marte__kernel__tasks_map_lists__is_empty+0x38>
 80019b4:	687b      	ldr	r3, [r7, #4]
 80019b6:	68fa      	ldr	r2, [r7, #12]
 80019b8:	f853 3022 	ldr.w	r3, [r3, r2, lsl #2]
 80019bc:	2b00      	cmp	r3, #0
 80019be:	d001      	beq.n	80019c4 <marte__kernel__tasks_map_lists__is_empty+0x30>
 80019c0:	2300      	movs	r3, #0
 80019c2:	e004      	b.n	80019ce <marte__kernel__tasks_map_lists__is_empty+0x3a>
 80019c4:	68fb      	ldr	r3, [r7, #12]
 80019c6:	3301      	adds	r3, #1
 80019c8:	60fb      	str	r3, [r7, #12]
 80019ca:	e7f0      	b.n	80019ae <marte__kernel__tasks_map_lists__is_empty+0x1a>
 80019cc:	2301      	movs	r3, #1
 80019ce:	bf00      	nop
 80019d0:	4618      	mov	r0, r3
 80019d2:	3714      	adds	r7, #20
 80019d4:	46bd      	mov	sp, r7
 80019d6:	f85d 7b04 	ldr.w	r7, [sp], #4
 80019da:	4770      	bx	lr

080019dc <marte__kernel__task_containers_lists__enqueue_head>:
 80019dc:	b580      	push	{r7, lr}
 80019de:	b082      	sub	sp, #8
 80019e0:	af00      	add	r7, sp, #0
 80019e2:	6078      	str	r0, [r7, #4]
 80019e4:	6039      	str	r1, [r7, #0]
 80019e6:	687b      	ldr	r3, [r7, #4]
 80019e8:	2b00      	cmp	r3, #0
 80019ea:	d103      	bne.n	80019f4 <marte__kernel__task_containers_lists__enqueue_head+0x18>
 80019ec:	213d      	movs	r1, #61	; 0x3d
 80019ee:	4807      	ldr	r0, [pc, #28]	; (8001a0c <marte__kernel__task_containers_lists__enqueue_head+0x30>)
 80019f0:	f011 fe0e 	bl	8013610 <__gnat_last_chance_handler>
 80019f4:	687b      	ldr	r3, [r7, #4]
 80019f6:	683a      	ldr	r2, [r7, #0]
 80019f8:	60da      	str	r2, [r3, #12]
 80019fa:	687b      	ldr	r3, [r7, #4]
 80019fc:	603b      	str	r3, [r7, #0]
 80019fe:	683b      	ldr	r3, [r7, #0]
 8001a00:	bf00      	nop
 8001a02:	4618      	mov	r0, r3
 8001a04:	3708      	adds	r7, #8
 8001a06:	46bd      	mov	sp, r7
 8001a08:	bd80      	pop	{r7, pc}
 8001a0a:	bf00      	nop
 8001a0c:	0801ebec 	.word	0x0801ebec

08001a10 <marte__kernel__task_containers_lists__dequeue_head>:
 8001a10:	b580      	push	{r7, lr}
 8001a12:	b082      	sub	sp, #8
 8001a14:	af00      	add	r7, sp, #0
 8001a16:	6078      	str	r0, [r7, #4]
 8001a18:	687b      	ldr	r3, [r7, #4]
 8001a1a:	2b00      	cmp	r3, #0
 8001a1c:	d103      	bne.n	8001a26 <marte__kernel__task_containers_lists__dequeue_head+0x16>
 8001a1e:	215f      	movs	r1, #95	; 0x5f
 8001a20:	4805      	ldr	r0, [pc, #20]	; (8001a38 <marte__kernel__task_containers_lists__dequeue_head+0x28>)
 8001a22:	f011 fdf5 	bl	8013610 <__gnat_last_chance_handler>
 8001a26:	687b      	ldr	r3, [r7, #4]
 8001a28:	68db      	ldr	r3, [r3, #12]
 8001a2a:	607b      	str	r3, [r7, #4]
 8001a2c:	687b      	ldr	r3, [r7, #4]
 8001a2e:	bf00      	nop
 8001a30:	4618      	mov	r0, r3
 8001a32:	3708      	adds	r7, #8
 8001a34:	46bd      	mov	sp, r7
 8001a36:	bd80      	pop	{r7, pc}
 8001a38:	0801ebec 	.word	0x0801ebec

08001a3c <marte__kernel__task_containers_lists__head>:
 8001a3c:	b480      	push	{r7}
 8001a3e:	b083      	sub	sp, #12
 8001a40:	af00      	add	r7, sp, #0
 8001a42:	6078      	str	r0, [r7, #4]
 8001a44:	687b      	ldr	r3, [r7, #4]
 8001a46:	bf00      	nop
 8001a48:	4618      	mov	r0, r3
 8001a4a:	370c      	adds	r7, #12
 8001a4c:	46bd      	mov	sp, r7
 8001a4e:	f85d 7b04 	ldr.w	r7, [sp], #4
 8001a52:	4770      	bx	lr

08001a54 <marte__kernel__task_containers_lists__dequeue>:
 8001a54:	b580      	push	{r7, lr}
 8001a56:	b084      	sub	sp, #16
 8001a58:	af00      	add	r7, sp, #0
 8001a5a:	6078      	str	r0, [r7, #4]
 8001a5c:	6039      	str	r1, [r7, #0]
 8001a5e:	683b      	ldr	r3, [r7, #0]
 8001a60:	60fb      	str	r3, [r7, #12]
 8001a62:	683b      	ldr	r3, [r7, #0]
 8001a64:	2b00      	cmp	r3, #0
 8001a66:	d043      	beq.n	8001af0 <marte__kernel__task_containers_lists__dequeue+0x9c>
 8001a68:	683a      	ldr	r2, [r7, #0]
 8001a6a:	687b      	ldr	r3, [r7, #4]
 8001a6c:	429a      	cmp	r2, r3
 8001a6e:	d10a      	bne.n	8001a86 <marte__kernel__task_containers_lists__dequeue+0x32>
 8001a70:	687b      	ldr	r3, [r7, #4]
 8001a72:	2b00      	cmp	r3, #0
 8001a74:	d103      	bne.n	8001a7e <marte__kernel__task_containers_lists__dequeue+0x2a>
 8001a76:	2178      	movs	r1, #120	; 0x78
 8001a78:	4822      	ldr	r0, [pc, #136]	; (8001b04 <marte__kernel__task_containers_lists__dequeue+0xb0>)
 8001a7a:	f011 fdc9 	bl	8013610 <__gnat_last_chance_handler>
 8001a7e:	687b      	ldr	r3, [r7, #4]
 8001a80:	68db      	ldr	r3, [r3, #12]
 8001a82:	603b      	str	r3, [r7, #0]
 8001a84:	e037      	b.n	8001af6 <marte__kernel__task_containers_lists__dequeue+0xa2>
 8001a86:	68fb      	ldr	r3, [r7, #12]
 8001a88:	2b00      	cmp	r3, #0
 8001a8a:	d103      	bne.n	8001a94 <marte__kernel__task_containers_lists__dequeue+0x40>
 8001a8c:	217b      	movs	r1, #123	; 0x7b
 8001a8e:	481d      	ldr	r0, [pc, #116]	; (8001b04 <marte__kernel__task_containers_lists__dequeue+0xb0>)
 8001a90:	f011 fdbe 	bl	8013610 <__gnat_last_chance_handler>
 8001a94:	68fb      	ldr	r3, [r7, #12]
 8001a96:	68db      	ldr	r3, [r3, #12]
 8001a98:	2b00      	cmp	r3, #0
 8001a9a:	d02b      	beq.n	8001af4 <marte__kernel__task_containers_lists__dequeue+0xa0>
 8001a9c:	68fb      	ldr	r3, [r7, #12]
 8001a9e:	2b00      	cmp	r3, #0
 8001aa0:	d103      	bne.n	8001aaa <marte__kernel__task_containers_lists__dequeue+0x56>
 8001aa2:	217d      	movs	r1, #125	; 0x7d
 8001aa4:	4817      	ldr	r0, [pc, #92]	; (8001b04 <marte__kernel__task_containers_lists__dequeue+0xb0>)
 8001aa6:	f011 fdb3 	bl	8013610 <__gnat_last_chance_handler>
 8001aaa:	68fb      	ldr	r3, [r7, #12]
 8001aac:	68db      	ldr	r3, [r3, #12]
 8001aae:	687a      	ldr	r2, [r7, #4]
 8001ab0:	429a      	cmp	r2, r3
 8001ab2:	d112      	bne.n	8001ada <marte__kernel__task_containers_lists__dequeue+0x86>
 8001ab4:	68fb      	ldr	r3, [r7, #12]
 8001ab6:	2b00      	cmp	r3, #0
 8001ab8:	d103      	bne.n	8001ac2 <marte__kernel__task_containers_lists__dequeue+0x6e>
 8001aba:	217e      	movs	r1, #126	; 0x7e
 8001abc:	4811      	ldr	r0, [pc, #68]	; (8001b04 <marte__kernel__task_containers_lists__dequeue+0xb0>)
 8001abe:	f011 fda7 	bl	8013610 <__gnat_last_chance_handler>
 8001ac2:	687b      	ldr	r3, [r7, #4]
 8001ac4:	2b00      	cmp	r3, #0
 8001ac6:	d103      	bne.n	8001ad0 <marte__kernel__task_containers_lists__dequeue+0x7c>
 8001ac8:	217e      	movs	r1, #126	; 0x7e
 8001aca:	480e      	ldr	r0, [pc, #56]	; (8001b04 <marte__kernel__task_containers_lists__dequeue+0xb0>)
 8001acc:	f011 fda0 	bl	8013610 <__gnat_last_chance_handler>
 8001ad0:	687b      	ldr	r3, [r7, #4]
 8001ad2:	68da      	ldr	r2, [r3, #12]
 8001ad4:	68fb      	ldr	r3, [r7, #12]
 8001ad6:	60da      	str	r2, [r3, #12]
 8001ad8:	e00d      	b.n	8001af6 <marte__kernel__task_containers_lists__dequeue+0xa2>
 8001ada:	68fb      	ldr	r3, [r7, #12]
 8001adc:	2b00      	cmp	r3, #0
 8001ade:	d103      	bne.n	8001ae8 <marte__kernel__task_containers_lists__dequeue+0x94>
 8001ae0:	2181      	movs	r1, #129	; 0x81
 8001ae2:	4808      	ldr	r0, [pc, #32]	; (8001b04 <marte__kernel__task_containers_lists__dequeue+0xb0>)
 8001ae4:	f011 fd94 	bl	8013610 <__gnat_last_chance_handler>
 8001ae8:	68fb      	ldr	r3, [r7, #12]
 8001aea:	68db      	ldr	r3, [r3, #12]
 8001aec:	60fb      	str	r3, [r7, #12]
 8001aee:	e7ca      	b.n	8001a86 <marte__kernel__task_containers_lists__dequeue+0x32>
 8001af0:	bf00      	nop
 8001af2:	e000      	b.n	8001af6 <marte__kernel__task_containers_lists__dequeue+0xa2>
 8001af4:	bf00      	nop
 8001af6:	683b      	ldr	r3, [r7, #0]
 8001af8:	bf00      	nop
 8001afa:	4618      	mov	r0, r3
 8001afc:	3710      	adds	r7, #16
 8001afe:	46bd      	mov	sp, r7
 8001b00:	bd80      	pop	{r7, pc}
 8001b02:	bf00      	nop
 8001b04:	0801ebec 	.word	0x0801ebec

08001b08 <marte__kernel__task_containers_lists__next>:
 8001b08:	b580      	push	{r7, lr}
 8001b0a:	b082      	sub	sp, #8
 8001b0c:	af00      	add	r7, sp, #0
 8001b0e:	6078      	str	r0, [r7, #4]
 8001b10:	687b      	ldr	r3, [r7, #4]
 8001b12:	2b00      	cmp	r3, #0
 8001b14:	d103      	bne.n	8001b1e <marte__kernel__task_containers_lists__next+0x16>
 8001b16:	2194      	movs	r1, #148	; 0x94
 8001b18:	4804      	ldr	r0, [pc, #16]	; (8001b2c <marte__kernel__task_containers_lists__next+0x24>)
 8001b1a:	f011 fd79 	bl	8013610 <__gnat_last_chance_handler>
 8001b1e:	687b      	ldr	r3, [r7, #4]
 8001b20:	68db      	ldr	r3, [r3, #12]
 8001b22:	bf00      	nop
 8001b24:	4618      	mov	r0, r3
 8001b26:	3708      	adds	r7, #8
 8001b28:	46bd      	mov	sp, r7
 8001b2a:	bd80      	pop	{r7, pc}
 8001b2c:	0801ebec 	.word	0x0801ebec

08001b30 <marte__kernel__task_containers_lists_order__find_mx_prio>:
 8001b30:	b580      	push	{r7, lr}
 8001b32:	b084      	sub	sp, #16
 8001b34:	af00      	add	r7, sp, #0
 8001b36:	6078      	str	r0, [r7, #4]
 8001b38:	687b      	ldr	r3, [r7, #4]
 8001b3a:	60fb      	str	r3, [r7, #12]
 8001b3c:	687b      	ldr	r3, [r7, #4]
 8001b3e:	60bb      	str	r3, [r7, #8]
 8001b40:	68bb      	ldr	r3, [r7, #8]
 8001b42:	2b00      	cmp	r3, #0
 8001b44:	d00c      	beq.n	8001b60 <marte__kernel__task_containers_lists_order__find_mx_prio+0x30>
 8001b46:	68f9      	ldr	r1, [r7, #12]
 8001b48:	68b8      	ldr	r0, [r7, #8]
 8001b4a:	f001 fae7 	bl	800311c <marte__kernel__Ogt__4>
 8001b4e:	4603      	mov	r3, r0
 8001b50:	2b00      	cmp	r3, #0
 8001b52:	d001      	beq.n	8001b58 <marte__kernel__task_containers_lists_order__find_mx_prio+0x28>
 8001b54:	68bb      	ldr	r3, [r7, #8]
 8001b56:	60fb      	str	r3, [r7, #12]
 8001b58:	68bb      	ldr	r3, [r7, #8]
 8001b5a:	68db      	ldr	r3, [r3, #12]
 8001b5c:	60bb      	str	r3, [r7, #8]
 8001b5e:	e7ef      	b.n	8001b40 <marte__kernel__task_containers_lists_order__find_mx_prio+0x10>
 8001b60:	68fb      	ldr	r3, [r7, #12]
 8001b62:	bf00      	nop
 8001b64:	4618      	mov	r0, r3
 8001b66:	3710      	adds	r7, #16
 8001b68:	46bd      	mov	sp, r7
 8001b6a:	bd80      	pop	{r7, pc}

08001b6c <marte__kernel__task_sets_lists__enqueue_head>:
 8001b6c:	b580      	push	{r7, lr}
 8001b6e:	b082      	sub	sp, #8
 8001b70:	af00      	add	r7, sp, #0
 8001b72:	6078      	str	r0, [r7, #4]
 8001b74:	6039      	str	r1, [r7, #0]
 8001b76:	687b      	ldr	r3, [r7, #4]
 8001b78:	2b00      	cmp	r3, #0
 8001b7a:	d103      	bne.n	8001b84 <marte__kernel__task_sets_lists__enqueue_head+0x18>
 8001b7c:	213d      	movs	r1, #61	; 0x3d
 8001b7e:	4807      	ldr	r0, [pc, #28]	; (8001b9c <marte__kernel__task_sets_lists__enqueue_head+0x30>)
 8001b80:	f011 fd46 	bl	8013610 <__gnat_last_chance_handler>
 8001b84:	687b      	ldr	r3, [r7, #4]
 8001b86:	683a      	ldr	r2, [r7, #0]
 8001b88:	625a      	str	r2, [r3, #36]	; 0x24
 8001b8a:	687b      	ldr	r3, [r7, #4]
 8001b8c:	603b      	str	r3, [r7, #0]
 8001b8e:	683b      	ldr	r3, [r7, #0]
 8001b90:	bf00      	nop
 8001b92:	4618      	mov	r0, r3
 8001b94:	3708      	adds	r7, #8
 8001b96:	46bd      	mov	sp, r7
 8001b98:	bd80      	pop	{r7, pc}
 8001b9a:	bf00      	nop
 8001b9c:	0801ebec 	.word	0x0801ebec

08001ba0 <marte__kernel__mutex_baseIP>:
 8001ba0:	b480      	push	{r7}
 8001ba2:	b083      	sub	sp, #12
 8001ba4:	af00      	add	r7, sp, #0
 8001ba6:	6078      	str	r0, [r7, #4]
 8001ba8:	460b      	mov	r3, r1
 8001baa:	70fb      	strb	r3, [r7, #3]
 8001bac:	78fb      	ldrb	r3, [r7, #3]
 8001bae:	2b00      	cmp	r3, #0
 8001bb0:	d002      	beq.n	8001bb8 <marte__kernel__mutex_baseIP+0x18>
 8001bb2:	4a04      	ldr	r2, [pc, #16]	; (8001bc4 <marte__kernel__mutex_baseIP+0x24>)
 8001bb4:	687b      	ldr	r3, [r7, #4]
 8001bb6:	601a      	str	r2, [r3, #0]
 8001bb8:	370c      	adds	r7, #12
 8001bba:	46bd      	mov	sp, r7
 8001bbc:	f85d 7b04 	ldr.w	r7, [sp], #4
 8001bc0:	4770      	bx	lr
 8001bc2:	bf00      	nop
 8001bc4:	0801f0d0 	.word	0x0801f0d0

08001bc8 <marte__kernel___size>:
 8001bc8:	b490      	push	{r4, r7}
 8001bca:	b082      	sub	sp, #8
 8001bcc:	af00      	add	r7, sp, #0
 8001bce:	6078      	str	r0, [r7, #4]
 8001bd0:	f04f 0320 	mov.w	r3, #32
 8001bd4:	f04f 0400 	mov.w	r4, #0
 8001bd8:	4618      	mov	r0, r3
 8001bda:	4621      	mov	r1, r4
 8001bdc:	3708      	adds	r7, #8
 8001bde:	46bd      	mov	sp, r7
 8001be0:	bc90      	pop	{r4, r7}
 8001be2:	4770      	bx	lr

08001be4 <marte__kernel__Oeq>:
 8001be4:	b480      	push	{r7}
 8001be6:	b083      	sub	sp, #12
 8001be8:	af00      	add	r7, sp, #0
 8001bea:	6078      	str	r0, [r7, #4]
 8001bec:	6039      	str	r1, [r7, #0]
 8001bee:	2301      	movs	r3, #1
 8001bf0:	4618      	mov	r0, r3
 8001bf2:	370c      	adds	r7, #12
 8001bf4:	46bd      	mov	sp, r7
 8001bf6:	f85d 7b04 	ldr.w	r7, [sp], #4
 8001bfa:	4770      	bx	lr

08001bfc <marte__kernel___assign>:
 8001bfc:	b480      	push	{r7}
 8001bfe:	b083      	sub	sp, #12
 8001c00:	af00      	add	r7, sp, #0
 8001c02:	6078      	str	r0, [r7, #4]
 8001c04:	6039      	str	r1, [r7, #0]
 8001c06:	687b      	ldr	r3, [r7, #4]
 8001c08:	681a      	ldr	r2, [r3, #0]
 8001c0a:	687b      	ldr	r3, [r7, #4]
 8001c0c:	6839      	ldr	r1, [r7, #0]
 8001c0e:	6809      	ldr	r1, [r1, #0]
 8001c10:	6019      	str	r1, [r3, #0]
 8001c12:	687b      	ldr	r3, [r7, #4]
 8001c14:	601a      	str	r2, [r3, #0]
 8001c16:	370c      	adds	r7, #12
 8001c18:	46bd      	mov	sp, r7
 8001c1a:	f85d 7b04 	ldr.w	r7, [sp], #4
 8001c1e:	4770      	bx	lr

08001c20 <marte__kernel__mutexes_lists__elementIP>:
 8001c20:	b580      	push	{r7, lr}
 8001c22:	b082      	sub	sp, #8
 8001c24:	af00      	add	r7, sp, #0
 8001c26:	6078      	str	r0, [r7, #4]
 8001c28:	460b      	mov	r3, r1
 8001c2a:	70fb      	strb	r3, [r7, #3]
 8001c2c:	78fb      	ldrb	r3, [r7, #3]
 8001c2e:	2b00      	cmp	r3, #0
 8001c30:	d002      	beq.n	8001c38 <marte__kernel__mutexes_lists__elementIP+0x18>
 8001c32:	4a07      	ldr	r2, [pc, #28]	; (8001c50 <marte__kernel__mutexes_lists__elementIP+0x30>)
 8001c34:	687b      	ldr	r3, [r7, #4]
 8001c36:	601a      	str	r2, [r3, #0]
 8001c38:	687b      	ldr	r3, [r7, #4]
 8001c3a:	2100      	movs	r1, #0
 8001c3c:	4618      	mov	r0, r3
 8001c3e:	f7ff ffaf 	bl	8001ba0 <marte__kernel__mutex_baseIP>
 8001c42:	687b      	ldr	r3, [r7, #4]
 8001c44:	2200      	movs	r2, #0
 8001c46:	609a      	str	r2, [r3, #8]
 8001c48:	3708      	adds	r7, #8
 8001c4a:	46bd      	mov	sp, r7
 8001c4c:	bd80      	pop	{r7, pc}
 8001c4e:	bf00      	nop
 8001c50:	0801ece0 	.word	0x0801ece0

08001c54 <marte__kernel__mutexes_lists___size__2>:
 8001c54:	b490      	push	{r4, r7}
 8001c56:	b082      	sub	sp, #8
 8001c58:	af00      	add	r7, sp, #0
 8001c5a:	6078      	str	r0, [r7, #4]
 8001c5c:	f04f 0360 	mov.w	r3, #96	; 0x60
 8001c60:	f04f 0400 	mov.w	r4, #0
 8001c64:	4618      	mov	r0, r3
 8001c66:	4621      	mov	r1, r4
 8001c68:	3708      	adds	r7, #8
 8001c6a:	46bd      	mov	sp, r7
 8001c6c:	bc90      	pop	{r4, r7}
 8001c6e:	4770      	bx	lr

08001c70 <marte__kernel__mutexes_lists__Oeq__2>:
 8001c70:	b580      	push	{r7, lr}
 8001c72:	b082      	sub	sp, #8
 8001c74:	af00      	add	r7, sp, #0
 8001c76:	6078      	str	r0, [r7, #4]
 8001c78:	6039      	str	r1, [r7, #0]
 8001c7a:	687b      	ldr	r3, [r7, #4]
 8001c7c:	683a      	ldr	r2, [r7, #0]
 8001c7e:	4611      	mov	r1, r2
 8001c80:	4618      	mov	r0, r3
 8001c82:	f7ff ffaf 	bl	8001be4 <marte__kernel__Oeq>
 8001c86:	4603      	mov	r3, r0
 8001c88:	2b00      	cmp	r3, #0
 8001c8a:	d012      	beq.n	8001cb2 <marte__kernel__mutexes_lists__Oeq__2+0x42>
 8001c8c:	687b      	ldr	r3, [r7, #4]
 8001c8e:	791b      	ldrb	r3, [r3, #4]
 8001c90:	f083 0301 	eor.w	r3, r3, #1
 8001c94:	b2da      	uxtb	r2, r3
 8001c96:	683b      	ldr	r3, [r7, #0]
 8001c98:	791b      	ldrb	r3, [r3, #4]
 8001c9a:	4053      	eors	r3, r2
 8001c9c:	b2db      	uxtb	r3, r3
 8001c9e:	2b00      	cmp	r3, #0
 8001ca0:	d007      	beq.n	8001cb2 <marte__kernel__mutexes_lists__Oeq__2+0x42>
 8001ca2:	687b      	ldr	r3, [r7, #4]
 8001ca4:	689a      	ldr	r2, [r3, #8]
 8001ca6:	683b      	ldr	r3, [r7, #0]
 8001ca8:	689b      	ldr	r3, [r3, #8]
 8001caa:	429a      	cmp	r2, r3
 8001cac:	d101      	bne.n	8001cb2 <marte__kernel__mutexes_lists__Oeq__2+0x42>
 8001cae:	2301      	movs	r3, #1
 8001cb0:	e000      	b.n	8001cb4 <marte__kernel__mutexes_lists__Oeq__2+0x44>
 8001cb2:	2300      	movs	r3, #0
 8001cb4:	4618      	mov	r0, r3
 8001cb6:	3708      	adds	r7, #8
 8001cb8:	46bd      	mov	sp, r7
 8001cba:	bd80      	pop	{r7, pc}

08001cbc <marte__kernel__mutexes_lists___assign__2>:
 8001cbc:	b490      	push	{r4, r7}
 8001cbe:	b082      	sub	sp, #8
 8001cc0:	af00      	add	r7, sp, #0
 8001cc2:	6078      	str	r0, [r7, #4]
 8001cc4:	6039      	str	r1, [r7, #0]
 8001cc6:	687b      	ldr	r3, [r7, #4]
 8001cc8:	681c      	ldr	r4, [r3, #0]
 8001cca:	687b      	ldr	r3, [r7, #4]
 8001ccc:	683a      	ldr	r2, [r7, #0]
 8001cce:	ca07      	ldmia	r2, {r0, r1, r2}
 8001cd0:	e883 0007 	stmia.w	r3, {r0, r1, r2}
 8001cd4:	687b      	ldr	r3, [r7, #4]
 8001cd6:	601c      	str	r4, [r3, #0]
 8001cd8:	3708      	adds	r7, #8
 8001cda:	46bd      	mov	sp, r7
 8001cdc:	bc90      	pop	{r4, r7}
 8001cde:	4770      	bx	lr

08001ce0 <marte__kernel__timed_eventIP>:
 8001ce0:	b480      	push	{r7}
 8001ce2:	b083      	sub	sp, #12
 8001ce4:	af00      	add	r7, sp, #0
 8001ce6:	6078      	str	r0, [r7, #4]
 8001ce8:	460b      	mov	r3, r1
 8001cea:	70fb      	strb	r3, [r7, #3]
 8001cec:	78fb      	ldrb	r3, [r7, #3]
 8001cee:	2b00      	cmp	r3, #0
 8001cf0:	d002      	beq.n	8001cf8 <marte__kernel__timed_eventIP+0x18>
 8001cf2:	4a04      	ldr	r2, [pc, #16]	; (8001d04 <marte__kernel__timed_eventIP+0x24>)
 8001cf4:	687b      	ldr	r3, [r7, #4]
 8001cf6:	601a      	str	r2, [r3, #0]
 8001cf8:	370c      	adds	r7, #12
 8001cfa:	46bd      	mov	sp, r7
 8001cfc:	f85d 7b04 	ldr.w	r7, [sp], #4
 8001d00:	4770      	bx	lr
 8001d02:	bf00      	nop
 8001d04:	0801f220 	.word	0x0801f220

08001d08 <marte__kernel___size__2>:
 8001d08:	b490      	push	{r4, r7}
 8001d0a:	b082      	sub	sp, #8
 8001d0c:	af00      	add	r7, sp, #0
 8001d0e:	6078      	str	r0, [r7, #4]
 8001d10:	f04f 0380 	mov.w	r3, #128	; 0x80
 8001d14:	f04f 0400 	mov.w	r4, #0
 8001d18:	4618      	mov	r0, r3
 8001d1a:	4621      	mov	r1, r4
 8001d1c:	3708      	adds	r7, #8
 8001d1e:	46bd      	mov	sp, r7
 8001d20:	bc90      	pop	{r4, r7}
 8001d22:	4770      	bx	lr

08001d24 <marte__kernel__Oeq__3>:
 8001d24:	b490      	push	{r4, r7}
 8001d26:	b082      	sub	sp, #8
 8001d28:	af00      	add	r7, sp, #0
 8001d2a:	6078      	str	r0, [r7, #4]
 8001d2c:	6039      	str	r1, [r7, #0]
 8001d2e:	687b      	ldr	r3, [r7, #4]
 8001d30:	e9d3 1202 	ldrd	r1, r2, [r3, #8]
 8001d34:	683b      	ldr	r3, [r7, #0]
 8001d36:	e9d3 3402 	ldrd	r3, r4, [r3, #8]
 8001d3a:	42a2      	cmp	r2, r4
 8001d3c:	bf06      	itte	eq
 8001d3e:	4299      	cmpeq	r1, r3
 8001d40:	2301      	moveq	r3, #1
 8001d42:	2300      	movne	r3, #0
 8001d44:	b2db      	uxtb	r3, r3
 8001d46:	4618      	mov	r0, r3
 8001d48:	3708      	adds	r7, #8
 8001d4a:	46bd      	mov	sp, r7
 8001d4c:	bc90      	pop	{r4, r7}
 8001d4e:	4770      	bx	lr

08001d50 <marte__kernel___assign__2>:
 8001d50:	b4b0      	push	{r4, r5, r7}
 8001d52:	b083      	sub	sp, #12
 8001d54:	af00      	add	r7, sp, #0
 8001d56:	6078      	str	r0, [r7, #4]
 8001d58:	6039      	str	r1, [r7, #0]
 8001d5a:	687b      	ldr	r3, [r7, #4]
 8001d5c:	681c      	ldr	r4, [r3, #0]
 8001d5e:	687a      	ldr	r2, [r7, #4]
 8001d60:	683b      	ldr	r3, [r7, #0]
 8001d62:	4615      	mov	r5, r2
 8001d64:	cb0f      	ldmia	r3, {r0, r1, r2, r3}
 8001d66:	e885 000f 	stmia.w	r5, {r0, r1, r2, r3}
 8001d6a:	687b      	ldr	r3, [r7, #4]
 8001d6c:	601c      	str	r4, [r3, #0]
 8001d6e:	370c      	adds	r7, #12
 8001d70:	46bd      	mov	sp, r7
 8001d72:	bcb0      	pop	{r4, r5, r7}
 8001d74:	4770      	bx	lr
 8001d76:	bf00      	nop

08001d78 <marte__kernel__timed_events_lists__elementIP>:
 8001d78:	b580      	push	{r7, lr}
 8001d7a:	b082      	sub	sp, #8
 8001d7c:	af00      	add	r7, sp, #0
 8001d7e:	6078      	str	r0, [r7, #4]
 8001d80:	460b      	mov	r3, r1
 8001d82:	70fb      	strb	r3, [r7, #3]
 8001d84:	78fb      	ldrb	r3, [r7, #3]
 8001d86:	2b00      	cmp	r3, #0
 8001d88:	d002      	beq.n	8001d90 <marte__kernel__timed_events_lists__elementIP+0x18>
 8001d8a:	4a07      	ldr	r2, [pc, #28]	; (8001da8 <marte__kernel__timed_events_lists__elementIP+0x30>)
 8001d8c:	687b      	ldr	r3, [r7, #4]
 8001d8e:	601a      	str	r2, [r3, #0]
 8001d90:	687b      	ldr	r3, [r7, #4]
 8001d92:	2100      	movs	r1, #0
 8001d94:	4618      	mov	r0, r3
 8001d96:	f7ff ffa3 	bl	8001ce0 <marte__kernel__timed_eventIP>
 8001d9a:	687b      	ldr	r3, [r7, #4]
 8001d9c:	2200      	movs	r2, #0
 8001d9e:	615a      	str	r2, [r3, #20]
 8001da0:	3708      	adds	r7, #8
 8001da2:	46bd      	mov	sp, r7
 8001da4:	bd80      	pop	{r7, pc}
 8001da6:	bf00      	nop
 8001da8:	0801ed60 	.word	0x0801ed60

08001dac <marte__kernel__timed_events_lists___size__2>:
 8001dac:	b490      	push	{r4, r7}
 8001dae:	b082      	sub	sp, #8
 8001db0:	af00      	add	r7, sp, #0
 8001db2:	6078      	str	r0, [r7, #4]
 8001db4:	f04f 03c0 	mov.w	r3, #192	; 0xc0
 8001db8:	f04f 0400 	mov.w	r4, #0
 8001dbc:	4618      	mov	r0, r3
 8001dbe:	4621      	mov	r1, r4
 8001dc0:	3708      	adds	r7, #8
 8001dc2:	46bd      	mov	sp, r7
 8001dc4:	bc90      	pop	{r4, r7}
 8001dc6:	4770      	bx	lr

08001dc8 <marte__kernel__timed_events_lists__Oeq__2>:
 8001dc8:	b580      	push	{r7, lr}
 8001dca:	b082      	sub	sp, #8
 8001dcc:	af00      	add	r7, sp, #0
 8001dce:	6078      	str	r0, [r7, #4]
 8001dd0:	6039      	str	r1, [r7, #0]
 8001dd2:	687b      	ldr	r3, [r7, #4]
 8001dd4:	683a      	ldr	r2, [r7, #0]
 8001dd6:	4611      	mov	r1, r2
 8001dd8:	4618      	mov	r0, r3
 8001dda:	f7ff ffa3 	bl	8001d24 <marte__kernel__Oeq__3>
 8001dde:	4603      	mov	r3, r0
 8001de0:	2b00      	cmp	r3, #0
 8001de2:	d012      	beq.n	8001e0a <marte__kernel__timed_events_lists__Oeq__2+0x42>
 8001de4:	687b      	ldr	r3, [r7, #4]
 8001de6:	7c1b      	ldrb	r3, [r3, #16]
 8001de8:	f083 0301 	eor.w	r3, r3, #1
 8001dec:	b2da      	uxtb	r2, r3
 8001dee:	683b      	ldr	r3, [r7, #0]
 8001df0:	7c1b      	ldrb	r3, [r3, #16]
 8001df2:	4053      	eors	r3, r2
 8001df4:	b2db      	uxtb	r3, r3
 8001df6:	2b00      	cmp	r3, #0
 8001df8:	d007      	beq.n	8001e0a <marte__kernel__timed_events_lists__Oeq__2+0x42>
 8001dfa:	687b      	ldr	r3, [r7, #4]
 8001dfc:	695a      	ldr	r2, [r3, #20]
 8001dfe:	683b      	ldr	r3, [r7, #0]
 8001e00:	695b      	ldr	r3, [r3, #20]
 8001e02:	429a      	cmp	r2, r3
 8001e04:	d101      	bne.n	8001e0a <marte__kernel__timed_events_lists__Oeq__2+0x42>
 8001e06:	2301      	movs	r3, #1
 8001e08:	e000      	b.n	8001e0c <marte__kernel__timed_events_lists__Oeq__2+0x44>
 8001e0a:	2300      	movs	r3, #0
 8001e0c:	4618      	mov	r0, r3
 8001e0e:	3708      	adds	r7, #8
 8001e10:	46bd      	mov	sp, r7
 8001e12:	bd80      	pop	{r7, pc}

08001e14 <marte__kernel__timed_events_lists___assign__2>:
 8001e14:	b4f0      	push	{r4, r5, r6, r7}
 8001e16:	b082      	sub	sp, #8
 8001e18:	af00      	add	r7, sp, #0
 8001e1a:	6078      	str	r0, [r7, #4]
 8001e1c:	6039      	str	r1, [r7, #0]
 8001e1e:	687b      	ldr	r3, [r7, #4]
 8001e20:	681e      	ldr	r6, [r3, #0]
 8001e22:	687a      	ldr	r2, [r7, #4]
 8001e24:	683b      	ldr	r3, [r7, #0]
 8001e26:	4614      	mov	r4, r2
 8001e28:	461d      	mov	r5, r3
 8001e2a:	cd0f      	ldmia	r5!, {r0, r1, r2, r3}
 8001e2c:	c40f      	stmia	r4!, {r0, r1, r2, r3}
 8001e2e:	e895 0003 	ldmia.w	r5, {r0, r1}
 8001e32:	e884 0003 	stmia.w	r4, {r0, r1}
 8001e36:	687b      	ldr	r3, [r7, #4]
 8001e38:	601e      	str	r6, [r3, #0]
 8001e3a:	3708      	adds	r7, #8
 8001e3c:	46bd      	mov	sp, r7
 8001e3e:	bcf0      	pop	{r4, r5, r6, r7}
 8001e40:	4770      	bx	lr
 8001e42:	bf00      	nop

08001e44 <marte__kernel__cpu_time_timed_eventIP>:
 8001e44:	b590      	push	{r4, r7, lr}
 8001e46:	b083      	sub	sp, #12
 8001e48:	af00      	add	r7, sp, #0
 8001e4a:	6078      	str	r0, [r7, #4]
 8001e4c:	460b      	mov	r3, r1
 8001e4e:	70fb      	strb	r3, [r7, #3]
 8001e50:	78fb      	ldrb	r3, [r7, #3]
 8001e52:	2b00      	cmp	r3, #0
 8001e54:	d002      	beq.n	8001e5c <marte__kernel__cpu_time_timed_eventIP+0x18>
 8001e56:	4a0a      	ldr	r2, [pc, #40]	; (8001e80 <marte__kernel__cpu_time_timed_eventIP+0x3c>)
 8001e58:	687b      	ldr	r3, [r7, #4]
 8001e5a:	601a      	str	r2, [r3, #0]
 8001e5c:	687b      	ldr	r3, [r7, #4]
 8001e5e:	2100      	movs	r1, #0
 8001e60:	4618      	mov	r0, r3
 8001e62:	f7ff ff89 	bl	8001d78 <marte__kernel__timed_events_lists__elementIP>
 8001e66:	687a      	ldr	r2, [r7, #4]
 8001e68:	f04f 0300 	mov.w	r3, #0
 8001e6c:	f04f 0400 	mov.w	r4, #0
 8001e70:	e9c2 3406 	strd	r3, r4, [r2, #24]
 8001e74:	687b      	ldr	r3, [r7, #4]
 8001e76:	2200      	movs	r2, #0
 8001e78:	631a      	str	r2, [r3, #48]	; 0x30
 8001e7a:	370c      	adds	r7, #12
 8001e7c:	46bd      	mov	sp, r7
 8001e7e:	bd90      	pop	{r4, r7, pc}
 8001e80:	0801f2a0 	.word	0x0801f2a0

08001e84 <marte__kernel___size__3>:
 8001e84:	b490      	push	{r4, r7}
 8001e86:	b082      	sub	sp, #8
 8001e88:	af00      	add	r7, sp, #0
 8001e8a:	6078      	str	r0, [r7, #4]
 8001e8c:	f44f 73e0 	mov.w	r3, #448	; 0x1c0
 8001e90:	f04f 0400 	mov.w	r4, #0
 8001e94:	4618      	mov	r0, r3
 8001e96:	4621      	mov	r1, r4
 8001e98:	3708      	adds	r7, #8
 8001e9a:	46bd      	mov	sp, r7
 8001e9c:	bc90      	pop	{r4, r7}
 8001e9e:	4770      	bx	lr

08001ea0 <marte__kernel__Oeq__4>:
 8001ea0:	b590      	push	{r4, r7, lr}
 8001ea2:	b083      	sub	sp, #12
 8001ea4:	af00      	add	r7, sp, #0
 8001ea6:	6078      	str	r0, [r7, #4]
 8001ea8:	6039      	str	r1, [r7, #0]
 8001eaa:	687b      	ldr	r3, [r7, #4]
 8001eac:	683a      	ldr	r2, [r7, #0]
 8001eae:	4611      	mov	r1, r2
 8001eb0:	4618      	mov	r0, r3
 8001eb2:	f7ff ff89 	bl	8001dc8 <marte__kernel__timed_events_lists__Oeq__2>
 8001eb6:	4603      	mov	r3, r0
 8001eb8:	2b00      	cmp	r3, #0
 8001eba:	d03b      	beq.n	8001f34 <marte__kernel__Oeq__4+0x94>
 8001ebc:	687b      	ldr	r3, [r7, #4]
 8001ebe:	e9d3 1206 	ldrd	r1, r2, [r3, #24]
 8001ec2:	683b      	ldr	r3, [r7, #0]
 8001ec4:	e9d3 3406 	ldrd	r3, r4, [r3, #24]
 8001ec8:	42a2      	cmp	r2, r4
 8001eca:	bf08      	it	eq
 8001ecc:	4299      	cmpeq	r1, r3
 8001ece:	d131      	bne.n	8001f34 <marte__kernel__Oeq__4+0x94>
 8001ed0:	687b      	ldr	r3, [r7, #4]
 8001ed2:	e9d3 1208 	ldrd	r1, r2, [r3, #32]
 8001ed6:	683b      	ldr	r3, [r7, #0]
 8001ed8:	e9d3 3408 	ldrd	r3, r4, [r3, #32]
 8001edc:	42a2      	cmp	r2, r4
 8001ede:	bf08      	it	eq
 8001ee0:	4299      	cmpeq	r1, r3
 8001ee2:	d127      	bne.n	8001f34 <marte__kernel__Oeq__4+0x94>
 8001ee4:	687b      	ldr	r3, [r7, #4]
 8001ee6:	f893 3028 	ldrb.w	r3, [r3, #40]	; 0x28
 8001eea:	f083 0301 	eor.w	r3, r3, #1
 8001eee:	b2da      	uxtb	r2, r3
 8001ef0:	683b      	ldr	r3, [r7, #0]
 8001ef2:	f893 3028 	ldrb.w	r3, [r3, #40]	; 0x28
 8001ef6:	4053      	eors	r3, r2
 8001ef8:	b2db      	uxtb	r3, r3
 8001efa:	2b00      	cmp	r3, #0
 8001efc:	d01a      	beq.n	8001f34 <marte__kernel__Oeq__4+0x94>
 8001efe:	687b      	ldr	r3, [r7, #4]
 8001f00:	6ada      	ldr	r2, [r3, #44]	; 0x2c
 8001f02:	683b      	ldr	r3, [r7, #0]
 8001f04:	6adb      	ldr	r3, [r3, #44]	; 0x2c
 8001f06:	429a      	cmp	r2, r3
 8001f08:	d114      	bne.n	8001f34 <marte__kernel__Oeq__4+0x94>
 8001f0a:	687b      	ldr	r3, [r7, #4]
 8001f0c:	6b1a      	ldr	r2, [r3, #48]	; 0x30
 8001f0e:	683b      	ldr	r3, [r7, #0]
 8001f10:	6b1b      	ldr	r3, [r3, #48]	; 0x30
 8001f12:	429a      	cmp	r2, r3
 8001f14:	d10e      	bne.n	8001f34 <marte__kernel__Oeq__4+0x94>
 8001f16:	687b      	ldr	r3, [r7, #4]
 8001f18:	f893 3034 	ldrb.w	r3, [r3, #52]	; 0x34
 8001f1c:	f083 0301 	eor.w	r3, r3, #1
 8001f20:	b2da      	uxtb	r2, r3
 8001f22:	683b      	ldr	r3, [r7, #0]
 8001f24:	f893 3034 	ldrb.w	r3, [r3, #52]	; 0x34
 8001f28:	4053      	eors	r3, r2
 8001f2a:	b2db      	uxtb	r3, r3
 8001f2c:	2b00      	cmp	r3, #0
 8001f2e:	d001      	beq.n	8001f34 <marte__kernel__Oeq__4+0x94>
 8001f30:	2301      	movs	r3, #1
 8001f32:	e000      	b.n	8001f36 <marte__kernel__Oeq__4+0x96>
 8001f34:	2300      	movs	r3, #0
 8001f36:	4618      	mov	r0, r3
 8001f38:	370c      	adds	r7, #12
 8001f3a:	46bd      	mov	sp, r7
 8001f3c:	bd90      	pop	{r4, r7, pc}
 8001f3e:	bf00      	nop

08001f40 <marte__kernel___assign__3>:
 8001f40:	b4f0      	push	{r4, r5, r6, r7}
 8001f42:	b082      	sub	sp, #8
 8001f44:	af00      	add	r7, sp, #0
 8001f46:	6078      	str	r0, [r7, #4]
 8001f48:	6039      	str	r1, [r7, #0]
 8001f4a:	687b      	ldr	r3, [r7, #4]
 8001f4c:	681e      	ldr	r6, [r3, #0]
 8001f4e:	687a      	ldr	r2, [r7, #4]
 8001f50:	683b      	ldr	r3, [r7, #0]
 8001f52:	4614      	mov	r4, r2
 8001f54:	461d      	mov	r5, r3
 8001f56:	cd0f      	ldmia	r5!, {r0, r1, r2, r3}
 8001f58:	c40f      	stmia	r4!, {r0, r1, r2, r3}
 8001f5a:	cd0f      	ldmia	r5!, {r0, r1, r2, r3}
 8001f5c:	c40f      	stmia	r4!, {r0, r1, r2, r3}
 8001f5e:	cd0f      	ldmia	r5!, {r0, r1, r2, r3}
 8001f60:	c40f      	stmia	r4!, {r0, r1, r2, r3}
 8001f62:	e895 0003 	ldmia.w	r5, {r0, r1}
 8001f66:	e884 0003 	stmia.w	r4, {r0, r1}
 8001f6a:	687b      	ldr	r3, [r7, #4]
 8001f6c:	601e      	str	r6, [r3, #0]
 8001f6e:	3708      	adds	r7, #8
 8001f70:	46bd      	mov	sp, r7
 8001f72:	bcf0      	pop	{r4, r5, r6, r7}
 8001f74:	4770      	bx	lr
 8001f76:	bf00      	nop

08001f78 <marte__kernel__cpu_time_timed_events_lists__elementIP>:
 8001f78:	b580      	push	{r7, lr}
 8001f7a:	b082      	sub	sp, #8
 8001f7c:	af00      	add	r7, sp, #0
 8001f7e:	6078      	str	r0, [r7, #4]
 8001f80:	460b      	mov	r3, r1
 8001f82:	70fb      	strb	r3, [r7, #3]
 8001f84:	78fb      	ldrb	r3, [r7, #3]
 8001f86:	2b00      	cmp	r3, #0
 8001f88:	d002      	beq.n	8001f90 <marte__kernel__cpu_time_timed_events_lists__elementIP+0x18>
 8001f8a:	4a07      	ldr	r2, [pc, #28]	; (8001fa8 <marte__kernel__cpu_time_timed_events_lists__elementIP+0x30>)
 8001f8c:	687b      	ldr	r3, [r7, #4]
 8001f8e:	601a      	str	r2, [r3, #0]
 8001f90:	687b      	ldr	r3, [r7, #4]
 8001f92:	2100      	movs	r1, #0
 8001f94:	4618      	mov	r0, r3
 8001f96:	f7ff ff55 	bl	8001e44 <marte__kernel__cpu_time_timed_eventIP>
 8001f9a:	687b      	ldr	r3, [r7, #4]
 8001f9c:	2200      	movs	r2, #0
 8001f9e:	63da      	str	r2, [r3, #60]	; 0x3c
 8001fa0:	3708      	adds	r7, #8
 8001fa2:	46bd      	mov	sp, r7
 8001fa4:	bd80      	pop	{r7, pc}
 8001fa6:	bf00      	nop
 8001fa8:	0801edf4 	.word	0x0801edf4

08001fac <marte__kernel__cpu_time_timed_events_lists___size__2>:
 8001fac:	b490      	push	{r4, r7}
 8001fae:	b082      	sub	sp, #8
 8001fb0:	af00      	add	r7, sp, #0
 8001fb2:	6078      	str	r0, [r7, #4]
 8001fb4:	f44f 7300 	mov.w	r3, #512	; 0x200
 8001fb8:	f04f 0400 	mov.w	r4, #0
 8001fbc:	4618      	mov	r0, r3
 8001fbe:	4621      	mov	r1, r4
 8001fc0:	3708      	adds	r7, #8
 8001fc2:	46bd      	mov	sp, r7
 8001fc4:	bc90      	pop	{r4, r7}
 8001fc6:	4770      	bx	lr

08001fc8 <marte__kernel__cpu_time_timed_events_lists__Oeq__2>:
 8001fc8:	b580      	push	{r7, lr}
 8001fca:	b082      	sub	sp, #8
 8001fcc:	af00      	add	r7, sp, #0
 8001fce:	6078      	str	r0, [r7, #4]
 8001fd0:	6039      	str	r1, [r7, #0]
 8001fd2:	687b      	ldr	r3, [r7, #4]
 8001fd4:	683a      	ldr	r2, [r7, #0]
 8001fd6:	4611      	mov	r1, r2
 8001fd8:	4618      	mov	r0, r3
 8001fda:	f7ff ff61 	bl	8001ea0 <marte__kernel__Oeq__4>
 8001fde:	4603      	mov	r3, r0
 8001fe0:	2b00      	cmp	r3, #0
 8001fe2:	d014      	beq.n	800200e <marte__kernel__cpu_time_timed_events_lists__Oeq__2+0x46>
 8001fe4:	687b      	ldr	r3, [r7, #4]
 8001fe6:	f893 3038 	ldrb.w	r3, [r3, #56]	; 0x38
 8001fea:	f083 0301 	eor.w	r3, r3, #1
 8001fee:	b2da      	uxtb	r2, r3
 8001ff0:	683b      	ldr	r3, [r7, #0]
 8001ff2:	f893 3038 	ldrb.w	r3, [r3, #56]	; 0x38
 8001ff6:	4053      	eors	r3, r2
 8001ff8:	b2db      	uxtb	r3, r3
 8001ffa:	2b00      	cmp	r3, #0
 8001ffc:	d007      	beq.n	800200e <marte__kernel__cpu_time_timed_events_lists__Oeq__2+0x46>
 8001ffe:	687b      	ldr	r3, [r7, #4]
 8002000:	6bda      	ldr	r2, [r3, #60]	; 0x3c
 8002002:	683b      	ldr	r3, [r7, #0]
 8002004:	6bdb      	ldr	r3, [r3, #60]	; 0x3c
 8002006:	429a      	cmp	r2, r3
 8002008:	d101      	bne.n	800200e <marte__kernel__cpu_time_timed_events_lists__Oeq__2+0x46>
 800200a:	2301      	movs	r3, #1
 800200c:	e000      	b.n	8002010 <marte__kernel__cpu_time_timed_events_lists__Oeq__2+0x48>
 800200e:	2300      	movs	r3, #0
 8002010:	4618      	mov	r0, r3
 8002012:	3708      	adds	r7, #8
 8002014:	46bd      	mov	sp, r7
 8002016:	bd80      	pop	{r7, pc}

08002018 <marte__kernel__cpu_time_timed_events_lists___assign__2>:
 8002018:	b4f0      	push	{r4, r5, r6, r7}
 800201a:	b082      	sub	sp, #8
 800201c:	af00      	add	r7, sp, #0
 800201e:	6078      	str	r0, [r7, #4]
 8002020:	6039      	str	r1, [r7, #0]
 8002022:	687b      	ldr	r3, [r7, #4]
 8002024:	681e      	ldr	r6, [r3, #0]
 8002026:	687a      	ldr	r2, [r7, #4]
 8002028:	683b      	ldr	r3, [r7, #0]
 800202a:	4614      	mov	r4, r2
 800202c:	461d      	mov	r5, r3
 800202e:	cd0f      	ldmia	r5!, {r0, r1, r2, r3}
 8002030:	c40f      	stmia	r4!, {r0, r1, r2, r3}
 8002032:	cd0f      	ldmia	r5!, {r0, r1, r2, r3}
 8002034:	c40f      	stmia	r4!, {r0, r1, r2, r3}
 8002036:	cd0f      	ldmia	r5!, {r0, r1, r2, r3}
 8002038:	c40f      	stmia	r4!, {r0, r1, r2, r3}
 800203a:	e895 000f 	ldmia.w	r5, {r0, r1, r2, r3}
 800203e:	e884 000f 	stmia.w	r4, {r0, r1, r2, r3}
 8002042:	687b      	ldr	r3, [r7, #4]
 8002044:	601e      	str	r6, [r3, #0]
 8002046:	3708      	adds	r7, #8
 8002048:	46bd      	mov	sp, r7
 800204a:	bcf0      	pop	{r4, r5, r6, r7}
 800204c:	4770      	bx	lr
 800204e:	bf00      	nop

08002050 <marte__kernel__tcbIP>:
 8002050:	b590      	push	{r4, r7, lr}
 8002052:	b083      	sub	sp, #12
 8002054:	af00      	add	r7, sp, #0
 8002056:	6078      	str	r0, [r7, #4]
 8002058:	460b      	mov	r3, r1
 800205a:	70fb      	strb	r3, [r7, #3]
 800205c:	78fb      	ldrb	r3, [r7, #3]
 800205e:	2b00      	cmp	r3, #0
 8002060:	d002      	beq.n	8002068 <marte__kernel__tcbIP+0x18>
 8002062:	4a65      	ldr	r2, [pc, #404]	; (80021f8 <marte__kernel__tcbIP+0x1a8>)
 8002064:	687b      	ldr	r3, [r7, #4]
 8002066:	601a      	str	r2, [r3, #0]
 8002068:	687b      	ldr	r3, [r7, #4]
 800206a:	2200      	movs	r2, #0
 800206c:	605a      	str	r2, [r3, #4]
 800206e:	687b      	ldr	r3, [r7, #4]
 8002070:	4a62      	ldr	r2, [pc, #392]	; (80021fc <marte__kernel__tcbIP+0x1ac>)
 8002072:	609a      	str	r2, [r3, #8]
 8002074:	687b      	ldr	r3, [r7, #4]
 8002076:	2200      	movs	r2, #0
 8002078:	60da      	str	r2, [r3, #12]
 800207a:	687b      	ldr	r3, [r7, #4]
 800207c:	2202      	movs	r2, #2
 800207e:	741a      	strb	r2, [r3, #16]
 8002080:	687b      	ldr	r3, [r7, #4]
 8002082:	2202      	movs	r2, #2
 8002084:	745a      	strb	r2, [r3, #17]
 8002086:	687b      	ldr	r3, [r7, #4]
 8002088:	2200      	movs	r2, #0
 800208a:	619a      	str	r2, [r3, #24]
 800208c:	687b      	ldr	r3, [r7, #4]
 800208e:	2200      	movs	r2, #0
 8002090:	61da      	str	r2, [r3, #28]
 8002092:	687b      	ldr	r3, [r7, #4]
 8002094:	2200      	movs	r2, #0
 8002096:	621a      	str	r2, [r3, #32]
 8002098:	687b      	ldr	r3, [r7, #4]
 800209a:	2200      	movs	r2, #0
 800209c:	625a      	str	r2, [r3, #36]	; 0x24
 800209e:	687b      	ldr	r3, [r7, #4]
 80020a0:	2200      	movs	r2, #0
 80020a2:	629a      	str	r2, [r3, #40]	; 0x28
 80020a4:	687b      	ldr	r3, [r7, #4]
 80020a6:	2200      	movs	r2, #0
 80020a8:	62da      	str	r2, [r3, #44]	; 0x2c
 80020aa:	687b      	ldr	r3, [r7, #4]
 80020ac:	2200      	movs	r2, #0
 80020ae:	861a      	strh	r2, [r3, #48]	; 0x30
 80020b0:	687b      	ldr	r3, [r7, #4]
 80020b2:	2200      	movs	r2, #0
 80020b4:	865a      	strh	r2, [r3, #50]	; 0x32
 80020b6:	687a      	ldr	r2, [r7, #4]
 80020b8:	f04f 0300 	mov.w	r3, #0
 80020bc:	f04f 0400 	mov.w	r4, #0
 80020c0:	e9c2 340e 	strd	r3, r4, [r2, #56]	; 0x38
 80020c4:	687a      	ldr	r2, [r7, #4]
 80020c6:	f04f 0300 	mov.w	r3, #0
 80020ca:	f04f 0400 	mov.w	r4, #0
 80020ce:	e9c2 3410 	strd	r3, r4, [r2, #64]	; 0x40
 80020d2:	687a      	ldr	r2, [r7, #4]
 80020d4:	f04f 0300 	mov.w	r3, #0
 80020d8:	f04f 0400 	mov.w	r4, #0
 80020dc:	e9c2 3418 	strd	r3, r4, [r2, #96]	; 0x60
 80020e0:	687b      	ldr	r3, [r7, #4]
 80020e2:	3368      	adds	r3, #104	; 0x68
 80020e4:	2101      	movs	r1, #1
 80020e6:	4618      	mov	r0, r3
 80020e8:	f7ff ff46 	bl	8001f78 <marte__kernel__cpu_time_timed_events_lists__elementIP>
 80020ec:	687b      	ldr	r3, [r7, #4]
 80020ee:	2200      	movs	r2, #0
 80020f0:	f8c3 20a8 	str.w	r2, [r3, #168]	; 0xa8
 80020f4:	687a      	ldr	r2, [r7, #4]
 80020f6:	f04f 0300 	mov.w	r3, #0
 80020fa:	f04f 0400 	mov.w	r4, #0
 80020fe:	e9c2 342c 	strd	r3, r4, [r2, #176]	; 0xb0
 8002102:	687a      	ldr	r2, [r7, #4]
 8002104:	f04f 0300 	mov.w	r3, #0
 8002108:	f04f 0400 	mov.w	r4, #0
 800210c:	e9c2 342e 	strd	r3, r4, [r2, #184]	; 0xb8
 8002110:	687b      	ldr	r3, [r7, #4]
 8002112:	2200      	movs	r2, #0
 8002114:	f8c3 20c4 	str.w	r2, [r3, #196]	; 0xc4
 8002118:	687b      	ldr	r3, [r7, #4]
 800211a:	2200      	movs	r2, #0
 800211c:	f883 20c8 	strb.w	r2, [r3, #200]	; 0xc8
 8002120:	687b      	ldr	r3, [r7, #4]
 8002122:	2200      	movs	r2, #0
 8002124:	f8c3 20cc 	str.w	r2, [r3, #204]	; 0xcc
 8002128:	687a      	ldr	r2, [r7, #4]
 800212a:	f04f 0300 	mov.w	r3, #0
 800212e:	f04f 0400 	mov.w	r4, #0
 8002132:	e9c2 3434 	strd	r3, r4, [r2, #208]	; 0xd0
 8002136:	687b      	ldr	r3, [r7, #4]
 8002138:	2200      	movs	r2, #0
 800213a:	f8c3 20d8 	str.w	r2, [r3, #216]	; 0xd8
 800213e:	687b      	ldr	r3, [r7, #4]
 8002140:	2200      	movs	r2, #0
 8002142:	f8c3 20dc 	str.w	r2, [r3, #220]	; 0xdc
 8002146:	687a      	ldr	r2, [r7, #4]
 8002148:	f04f 0300 	mov.w	r3, #0
 800214c:	f04f 0400 	mov.w	r4, #0
 8002150:	e9c2 3438 	strd	r3, r4, [r2, #224]	; 0xe0
 8002154:	687a      	ldr	r2, [r7, #4]
 8002156:	f04f 0300 	mov.w	r3, #0
 800215a:	f04f 0400 	mov.w	r4, #0
 800215e:	e9c2 343a 	strd	r3, r4, [r2, #232]	; 0xe8
 8002162:	687b      	ldr	r3, [r7, #4]
 8002164:	2200      	movs	r2, #0
 8002166:	f8c3 20f0 	str.w	r2, [r3, #240]	; 0xf0
 800216a:	687b      	ldr	r3, [r7, #4]
 800216c:	2200      	movs	r2, #0
 800216e:	f8c3 20f4 	str.w	r2, [r3, #244]	; 0xf4
 8002172:	687b      	ldr	r3, [r7, #4]
 8002174:	2200      	movs	r2, #0
 8002176:	f8c3 20f8 	str.w	r2, [r3, #248]	; 0xf8
 800217a:	687b      	ldr	r3, [r7, #4]
 800217c:	2200      	movs	r2, #0
 800217e:	f8c3 20fc 	str.w	r2, [r3, #252]	; 0xfc
 8002182:	687b      	ldr	r3, [r7, #4]
 8002184:	2200      	movs	r2, #0
 8002186:	f8c3 2108 	str.w	r2, [r3, #264]	; 0x108
 800218a:	687b      	ldr	r3, [r7, #4]
 800218c:	2200      	movs	r2, #0
 800218e:	f8c3 210c 	str.w	r2, [r3, #268]	; 0x10c
 8002192:	687b      	ldr	r3, [r7, #4]
 8002194:	2200      	movs	r2, #0
 8002196:	f8c3 2110 	str.w	r2, [r3, #272]	; 0x110
 800219a:	687b      	ldr	r3, [r7, #4]
 800219c:	2200      	movs	r2, #0
 800219e:	f8c3 2114 	str.w	r2, [r3, #276]	; 0x114
 80021a2:	687b      	ldr	r3, [r7, #4]
 80021a4:	2200      	movs	r2, #0
 80021a6:	f8c3 211c 	str.w	r2, [r3, #284]	; 0x11c
 80021aa:	687b      	ldr	r3, [r7, #4]
 80021ac:	2200      	movs	r2, #0
 80021ae:	f8c3 2120 	str.w	r2, [r3, #288]	; 0x120
 80021b2:	687b      	ldr	r3, [r7, #4]
 80021b4:	2200      	movs	r2, #0
 80021b6:	f883 2124 	strb.w	r2, [r3, #292]	; 0x124
 80021ba:	687b      	ldr	r3, [r7, #4]
 80021bc:	2200      	movs	r2, #0
 80021be:	f8c3 2128 	str.w	r2, [r3, #296]	; 0x128
 80021c2:	687b      	ldr	r3, [r7, #4]
 80021c4:	2200      	movs	r2, #0
 80021c6:	f8a3 212c 	strh.w	r2, [r3, #300]	; 0x12c
 80021ca:	687b      	ldr	r3, [r7, #4]
 80021cc:	2200      	movs	r2, #0
 80021ce:	f8c3 2154 	str.w	r2, [r3, #340]	; 0x154
 80021d2:	687b      	ldr	r3, [r7, #4]
 80021d4:	2200      	movs	r2, #0
 80021d6:	f8c3 2158 	str.w	r2, [r3, #344]	; 0x158
 80021da:	687b      	ldr	r3, [r7, #4]
 80021dc:	2200      	movs	r2, #0
 80021de:	f8c3 215c 	str.w	r2, [r3, #348]	; 0x15c
 80021e2:	687b      	ldr	r3, [r7, #4]
 80021e4:	2200      	movs	r2, #0
 80021e6:	f883 2160 	strb.w	r2, [r3, #352]	; 0x160
 80021ea:	687b      	ldr	r3, [r7, #4]
 80021ec:	2200      	movs	r2, #0
 80021ee:	f8c3 2164 	str.w	r2, [r3, #356]	; 0x164
 80021f2:	370c      	adds	r7, #12
 80021f4:	46bd      	mov	sp, r7
 80021f6:	bd90      	pop	{r4, r7, pc}
 80021f8:	0801f308 	.word	0x0801f308
 80021fc:	555f4e54 	.word	0x555f4e54

08002200 <marte__kernel___size__4>:
 8002200:	b490      	push	{r4, r7}
 8002202:	b082      	sub	sp, #8
 8002204:	af00      	add	r7, sp, #0
 8002206:	6078      	str	r0, [r7, #4]
 8002208:	f44f 6348 	mov.w	r3, #3200	; 0xc80
 800220c:	f04f 0400 	mov.w	r4, #0
 8002210:	4618      	mov	r0, r3
 8002212:	4621      	mov	r1, r4
 8002214:	3708      	adds	r7, #8
 8002216:	46bd      	mov	sp, r7
 8002218:	bc90      	pop	{r4, r7}
 800221a:	4770      	bx	lr

0800221c <marte__kernel__Oeq__E140s__5.8513>:
 800221c:	b490      	push	{r4, r7}
 800221e:	b084      	sub	sp, #16
 8002220:	af00      	add	r7, sp, #0
 8002222:	60f8      	str	r0, [r7, #12]
 8002224:	60b9      	str	r1, [r7, #8]
 8002226:	f8c7 c004 	str.w	ip, [r7, #4]
 800222a:	2301      	movs	r3, #1
 800222c:	2b04      	cmp	r3, #4
 800222e:	dc26      	bgt.n	800227e <marte__kernel__Oeq__E140s__5.8513+0x62>
 8002230:	4618      	mov	r0, r3
 8002232:	68f9      	ldr	r1, [r7, #12]
 8002234:	f06f 4260 	mvn.w	r2, #3758096384	; 0xe0000000
 8002238:	4402      	add	r2, r0
 800223a:	f851 1032 	ldr.w	r1, [r1, r2, lsl #3]
 800223e:	461c      	mov	r4, r3
 8002240:	68b8      	ldr	r0, [r7, #8]
 8002242:	f06f 4260 	mvn.w	r2, #3758096384	; 0xe0000000
 8002246:	4422      	add	r2, r4
 8002248:	f850 2032 	ldr.w	r2, [r0, r2, lsl #3]
 800224c:	4291      	cmp	r1, r2
 800224e:	d111      	bne.n	8002274 <marte__kernel__Oeq__E140s__5.8513+0x58>
 8002250:	4618      	mov	r0, r3
 8002252:	68f9      	ldr	r1, [r7, #12]
 8002254:	f06f 4260 	mvn.w	r2, #3758096384	; 0xe0000000
 8002258:	4402      	add	r2, r0
 800225a:	00d2      	lsls	r2, r2, #3
 800225c:	440a      	add	r2, r1
 800225e:	6851      	ldr	r1, [r2, #4]
 8002260:	461c      	mov	r4, r3
 8002262:	68b8      	ldr	r0, [r7, #8]
 8002264:	f06f 4260 	mvn.w	r2, #3758096384	; 0xe0000000
 8002268:	4422      	add	r2, r4
 800226a:	00d2      	lsls	r2, r2, #3
 800226c:	4402      	add	r2, r0
 800226e:	6852      	ldr	r2, [r2, #4]
 8002270:	4291      	cmp	r1, r2
 8002272:	d001      	beq.n	8002278 <marte__kernel__Oeq__E140s__5.8513+0x5c>
 8002274:	2300      	movs	r3, #0
 8002276:	e003      	b.n	8002280 <marte__kernel__Oeq__E140s__5.8513+0x64>
 8002278:	3301      	adds	r3, #1
 800227a:	b25b      	sxtb	r3, r3
 800227c:	e7d6      	b.n	800222c <marte__kernel__Oeq__E140s__5.8513+0x10>
 800227e:	2301      	movs	r3, #1
 8002280:	4618      	mov	r0, r3
 8002282:	3710      	adds	r7, #16
 8002284:	46bd      	mov	sp, r7
 8002286:	bc90      	pop	{r4, r7}
 8002288:	4770      	bx	lr
 800228a:	bf00      	nop

0800228c <marte__kernel__Oeq__5>:
 800228c:	b590      	push	{r4, r7, lr}
 800228e:	b085      	sub	sp, #20
 8002290:	af00      	add	r7, sp, #0
 8002292:	6078      	str	r0, [r7, #4]
 8002294:	6039      	str	r1, [r7, #0]
 8002296:	f107 0320 	add.w	r3, r7, #32
 800229a:	60fb      	str	r3, [r7, #12]
 800229c:	687b      	ldr	r3, [r7, #4]
 800229e:	685a      	ldr	r2, [r3, #4]
 80022a0:	683b      	ldr	r3, [r7, #0]
 80022a2:	685b      	ldr	r3, [r3, #4]
 80022a4:	429a      	cmp	r2, r3
 80022a6:	f040 822b 	bne.w	8002700 <marte__kernel__Oeq__5+0x474>
 80022aa:	687b      	ldr	r3, [r7, #4]
 80022ac:	f103 0008 	add.w	r0, r3, #8
 80022b0:	683b      	ldr	r3, [r7, #0]
 80022b2:	3308      	adds	r3, #8
 80022b4:	2204      	movs	r2, #4
 80022b6:	4619      	mov	r1, r3
 80022b8:	f011 facc 	bl	8013854 <memcmp>
 80022bc:	4603      	mov	r3, r0
 80022be:	2b00      	cmp	r3, #0
 80022c0:	f040 821e 	bne.w	8002700 <marte__kernel__Oeq__5+0x474>
 80022c4:	687b      	ldr	r3, [r7, #4]
 80022c6:	68da      	ldr	r2, [r3, #12]
 80022c8:	683b      	ldr	r3, [r7, #0]
 80022ca:	68db      	ldr	r3, [r3, #12]
 80022cc:	429a      	cmp	r2, r3
 80022ce:	f040 8217 	bne.w	8002700 <marte__kernel__Oeq__5+0x474>
 80022d2:	687b      	ldr	r3, [r7, #4]
 80022d4:	7c1a      	ldrb	r2, [r3, #16]
 80022d6:	683b      	ldr	r3, [r7, #0]
 80022d8:	7c1b      	ldrb	r3, [r3, #16]
 80022da:	429a      	cmp	r2, r3
 80022dc:	f040 8210 	bne.w	8002700 <marte__kernel__Oeq__5+0x474>
 80022e0:	687b      	ldr	r3, [r7, #4]
 80022e2:	7c5a      	ldrb	r2, [r3, #17]
 80022e4:	683b      	ldr	r3, [r7, #0]
 80022e6:	7c5b      	ldrb	r3, [r3, #17]
 80022e8:	429a      	cmp	r2, r3
 80022ea:	f040 8209 	bne.w	8002700 <marte__kernel__Oeq__5+0x474>
 80022ee:	687b      	ldr	r3, [r7, #4]
 80022f0:	695a      	ldr	r2, [r3, #20]
 80022f2:	683b      	ldr	r3, [r7, #0]
 80022f4:	695b      	ldr	r3, [r3, #20]
 80022f6:	429a      	cmp	r2, r3
 80022f8:	f040 8202 	bne.w	8002700 <marte__kernel__Oeq__5+0x474>
 80022fc:	687b      	ldr	r3, [r7, #4]
 80022fe:	699a      	ldr	r2, [r3, #24]
 8002300:	683b      	ldr	r3, [r7, #0]
 8002302:	699b      	ldr	r3, [r3, #24]
 8002304:	429a      	cmp	r2, r3
 8002306:	f040 81fb 	bne.w	8002700 <marte__kernel__Oeq__5+0x474>
 800230a:	687b      	ldr	r3, [r7, #4]
 800230c:	69da      	ldr	r2, [r3, #28]
 800230e:	683b      	ldr	r3, [r7, #0]
 8002310:	69db      	ldr	r3, [r3, #28]
 8002312:	429a      	cmp	r2, r3
 8002314:	f040 81f4 	bne.w	8002700 <marte__kernel__Oeq__5+0x474>
 8002318:	687b      	ldr	r3, [r7, #4]
 800231a:	6a1a      	ldr	r2, [r3, #32]
 800231c:	683b      	ldr	r3, [r7, #0]
 800231e:	6a1b      	ldr	r3, [r3, #32]
 8002320:	429a      	cmp	r2, r3
 8002322:	f040 81ed 	bne.w	8002700 <marte__kernel__Oeq__5+0x474>
 8002326:	687b      	ldr	r3, [r7, #4]
 8002328:	6a5a      	ldr	r2, [r3, #36]	; 0x24
 800232a:	683b      	ldr	r3, [r7, #0]
 800232c:	6a5b      	ldr	r3, [r3, #36]	; 0x24
 800232e:	429a      	cmp	r2, r3
 8002330:	f040 81e6 	bne.w	8002700 <marte__kernel__Oeq__5+0x474>
 8002334:	687b      	ldr	r3, [r7, #4]
 8002336:	6a9a      	ldr	r2, [r3, #40]	; 0x28
 8002338:	683b      	ldr	r3, [r7, #0]
 800233a:	6a9b      	ldr	r3, [r3, #40]	; 0x28
 800233c:	429a      	cmp	r2, r3
 800233e:	f040 81df 	bne.w	8002700 <marte__kernel__Oeq__5+0x474>
 8002342:	687b      	ldr	r3, [r7, #4]
 8002344:	6ada      	ldr	r2, [r3, #44]	; 0x2c
 8002346:	683b      	ldr	r3, [r7, #0]
 8002348:	6adb      	ldr	r3, [r3, #44]	; 0x2c
 800234a:	429a      	cmp	r2, r3
 800234c:	f040 81d8 	bne.w	8002700 <marte__kernel__Oeq__5+0x474>
 8002350:	687b      	ldr	r3, [r7, #4]
 8002352:	8e1a      	ldrh	r2, [r3, #48]	; 0x30
 8002354:	683b      	ldr	r3, [r7, #0]
 8002356:	8e1b      	ldrh	r3, [r3, #48]	; 0x30
 8002358:	429a      	cmp	r2, r3
 800235a:	f040 81d1 	bne.w	8002700 <marte__kernel__Oeq__5+0x474>
 800235e:	687b      	ldr	r3, [r7, #4]
 8002360:	8e5a      	ldrh	r2, [r3, #50]	; 0x32
 8002362:	683b      	ldr	r3, [r7, #0]
 8002364:	8e5b      	ldrh	r3, [r3, #50]	; 0x32
 8002366:	429a      	cmp	r2, r3
 8002368:	f040 81ca 	bne.w	8002700 <marte__kernel__Oeq__5+0x474>
 800236c:	687b      	ldr	r3, [r7, #4]
 800236e:	e9d3 120e 	ldrd	r1, r2, [r3, #56]	; 0x38
 8002372:	683b      	ldr	r3, [r7, #0]
 8002374:	e9d3 340e 	ldrd	r3, r4, [r3, #56]	; 0x38
 8002378:	42a2      	cmp	r2, r4
 800237a:	bf08      	it	eq
 800237c:	4299      	cmpeq	r1, r3
 800237e:	f040 81bf 	bne.w	8002700 <marte__kernel__Oeq__5+0x474>
 8002382:	687b      	ldr	r3, [r7, #4]
 8002384:	e9d3 1210 	ldrd	r1, r2, [r3, #64]	; 0x40
 8002388:	683b      	ldr	r3, [r7, #0]
 800238a:	e9d3 3410 	ldrd	r3, r4, [r3, #64]	; 0x40
 800238e:	42a2      	cmp	r2, r4
 8002390:	bf08      	it	eq
 8002392:	4299      	cmpeq	r1, r3
 8002394:	f040 81b4 	bne.w	8002700 <marte__kernel__Oeq__5+0x474>
 8002398:	687b      	ldr	r3, [r7, #4]
 800239a:	e9d3 1212 	ldrd	r1, r2, [r3, #72]	; 0x48
 800239e:	683b      	ldr	r3, [r7, #0]
 80023a0:	e9d3 3412 	ldrd	r3, r4, [r3, #72]	; 0x48
 80023a4:	42a2      	cmp	r2, r4
 80023a6:	bf08      	it	eq
 80023a8:	4299      	cmpeq	r1, r3
 80023aa:	f040 81a9 	bne.w	8002700 <marte__kernel__Oeq__5+0x474>
 80023ae:	687b      	ldr	r3, [r7, #4]
 80023b0:	e9d3 1214 	ldrd	r1, r2, [r3, #80]	; 0x50
 80023b4:	683b      	ldr	r3, [r7, #0]
 80023b6:	e9d3 3414 	ldrd	r3, r4, [r3, #80]	; 0x50
 80023ba:	42a2      	cmp	r2, r4
 80023bc:	bf08      	it	eq
 80023be:	4299      	cmpeq	r1, r3
 80023c0:	f040 819e 	bne.w	8002700 <marte__kernel__Oeq__5+0x474>
 80023c4:	687b      	ldr	r3, [r7, #4]
 80023c6:	f893 3058 	ldrb.w	r3, [r3, #88]	; 0x58
 80023ca:	f083 0301 	eor.w	r3, r3, #1
 80023ce:	b2da      	uxtb	r2, r3
 80023d0:	683b      	ldr	r3, [r7, #0]
 80023d2:	f893 3058 	ldrb.w	r3, [r3, #88]	; 0x58
 80023d6:	4053      	eors	r3, r2
 80023d8:	b2db      	uxtb	r3, r3
 80023da:	2b00      	cmp	r3, #0
 80023dc:	f000 8190 	beq.w	8002700 <marte__kernel__Oeq__5+0x474>
 80023e0:	687b      	ldr	r3, [r7, #4]
 80023e2:	e9d3 1218 	ldrd	r1, r2, [r3, #96]	; 0x60
 80023e6:	683b      	ldr	r3, [r7, #0]
 80023e8:	e9d3 3418 	ldrd	r3, r4, [r3, #96]	; 0x60
 80023ec:	42a2      	cmp	r2, r4
 80023ee:	bf08      	it	eq
 80023f0:	4299      	cmpeq	r1, r3
 80023f2:	f040 8185 	bne.w	8002700 <marte__kernel__Oeq__5+0x474>
 80023f6:	687b      	ldr	r3, [r7, #4]
 80023f8:	f103 0268 	add.w	r2, r3, #104	; 0x68
 80023fc:	683b      	ldr	r3, [r7, #0]
 80023fe:	3368      	adds	r3, #104	; 0x68
 8002400:	4619      	mov	r1, r3
 8002402:	4610      	mov	r0, r2
 8002404:	f7ff fde0 	bl	8001fc8 <marte__kernel__cpu_time_timed_events_lists__Oeq__2>
 8002408:	4603      	mov	r3, r0
 800240a:	2b00      	cmp	r3, #0
 800240c:	f000 8178 	beq.w	8002700 <marte__kernel__Oeq__5+0x474>
 8002410:	687b      	ldr	r3, [r7, #4]
 8002412:	f8d3 20a8 	ldr.w	r2, [r3, #168]	; 0xa8
 8002416:	683b      	ldr	r3, [r7, #0]
 8002418:	f8d3 30a8 	ldr.w	r3, [r3, #168]	; 0xa8
 800241c:	429a      	cmp	r2, r3
 800241e:	f040 816f 	bne.w	8002700 <marte__kernel__Oeq__5+0x474>
 8002422:	687b      	ldr	r3, [r7, #4]
 8002424:	e9d3 122c 	ldrd	r1, r2, [r3, #176]	; 0xb0
 8002428:	683b      	ldr	r3, [r7, #0]
 800242a:	e9d3 342c 	ldrd	r3, r4, [r3, #176]	; 0xb0
 800242e:	42a2      	cmp	r2, r4
 8002430:	bf08      	it	eq
 8002432:	4299      	cmpeq	r1, r3
 8002434:	f040 8164 	bne.w	8002700 <marte__kernel__Oeq__5+0x474>
 8002438:	687b      	ldr	r3, [r7, #4]
 800243a:	e9d3 122e 	ldrd	r1, r2, [r3, #184]	; 0xb8
 800243e:	683b      	ldr	r3, [r7, #0]
 8002440:	e9d3 342e 	ldrd	r3, r4, [r3, #184]	; 0xb8
 8002444:	42a2      	cmp	r2, r4
 8002446:	bf08      	it	eq
 8002448:	4299      	cmpeq	r1, r3
 800244a:	f040 8159 	bne.w	8002700 <marte__kernel__Oeq__5+0x474>
 800244e:	687b      	ldr	r3, [r7, #4]
 8002450:	f893 30c0 	ldrb.w	r3, [r3, #192]	; 0xc0
 8002454:	f083 0301 	eor.w	r3, r3, #1
 8002458:	b2da      	uxtb	r2, r3
 800245a:	683b      	ldr	r3, [r7, #0]
 800245c:	f893 30c0 	ldrb.w	r3, [r3, #192]	; 0xc0
 8002460:	4053      	eors	r3, r2
 8002462:	b2db      	uxtb	r3, r3
 8002464:	2b00      	cmp	r3, #0
 8002466:	f000 814b 	beq.w	8002700 <marte__kernel__Oeq__5+0x474>
 800246a:	687b      	ldr	r3, [r7, #4]
 800246c:	f893 30c1 	ldrb.w	r3, [r3, #193]	; 0xc1
 8002470:	f083 0301 	eor.w	r3, r3, #1
 8002474:	b2da      	uxtb	r2, r3
 8002476:	683b      	ldr	r3, [r7, #0]
 8002478:	f893 30c1 	ldrb.w	r3, [r3, #193]	; 0xc1
 800247c:	4053      	eors	r3, r2
 800247e:	b2db      	uxtb	r3, r3
 8002480:	2b00      	cmp	r3, #0
 8002482:	f000 813d 	beq.w	8002700 <marte__kernel__Oeq__5+0x474>
 8002486:	687b      	ldr	r3, [r7, #4]
 8002488:	f8d3 20c4 	ldr.w	r2, [r3, #196]	; 0xc4
 800248c:	683b      	ldr	r3, [r7, #0]
 800248e:	f8d3 30c4 	ldr.w	r3, [r3, #196]	; 0xc4
 8002492:	429a      	cmp	r2, r3
 8002494:	f040 8134 	bne.w	8002700 <marte__kernel__Oeq__5+0x474>
 8002498:	687b      	ldr	r3, [r7, #4]
 800249a:	f893 30c8 	ldrb.w	r3, [r3, #200]	; 0xc8
 800249e:	f083 0301 	eor.w	r3, r3, #1
 80024a2:	b2da      	uxtb	r2, r3
 80024a4:	683b      	ldr	r3, [r7, #0]
 80024a6:	f893 30c8 	ldrb.w	r3, [r3, #200]	; 0xc8
 80024aa:	4053      	eors	r3, r2
 80024ac:	b2db      	uxtb	r3, r3
 80024ae:	2b00      	cmp	r3, #0
 80024b0:	f000 8126 	beq.w	8002700 <marte__kernel__Oeq__5+0x474>
 80024b4:	687b      	ldr	r3, [r7, #4]
 80024b6:	f8d3 20cc 	ldr.w	r2, [r3, #204]	; 0xcc
 80024ba:	683b      	ldr	r3, [r7, #0]
 80024bc:	f8d3 30cc 	ldr.w	r3, [r3, #204]	; 0xcc
 80024c0:	429a      	cmp	r2, r3
 80024c2:	f040 811d 	bne.w	8002700 <marte__kernel__Oeq__5+0x474>
 80024c6:	687b      	ldr	r3, [r7, #4]
 80024c8:	e9d3 1234 	ldrd	r1, r2, [r3, #208]	; 0xd0
 80024cc:	683b      	ldr	r3, [r7, #0]
 80024ce:	e9d3 3434 	ldrd	r3, r4, [r3, #208]	; 0xd0
 80024d2:	42a2      	cmp	r2, r4
 80024d4:	bf08      	it	eq
 80024d6:	4299      	cmpeq	r1, r3
 80024d8:	f040 8112 	bne.w	8002700 <marte__kernel__Oeq__5+0x474>
 80024dc:	687b      	ldr	r3, [r7, #4]
 80024de:	f8d3 20d8 	ldr.w	r2, [r3, #216]	; 0xd8
 80024e2:	683b      	ldr	r3, [r7, #0]
 80024e4:	f8d3 30d8 	ldr.w	r3, [r3, #216]	; 0xd8
 80024e8:	429a      	cmp	r2, r3
 80024ea:	f040 8109 	bne.w	8002700 <marte__kernel__Oeq__5+0x474>
 80024ee:	687b      	ldr	r3, [r7, #4]
 80024f0:	f8d3 20dc 	ldr.w	r2, [r3, #220]	; 0xdc
 80024f4:	683b      	ldr	r3, [r7, #0]
 80024f6:	f8d3 30dc 	ldr.w	r3, [r3, #220]	; 0xdc
 80024fa:	429a      	cmp	r2, r3
 80024fc:	f040 8100 	bne.w	8002700 <marte__kernel__Oeq__5+0x474>
 8002500:	687b      	ldr	r3, [r7, #4]
 8002502:	e9d3 1238 	ldrd	r1, r2, [r3, #224]	; 0xe0
 8002506:	683b      	ldr	r3, [r7, #0]
 8002508:	e9d3 3438 	ldrd	r3, r4, [r3, #224]	; 0xe0
 800250c:	42a2      	cmp	r2, r4
 800250e:	bf08      	it	eq
 8002510:	4299      	cmpeq	r1, r3
 8002512:	f040 80f5 	bne.w	8002700 <marte__kernel__Oeq__5+0x474>
 8002516:	687b      	ldr	r3, [r7, #4]
 8002518:	e9d3 123a 	ldrd	r1, r2, [r3, #232]	; 0xe8
 800251c:	683b      	ldr	r3, [r7, #0]
 800251e:	e9d3 343a 	ldrd	r3, r4, [r3, #232]	; 0xe8
 8002522:	42a2      	cmp	r2, r4
 8002524:	bf08      	it	eq
 8002526:	4299      	cmpeq	r1, r3
 8002528:	f040 80ea 	bne.w	8002700 <marte__kernel__Oeq__5+0x474>
 800252c:	687b      	ldr	r3, [r7, #4]
 800252e:	f8d3 20f0 	ldr.w	r2, [r3, #240]	; 0xf0
 8002532:	683b      	ldr	r3, [r7, #0]
 8002534:	f8d3 30f0 	ldr.w	r3, [r3, #240]	; 0xf0
 8002538:	429a      	cmp	r2, r3
 800253a:	f040 80e1 	bne.w	8002700 <marte__kernel__Oeq__5+0x474>
 800253e:	687b      	ldr	r3, [r7, #4]
 8002540:	f8d3 20f4 	ldr.w	r2, [r3, #244]	; 0xf4
 8002544:	683b      	ldr	r3, [r7, #0]
 8002546:	f8d3 30f4 	ldr.w	r3, [r3, #244]	; 0xf4
 800254a:	429a      	cmp	r2, r3
 800254c:	f040 80d8 	bne.w	8002700 <marte__kernel__Oeq__5+0x474>
 8002550:	687b      	ldr	r3, [r7, #4]
 8002552:	f8d3 20f8 	ldr.w	r2, [r3, #248]	; 0xf8
 8002556:	683b      	ldr	r3, [r7, #0]
 8002558:	f8d3 30f8 	ldr.w	r3, [r3, #248]	; 0xf8
 800255c:	429a      	cmp	r2, r3
 800255e:	f040 80cf 	bne.w	8002700 <marte__kernel__Oeq__5+0x474>
 8002562:	687b      	ldr	r3, [r7, #4]
 8002564:	f8d3 20fc 	ldr.w	r2, [r3, #252]	; 0xfc
 8002568:	683b      	ldr	r3, [r7, #0]
 800256a:	f8d3 30fc 	ldr.w	r3, [r3, #252]	; 0xfc
 800256e:	429a      	cmp	r2, r3
 8002570:	f040 80c6 	bne.w	8002700 <marte__kernel__Oeq__5+0x474>
 8002574:	687b      	ldr	r3, [r7, #4]
 8002576:	f8d3 2100 	ldr.w	r2, [r3, #256]	; 0x100
 800257a:	683b      	ldr	r3, [r7, #0]
 800257c:	f8d3 3100 	ldr.w	r3, [r3, #256]	; 0x100
 8002580:	429a      	cmp	r2, r3
 8002582:	f040 80bd 	bne.w	8002700 <marte__kernel__Oeq__5+0x474>
 8002586:	687b      	ldr	r3, [r7, #4]
 8002588:	f8d3 2104 	ldr.w	r2, [r3, #260]	; 0x104
 800258c:	683b      	ldr	r3, [r7, #0]
 800258e:	f8d3 3104 	ldr.w	r3, [r3, #260]	; 0x104
 8002592:	429a      	cmp	r2, r3
 8002594:	f040 80b4 	bne.w	8002700 <marte__kernel__Oeq__5+0x474>
 8002598:	687b      	ldr	r3, [r7, #4]
 800259a:	f8d3 2108 	ldr.w	r2, [r3, #264]	; 0x108
 800259e:	683b      	ldr	r3, [r7, #0]
 80025a0:	f8d3 3108 	ldr.w	r3, [r3, #264]	; 0x108
 80025a4:	429a      	cmp	r2, r3
 80025a6:	f040 80ab 	bne.w	8002700 <marte__kernel__Oeq__5+0x474>
 80025aa:	687b      	ldr	r3, [r7, #4]
 80025ac:	f8d3 210c 	ldr.w	r2, [r3, #268]	; 0x10c
 80025b0:	683b      	ldr	r3, [r7, #0]
 80025b2:	f8d3 310c 	ldr.w	r3, [r3, #268]	; 0x10c
 80025b6:	429a      	cmp	r2, r3
 80025b8:	f040 80a2 	bne.w	8002700 <marte__kernel__Oeq__5+0x474>
 80025bc:	687b      	ldr	r3, [r7, #4]
 80025be:	f8d3 2110 	ldr.w	r2, [r3, #272]	; 0x110
 80025c2:	683b      	ldr	r3, [r7, #0]
 80025c4:	f8d3 3110 	ldr.w	r3, [r3, #272]	; 0x110
 80025c8:	429a      	cmp	r2, r3
 80025ca:	f040 8099 	bne.w	8002700 <marte__kernel__Oeq__5+0x474>
 80025ce:	687b      	ldr	r3, [r7, #4]
 80025d0:	f8d3 2114 	ldr.w	r2, [r3, #276]	; 0x114
 80025d4:	683b      	ldr	r3, [r7, #0]
 80025d6:	f8d3 3114 	ldr.w	r3, [r3, #276]	; 0x114
 80025da:	429a      	cmp	r2, r3
 80025dc:	f040 8090 	bne.w	8002700 <marte__kernel__Oeq__5+0x474>
 80025e0:	687b      	ldr	r3, [r7, #4]
 80025e2:	f893 3118 	ldrb.w	r3, [r3, #280]	; 0x118
 80025e6:	f083 0301 	eor.w	r3, r3, #1
 80025ea:	b2da      	uxtb	r2, r3
 80025ec:	683b      	ldr	r3, [r7, #0]
 80025ee:	f893 3118 	ldrb.w	r3, [r3, #280]	; 0x118
 80025f2:	4053      	eors	r3, r2
 80025f4:	b2db      	uxtb	r3, r3
 80025f6:	2b00      	cmp	r3, #0
 80025f8:	f000 8082 	beq.w	8002700 <marte__kernel__Oeq__5+0x474>
 80025fc:	687b      	ldr	r3, [r7, #4]
 80025fe:	f8d3 211c 	ldr.w	r2, [r3, #284]	; 0x11c
 8002602:	683b      	ldr	r3, [r7, #0]
 8002604:	f8d3 311c 	ldr.w	r3, [r3, #284]	; 0x11c
 8002608:	429a      	cmp	r2, r3
 800260a:	d179      	bne.n	8002700 <marte__kernel__Oeq__5+0x474>
 800260c:	687b      	ldr	r3, [r7, #4]
 800260e:	f8d3 2120 	ldr.w	r2, [r3, #288]	; 0x120
 8002612:	683b      	ldr	r3, [r7, #0]
 8002614:	f8d3 3120 	ldr.w	r3, [r3, #288]	; 0x120
 8002618:	429a      	cmp	r2, r3
 800261a:	d171      	bne.n	8002700 <marte__kernel__Oeq__5+0x474>
 800261c:	687b      	ldr	r3, [r7, #4]
 800261e:	f893 3124 	ldrb.w	r3, [r3, #292]	; 0x124
 8002622:	f083 0301 	eor.w	r3, r3, #1
 8002626:	b2da      	uxtb	r2, r3
 8002628:	683b      	ldr	r3, [r7, #0]
 800262a:	f893 3124 	ldrb.w	r3, [r3, #292]	; 0x124
 800262e:	4053      	eors	r3, r2
 8002630:	b2db      	uxtb	r3, r3
 8002632:	2b00      	cmp	r3, #0
 8002634:	d064      	beq.n	8002700 <marte__kernel__Oeq__5+0x474>
 8002636:	687b      	ldr	r3, [r7, #4]
 8002638:	f8d3 2128 	ldr.w	r2, [r3, #296]	; 0x128
 800263c:	683b      	ldr	r3, [r7, #0]
 800263e:	f8d3 3128 	ldr.w	r3, [r3, #296]	; 0x128
 8002642:	429a      	cmp	r2, r3
 8002644:	d15c      	bne.n	8002700 <marte__kernel__Oeq__5+0x474>
 8002646:	687b      	ldr	r3, [r7, #4]
 8002648:	f8b3 212c 	ldrh.w	r2, [r3, #300]	; 0x12c
 800264c:	683b      	ldr	r3, [r7, #0]
 800264e:	f8b3 312c 	ldrh.w	r3, [r3, #300]	; 0x12c
 8002652:	429a      	cmp	r2, r3
 8002654:	d154      	bne.n	8002700 <marte__kernel__Oeq__5+0x474>
 8002656:	687b      	ldr	r3, [r7, #4]
 8002658:	f503 7298 	add.w	r2, r3, #304	; 0x130
 800265c:	683b      	ldr	r3, [r7, #0]
 800265e:	f503 7198 	add.w	r1, r3, #304	; 0x130
 8002662:	f107 030c 	add.w	r3, r7, #12
 8002666:	469c      	mov	ip, r3
 8002668:	4610      	mov	r0, r2
 800266a:	f7ff fdd7 	bl	800221c <marte__kernel__Oeq__E140s__5.8513>
 800266e:	4603      	mov	r3, r0
 8002670:	2b00      	cmp	r3, #0
 8002672:	d045      	beq.n	8002700 <marte__kernel__Oeq__5+0x474>
 8002674:	687b      	ldr	r3, [r7, #4]
 8002676:	f8d3 2150 	ldr.w	r2, [r3, #336]	; 0x150
 800267a:	683b      	ldr	r3, [r7, #0]
 800267c:	f8d3 3150 	ldr.w	r3, [r3, #336]	; 0x150
 8002680:	429a      	cmp	r2, r3
 8002682:	d13d      	bne.n	8002700 <marte__kernel__Oeq__5+0x474>
 8002684:	687b      	ldr	r3, [r7, #4]
 8002686:	f8d3 2154 	ldr.w	r2, [r3, #340]	; 0x154
 800268a:	683b      	ldr	r3, [r7, #0]
 800268c:	f8d3 3154 	ldr.w	r3, [r3, #340]	; 0x154
 8002690:	429a      	cmp	r2, r3
 8002692:	d135      	bne.n	8002700 <marte__kernel__Oeq__5+0x474>
 8002694:	687b      	ldr	r3, [r7, #4]
 8002696:	f8d3 2158 	ldr.w	r2, [r3, #344]	; 0x158
 800269a:	683b      	ldr	r3, [r7, #0]
 800269c:	f8d3 3158 	ldr.w	r3, [r3, #344]	; 0x158
 80026a0:	429a      	cmp	r2, r3
 80026a2:	d12d      	bne.n	8002700 <marte__kernel__Oeq__5+0x474>
 80026a4:	687b      	ldr	r3, [r7, #4]
 80026a6:	f8d3 215c 	ldr.w	r2, [r3, #348]	; 0x15c
 80026aa:	683b      	ldr	r3, [r7, #0]
 80026ac:	f8d3 315c 	ldr.w	r3, [r3, #348]	; 0x15c
 80026b0:	429a      	cmp	r2, r3
 80026b2:	d125      	bne.n	8002700 <marte__kernel__Oeq__5+0x474>
 80026b4:	687b      	ldr	r3, [r7, #4]
 80026b6:	f893 3160 	ldrb.w	r3, [r3, #352]	; 0x160
 80026ba:	f083 0301 	eor.w	r3, r3, #1
 80026be:	b2da      	uxtb	r2, r3
 80026c0:	683b      	ldr	r3, [r7, #0]
 80026c2:	f893 3160 	ldrb.w	r3, [r3, #352]	; 0x160
 80026c6:	4053      	eors	r3, r2
 80026c8:	b2db      	uxtb	r3, r3
 80026ca:	2b00      	cmp	r3, #0
 80026cc:	d018      	beq.n	8002700 <marte__kernel__Oeq__5+0x474>
 80026ce:	687b      	ldr	r3, [r7, #4]
 80026d0:	f8d3 2164 	ldr.w	r2, [r3, #356]	; 0x164
 80026d4:	683b      	ldr	r3, [r7, #0]
 80026d6:	f8d3 3164 	ldr.w	r3, [r3, #356]	; 0x164
 80026da:	429a      	cmp	r2, r3
 80026dc:	d110      	bne.n	8002700 <marte__kernel__Oeq__5+0x474>
 80026de:	687b      	ldr	r3, [r7, #4]
 80026e0:	f503 72b4 	add.w	r2, r3, #360	; 0x168
 80026e4:	683b      	ldr	r3, [r7, #0]
 80026e6:	f503 71b4 	add.w	r1, r3, #360	; 0x168
 80026ea:	f107 030c 	add.w	r3, r7, #12
 80026ee:	469c      	mov	ip, r3
 80026f0:	4610      	mov	r0, r2
 80026f2:	f000 f80b 	bl	800270c <marte__kernel__Oeq__E143s__5.8517>
 80026f6:	4603      	mov	r3, r0
 80026f8:	2b00      	cmp	r3, #0
 80026fa:	d001      	beq.n	8002700 <marte__kernel__Oeq__5+0x474>
 80026fc:	2301      	movs	r3, #1
 80026fe:	e000      	b.n	8002702 <marte__kernel__Oeq__5+0x476>
 8002700:	2300      	movs	r3, #0
 8002702:	4618      	mov	r0, r3
 8002704:	3714      	adds	r7, #20
 8002706:	46bd      	mov	sp, r7
 8002708:	bd90      	pop	{r4, r7, pc}
 800270a:	bf00      	nop

0800270c <marte__kernel__Oeq__E143s__5.8517>:
 800270c:	b480      	push	{r7}
 800270e:	b085      	sub	sp, #20
 8002710:	af00      	add	r7, sp, #0
 8002712:	60f8      	str	r0, [r7, #12]
 8002714:	60b9      	str	r1, [r7, #8]
 8002716:	f8c7 c004 	str.w	ip, [r7, #4]
 800271a:	2300      	movs	r3, #0
 800271c:	2b09      	cmp	r3, #9
 800271e:	dc0e      	bgt.n	800273e <marte__kernel__Oeq__E143s__5.8517+0x32>
 8002720:	4619      	mov	r1, r3
 8002722:	68fa      	ldr	r2, [r7, #12]
 8002724:	f852 1021 	ldr.w	r1, [r2, r1, lsl #2]
 8002728:	4618      	mov	r0, r3
 800272a:	68ba      	ldr	r2, [r7, #8]
 800272c:	f852 2020 	ldr.w	r2, [r2, r0, lsl #2]
 8002730:	4291      	cmp	r1, r2
 8002732:	d001      	beq.n	8002738 <marte__kernel__Oeq__E143s__5.8517+0x2c>
 8002734:	2300      	movs	r3, #0
 8002736:	e003      	b.n	8002740 <marte__kernel__Oeq__E143s__5.8517+0x34>
 8002738:	3301      	adds	r3, #1
 800273a:	b25b      	sxtb	r3, r3
 800273c:	e7ee      	b.n	800271c <marte__kernel__Oeq__E143s__5.8517+0x10>
 800273e:	2301      	movs	r3, #1
 8002740:	4618      	mov	r0, r3
 8002742:	3714      	adds	r7, #20
 8002744:	46bd      	mov	sp, r7
 8002746:	f85d 7b04 	ldr.w	r7, [sp], #4
 800274a:	4770      	bx	lr

0800274c <marte__kernel___assign__4>:
 800274c:	b590      	push	{r4, r7, lr}
 800274e:	b083      	sub	sp, #12
 8002750:	af00      	add	r7, sp, #0
 8002752:	6078      	str	r0, [r7, #4]
 8002754:	6039      	str	r1, [r7, #0]
 8002756:	687b      	ldr	r3, [r7, #4]
 8002758:	681c      	ldr	r4, [r3, #0]
 800275a:	687a      	ldr	r2, [r7, #4]
 800275c:	683b      	ldr	r3, [r7, #0]
 800275e:	4610      	mov	r0, r2
 8002760:	4619      	mov	r1, r3
 8002762:	f44f 73c8 	mov.w	r3, #400	; 0x190
 8002766:	461a      	mov	r2, r3
 8002768:	f011 f8a6 	bl	80138b8 <memcpy>
 800276c:	687b      	ldr	r3, [r7, #4]
 800276e:	601c      	str	r4, [r3, #0]
 8002770:	370c      	adds	r7, #12
 8002772:	46bd      	mov	sp, r7
 8002774:	bd90      	pop	{r4, r7, pc}
 8002776:	bf00      	nop

08002778 <marte__kernel__tasks_lists__elementIP>:
 8002778:	b580      	push	{r7, lr}
 800277a:	b082      	sub	sp, #8
 800277c:	af00      	add	r7, sp, #0
 800277e:	6078      	str	r0, [r7, #4]
 8002780:	460b      	mov	r3, r1
 8002782:	70fb      	strb	r3, [r7, #3]
 8002784:	78fb      	ldrb	r3, [r7, #3]
 8002786:	2b00      	cmp	r3, #0
 8002788:	d002      	beq.n	8002790 <marte__kernel__tasks_lists__elementIP+0x18>
 800278a:	4a07      	ldr	r2, [pc, #28]	; (80027a8 <marte__kernel__tasks_lists__elementIP+0x30>)
 800278c:	687b      	ldr	r3, [r7, #4]
 800278e:	601a      	str	r2, [r3, #0]
 8002790:	687b      	ldr	r3, [r7, #4]
 8002792:	2100      	movs	r1, #0
 8002794:	4618      	mov	r0, r3
 8002796:	f7ff fc5b 	bl	8002050 <marte__kernel__tcbIP>
 800279a:	687b      	ldr	r3, [r7, #4]
 800279c:	2200      	movs	r2, #0
 800279e:	f8c3 2194 	str.w	r2, [r3, #404]	; 0x194
 80027a2:	3708      	adds	r7, #8
 80027a4:	46bd      	mov	sp, r7
 80027a6:	bd80      	pop	{r7, pc}
 80027a8:	0801ee70 	.word	0x0801ee70

080027ac <marte__kernel__tasks_lists___size__2>:
 80027ac:	b490      	push	{r4, r7}
 80027ae:	b082      	sub	sp, #8
 80027b0:	af00      	add	r7, sp, #0
 80027b2:	6078      	str	r0, [r7, #4]
 80027b4:	f44f 634c 	mov.w	r3, #3264	; 0xcc0
 80027b8:	f04f 0400 	mov.w	r4, #0
 80027bc:	4618      	mov	r0, r3
 80027be:	4621      	mov	r1, r4
 80027c0:	3708      	adds	r7, #8
 80027c2:	46bd      	mov	sp, r7
 80027c4:	bc90      	pop	{r4, r7}
 80027c6:	4770      	bx	lr

080027c8 <marte__kernel__tasks_lists__Oeq__2>:
 80027c8:	b580      	push	{r7, lr}
 80027ca:	b082      	sub	sp, #8
 80027cc:	af00      	add	r7, sp, #0
 80027ce:	6078      	str	r0, [r7, #4]
 80027d0:	6039      	str	r1, [r7, #0]
 80027d2:	687b      	ldr	r3, [r7, #4]
 80027d4:	683a      	ldr	r2, [r7, #0]
 80027d6:	4611      	mov	r1, r2
 80027d8:	4618      	mov	r0, r3
 80027da:	f7ff fd57 	bl	800228c <marte__kernel__Oeq__5>
 80027de:	4603      	mov	r3, r0
 80027e0:	2b00      	cmp	r3, #0
 80027e2:	d016      	beq.n	8002812 <marte__kernel__tasks_lists__Oeq__2+0x4a>
 80027e4:	687b      	ldr	r3, [r7, #4]
 80027e6:	f893 3190 	ldrb.w	r3, [r3, #400]	; 0x190
 80027ea:	f083 0301 	eor.w	r3, r3, #1
 80027ee:	b2da      	uxtb	r2, r3
 80027f0:	683b      	ldr	r3, [r7, #0]
 80027f2:	f893 3190 	ldrb.w	r3, [r3, #400]	; 0x190
 80027f6:	4053      	eors	r3, r2
 80027f8:	b2db      	uxtb	r3, r3
 80027fa:	2b00      	cmp	r3, #0
 80027fc:	d009      	beq.n	8002812 <marte__kernel__tasks_lists__Oeq__2+0x4a>
 80027fe:	687b      	ldr	r3, [r7, #4]
 8002800:	f8d3 2194 	ldr.w	r2, [r3, #404]	; 0x194
 8002804:	683b      	ldr	r3, [r7, #0]
 8002806:	f8d3 3194 	ldr.w	r3, [r3, #404]	; 0x194
 800280a:	429a      	cmp	r2, r3
 800280c:	d101      	bne.n	8002812 <marte__kernel__tasks_lists__Oeq__2+0x4a>
 800280e:	2301      	movs	r3, #1
 8002810:	e000      	b.n	8002814 <marte__kernel__tasks_lists__Oeq__2+0x4c>
 8002812:	2300      	movs	r3, #0
 8002814:	4618      	mov	r0, r3
 8002816:	3708      	adds	r7, #8
 8002818:	46bd      	mov	sp, r7
 800281a:	bd80      	pop	{r7, pc}

0800281c <marte__kernel__tasks_lists___assign__2>:
 800281c:	b590      	push	{r4, r7, lr}
 800281e:	b083      	sub	sp, #12
 8002820:	af00      	add	r7, sp, #0
 8002822:	6078      	str	r0, [r7, #4]
 8002824:	6039      	str	r1, [r7, #0]
 8002826:	687b      	ldr	r3, [r7, #4]
 8002828:	681c      	ldr	r4, [r3, #0]
 800282a:	687a      	ldr	r2, [r7, #4]
 800282c:	683b      	ldr	r3, [r7, #0]
 800282e:	4610      	mov	r0, r2
 8002830:	4619      	mov	r1, r3
 8002832:	f44f 73cc 	mov.w	r3, #408	; 0x198
 8002836:	461a      	mov	r2, r3
 8002838:	f011 f83e 	bl	80138b8 <memcpy>
 800283c:	687b      	ldr	r3, [r7, #4]
 800283e:	601c      	str	r4, [r3, #0]
 8002840:	370c      	adds	r7, #12
 8002842:	46bd      	mov	sp, r7
 8002844:	bd90      	pop	{r4, r7, pc}
 8002846:	bf00      	nop

08002848 <marte__kernel__tasks_map_lists__Tpriority_listsBIP>:
 8002848:	b4b0      	push	{r4, r5, r7}
 800284a:	b083      	sub	sp, #12
 800284c:	af00      	add	r7, sp, #0
 800284e:	e9c7 0100 	strd	r0, r1, [r7]
 8002852:	687b      	ldr	r3, [r7, #4]
 8002854:	681b      	ldr	r3, [r3, #0]
 8002856:	461d      	mov	r5, r3
 8002858:	687b      	ldr	r3, [r7, #4]
 800285a:	681b      	ldr	r3, [r3, #0]
 800285c:	687a      	ldr	r2, [r7, #4]
 800285e:	6852      	ldr	r2, [r2, #4]
 8002860:	4293      	cmp	r3, r2
 8002862:	dc09      	bgt.n	8002878 <marte__kernel__tasks_map_lists__Tpriority_listsBIP+0x30>
 8002864:	6839      	ldr	r1, [r7, #0]
 8002866:	4618      	mov	r0, r3
 8002868:	1b40      	subs	r0, r0, r5
 800286a:	2400      	movs	r4, #0
 800286c:	f841 4020 	str.w	r4, [r1, r0, lsl #2]
 8002870:	4293      	cmp	r3, r2
 8002872:	d001      	beq.n	8002878 <marte__kernel__tasks_map_lists__Tpriority_listsBIP+0x30>
 8002874:	3301      	adds	r3, #1
 8002876:	e7f5      	b.n	8002864 <marte__kernel__tasks_map_lists__Tpriority_listsBIP+0x1c>
 8002878:	370c      	adds	r7, #12
 800287a:	46bd      	mov	sp, r7
 800287c:	bcb0      	pop	{r4, r5, r7}
 800287e:	4770      	bx	lr

08002880 <marte__kernel__tasks_map_lists__map_listIP>:
 8002880:	b580      	push	{r7, lr}
 8002882:	b082      	sub	sp, #8
 8002884:	af00      	add	r7, sp, #0
 8002886:	6078      	str	r0, [r7, #4]
 8002888:	687b      	ldr	r3, [r7, #4]
 800288a:	3310      	adds	r3, #16
 800288c:	4619      	mov	r1, r3
 800288e:	4a06      	ldr	r2, [pc, #24]	; (80028a8 <marte__kernel__tasks_map_lists__map_listIP+0x28>)
 8002890:	4608      	mov	r0, r1
 8002892:	4611      	mov	r1, r2
 8002894:	f7ff ffd8 	bl	8002848 <marte__kernel__tasks_map_lists__Tpriority_listsBIP>
 8002898:	687b      	ldr	r3, [r7, #4]
 800289a:	2200      	movs	r2, #0
 800289c:	f8c3 219c 	str.w	r2, [r3, #412]	; 0x19c
 80028a0:	3708      	adds	r7, #8
 80028a2:	46bd      	mov	sp, r7
 80028a4:	bd80      	pop	{r7, pc}
 80028a6:	bf00      	nop
 80028a8:	0801ec3c 	.word	0x0801ec3c

080028ac <marte__kernel__task_container_baseIP>:
 80028ac:	b480      	push	{r7}
 80028ae:	b083      	sub	sp, #12
 80028b0:	af00      	add	r7, sp, #0
 80028b2:	6078      	str	r0, [r7, #4]
 80028b4:	460b      	mov	r3, r1
 80028b6:	70fb      	strb	r3, [r7, #3]
 80028b8:	78fb      	ldrb	r3, [r7, #3]
 80028ba:	2b00      	cmp	r3, #0
 80028bc:	d002      	beq.n	80028c4 <marte__kernel__task_container_baseIP+0x18>
 80028be:	4a05      	ldr	r2, [pc, #20]	; (80028d4 <marte__kernel__task_container_baseIP+0x28>)
 80028c0:	687b      	ldr	r3, [r7, #4]
 80028c2:	601a      	str	r2, [r3, #0]
 80028c4:	687b      	ldr	r3, [r7, #4]
 80028c6:	2200      	movs	r2, #0
 80028c8:	605a      	str	r2, [r3, #4]
 80028ca:	370c      	adds	r7, #12
 80028cc:	46bd      	mov	sp, r7
 80028ce:	f85d 7b04 	ldr.w	r7, [sp], #4
 80028d2:	4770      	bx	lr
 80028d4:	0801f380 	.word	0x0801f380

080028d8 <marte__kernel___size__5>:
 80028d8:	b490      	push	{r4, r7}
 80028da:	b082      	sub	sp, #8
 80028dc:	af00      	add	r7, sp, #0
 80028de:	6078      	str	r0, [r7, #4]
 80028e0:	f04f 0340 	mov.w	r3, #64	; 0x40
 80028e4:	f04f 0400 	mov.w	r4, #0
 80028e8:	4618      	mov	r0, r3
 80028ea:	4621      	mov	r1, r4
 80028ec:	3708      	adds	r7, #8
 80028ee:	46bd      	mov	sp, r7
 80028f0:	bc90      	pop	{r4, r7}
 80028f2:	4770      	bx	lr

080028f4 <marte__kernel__Oeq__6>:
 80028f4:	b480      	push	{r7}
 80028f6:	b083      	sub	sp, #12
 80028f8:	af00      	add	r7, sp, #0
 80028fa:	6078      	str	r0, [r7, #4]
 80028fc:	6039      	str	r1, [r7, #0]
 80028fe:	687b      	ldr	r3, [r7, #4]
 8002900:	685a      	ldr	r2, [r3, #4]
 8002902:	683b      	ldr	r3, [r7, #0]
 8002904:	685b      	ldr	r3, [r3, #4]
 8002906:	429a      	cmp	r2, r3
 8002908:	bf0c      	ite	eq
 800290a:	2301      	moveq	r3, #1
 800290c:	2300      	movne	r3, #0
 800290e:	b2db      	uxtb	r3, r3
 8002910:	4618      	mov	r0, r3
 8002912:	370c      	adds	r7, #12
 8002914:	46bd      	mov	sp, r7
 8002916:	f85d 7b04 	ldr.w	r7, [sp], #4
 800291a:	4770      	bx	lr

0800291c <marte__kernel___assign__5>:
 800291c:	b480      	push	{r7}
 800291e:	b083      	sub	sp, #12
 8002920:	af00      	add	r7, sp, #0
